{
  "_format": "hh-sol-artifact-1",
  "contractName": "NftHandlerV1",
  "sourceName": "contracts/nftHandler.sol",
  "abi": [
    {
      "anonymous": false,
      "inputs": [
        {
          "indexed": false,
          "internalType": "uint8",
          "name": "version",
          "type": "uint8"
        }
      ],
      "name": "Initialized",
      "type": "event"
    },
    {
      "inputs": [
        {
          "internalType": "string",
          "name": "",
          "type": "string"
        },
        {
          "internalType": "address",
          "name": "",
          "type": "address"
        }
      ],
      "name": "_attachedNft2",
      "outputs": [
        {
          "internalType": "bool",
          "name": "active",
          "type": "bool"
        },
        {
          "internalType": "string",
          "name": "nodeTypeName",
          "type": "string"
        },
        {
          "internalType": "uint256",
          "name": "rewardBoost",
          "type": "uint256"
        },
        {
          "internalType": "uint256",
          "name": "timeBoost",
          "type": "uint256"
        },
        {
          "internalType": "uint256",
          "name": "feesReduce",
          "type": "uint256"
        },
        {
          "internalType": "uint256",
          "name": "option",
          "type": "uint256"
        },
        {
          "internalType": "address",
          "name": "nftAddr",
          "type": "address"
        },
        {
          "internalType": "bool",
          "name": "typeReward",
          "type": "bool"
        },
        {
          "internalType": "bool",
          "name": "typeBoost",
          "type": "bool"
        },
        {
          "internalType": "bool",
          "name": "typeReduce",
          "type": "bool"
        }
      ],
      "stateMutability": "view",
      "type": "function"
    },
    {
      "inputs": [],
      "name": "_gateKeeper",
      "outputs": [
        {
          "internalType": "address",
          "name": "",
          "type": "address"
        }
      ],
      "stateMutability": "view",
      "type": "function"
    },
    {
      "inputs": [
        {
          "internalType": "address",
          "name": "sender",
          "type": "address"
        },
        {
          "internalType": "contract ERC721",
          "name": "_nftAddr",
          "type": "address"
        },
        {
          "internalType": "uint256",
          "name": "nftId",
          "type": "uint256"
        },
        {
          "internalType": "string",
          "name": "nodeTypeName",
          "type": "string"
        }
      ],
      "name": "addNft",
      "outputs": [],
      "stateMutability": "nonpayable",
      "type": "function"
    },
    {
      "inputs": [
        {
          "internalType": "address",
          "name": "sender",
          "type": "address"
        },
        {
          "internalType": "contract ERC721",
          "name": "_nftAddr",
          "type": "address"
        },
        {
          "internalType": "uint256",
          "name": "nftId",
          "type": "uint256"
        },
        {
          "internalType": "uint256",
          "name": "idPartener",
          "type": "uint256"
        },
        {
          "internalType": "string",
          "name": "nodeTypeName",
          "type": "string"
        }
      ],
      "name": "addNftPartener",
      "outputs": [],
      "stateMutability": "nonpayable",
      "type": "function"
    },
    {
      "inputs": [
        {
          "internalType": "address",
          "name": "user",
          "type": "address"
        },
        {
          "internalType": "string",
          "name": "nodeTypeName",
          "type": "string"
        }
      ],
      "name": "caluclatRewardNft",
      "outputs": [
        {
          "internalType": "uint256",
          "name": "rewardBoost",
          "type": "uint256"
        },
        {
          "internalType": "uint256",
          "name": "feesReduce",
          "type": "uint256"
        },
        {
          "internalType": "uint256",
          "name": "timeBoost",
          "type": "uint256"
        }
      ],
      "stateMutability": "view",
      "type": "function"
    },
    {
      "inputs": [
        {
          "internalType": "uint256",
          "name": "id",
          "type": "uint256"
        }
      ],
      "name": "getNFTDATA",
      "outputs": [
        {
          "components": [
            {
              "internalType": "uint256",
              "name": "typeNft",
              "type": "uint256"
            },
            {
              "internalType": "uint256",
              "name": "rewardBoost",
              "type": "uint256"
            },
            {
              "internalType": "uint256",
              "name": "timeBoost",
              "type": "uint256"
            },
            {
              "internalType": "uint256",
              "name": "feesReduce",
              "type": "uint256"
            },
            {
              "internalType": "address",
              "name": "nftAddr",
              "type": "address"
            }
          ],
          "internalType": "struct NftHandlerV1.NftIdtoReward",
          "name": "",
          "type": "tuple"
        }
      ],
      "stateMutability": "view",
      "type": "function"
    },
    {
      "inputs": [
        {
          "internalType": "string",
          "name": "nodeTypeName",
          "type": "string"
        },
        {
          "internalType": "address",
          "name": "_owner",
          "type": "address"
        }
      ],
      "name": "getNFTTypeOwner",
      "outputs": [
        {
          "components": [
            {
              "internalType": "uint256[]",
              "name": "id",
              "type": "uint256[]"
            },
            {
              "internalType": "bool",
              "name": "active",
              "type": "bool"
            },
            {
              "internalType": "string",
              "name": "nodeTypeName",
              "type": "string"
            },
            {
              "internalType": "uint256",
              "name": "rewardBoost",
              "type": "uint256"
            },
            {
              "internalType": "uint256",
              "name": "timeBoost",
              "type": "uint256"
            },
            {
              "internalType": "uint256",
              "name": "feesReduce",
              "type": "uint256"
            },
            {
              "internalType": "uint256",
              "name": "option",
              "type": "uint256"
            },
            {
              "internalType": "address",
              "name": "nftAddr",
              "type": "address"
            },
            {
              "internalType": "bool",
              "name": "typeReward",
              "type": "bool"
            },
            {
              "internalType": "bool",
              "name": "typeBoost",
              "type": "bool"
            },
            {
              "internalType": "bool",
              "name": "typeReduce",
              "type": "bool"
            }
          ],
          "internalType": "struct NftHandlerV1.NftEntity",
          "name": "nodeTypeOwner",
          "type": "tuple"
        }
      ],
      "stateMutability": "view",
      "type": "function"
    },
    {
      "inputs": [
        {
          "internalType": "uint256",
          "name": "id",
          "type": "uint256"
        }
      ],
      "name": "getPartnairData",
      "outputs": [
        {
          "components": [
            {
              "internalType": "uint256",
              "name": "typeNft",
              "type": "uint256"
            },
            {
              "internalType": "uint256",
              "name": "rewardBoost",
              "type": "uint256"
            },
            {
              "internalType": "uint256",
              "name": "timeBoost",
              "type": "uint256"
            },
            {
              "internalType": "uint256",
              "name": "feesReduce",
              "type": "uint256"
            },
            {
              "internalType": "address",
              "name": "nftAddr",
              "type": "address"
            }
          ],
          "internalType": "struct NftHandlerV1.NftIdtoReward",
          "name": "",
          "type": "tuple"
        }
      ],
      "stateMutability": "view",
      "type": "function"
    },
    {
      "inputs": [],
      "name": "initialize",
      "outputs": [],
      "stateMutability": "nonpayable",
      "type": "function"
    },
    {
      "inputs": [
        {
          "internalType": "uint256",
          "name": "",
          "type": "uint256"
        }
      ],
      "name": "nftIdToReward",
      "outputs": [
        {
          "internalType": "uint256",
          "name": "typeNft",
          "type": "uint256"
        },
        {
          "internalType": "uint256",
          "name": "rewardBoost",
          "type": "uint256"
        },
        {
          "internalType": "uint256",
          "name": "timeBoost",
          "type": "uint256"
        },
        {
          "internalType": "uint256",
          "name": "feesReduce",
          "type": "uint256"
        },
        {
          "internalType": "address",
          "name": "nftAddr",
          "type": "address"
        }
      ],
      "stateMutability": "view",
      "type": "function"
    },
    {
      "inputs": [
        {
          "internalType": "string",
          "name": "",
          "type": "string"
        },
        {
          "internalType": "uint256",
          "name": "",
          "type": "uint256"
        },
        {
          "internalType": "uint256",
          "name": "",
          "type": "uint256"
        }
      ],
      "name": "nftInfo",
      "outputs": [
        {
          "internalType": "string",
          "name": "nftName",
          "type": "string"
        },
        {
          "internalType": "uint256",
          "name": "rewardBoost",
          "type": "uint256"
        },
        {
          "internalType": "uint256",
          "name": "timeBoost",
          "type": "uint256"
        },
        {
          "internalType": "uint256",
          "name": "feesReduce",
          "type": "uint256"
        }
      ],
      "stateMutability": "view",
      "type": "function"
    },
    {
      "inputs": [],
      "name": "nodeHandler",
      "outputs": [
        {
          "internalType": "contract NodeHandlerV3",
          "name": "",
          "type": "address"
        }
      ],
      "stateMutability": "view",
      "type": "function"
    },
    {
      "inputs": [
        {
          "internalType": "uint256",
          "name": "",
          "type": "uint256"
        }
      ],
      "name": "partenerToReward",
      "outputs": [
        {
          "internalType": "uint256",
          "name": "typeNft",
          "type": "uint256"
        },
        {
          "internalType": "uint256",
          "name": "rewardBoost",
          "type": "uint256"
        },
        {
          "internalType": "uint256",
          "name": "timeBoost",
          "type": "uint256"
        },
        {
          "internalType": "uint256",
          "name": "feesReduce",
          "type": "uint256"
        },
        {
          "internalType": "address",
          "name": "nftAddr",
          "type": "address"
        }
      ],
      "stateMutability": "view",
      "type": "function"
    },
    {
      "inputs": [
        {
          "internalType": "address",
          "name": "sender",
          "type": "address"
        },
        {
          "internalType": "uint256",
          "name": "nftId",
          "type": "uint256"
        },
        {
          "internalType": "string",
          "name": "nodeTypeName",
          "type": "string"
        }
      ],
      "name": "removeNft",
      "outputs": [],
      "stateMutability": "nonpayable",
      "type": "function"
    },
    {
      "inputs": [
        {
          "internalType": "address",
          "name": "sender",
          "type": "address"
        },
        {
          "internalType": "uint256",
          "name": "nftId",
          "type": "uint256"
        },
        {
          "internalType": "uint256",
          "name": "partnerId",
          "type": "uint256"
        },
        {
          "internalType": "string",
          "name": "nodeTypeName",
          "type": "string"
        }
      ],
      "name": "removeNftPartener",
      "outputs": [],
      "stateMutability": "nonpayable",
      "type": "function"
    },
    {
      "inputs": [],
      "name": "setGatekeeper",
      "outputs": [],
      "stateMutability": "nonpayable",
      "type": "function"
    },
    {
      "inputs": [
        {
          "components": [
            {
              "internalType": "uint256",
              "name": "typeNft",
              "type": "uint256"
            },
            {
              "internalType": "uint256",
              "name": "rewardBoost",
              "type": "uint256"
            },
            {
              "internalType": "uint256",
              "name": "timeBoost",
              "type": "uint256"
            },
            {
              "internalType": "uint256",
              "name": "feesReduce",
              "type": "uint256"
            },
            {
              "internalType": "address",
              "name": "nftAddr",
              "type": "address"
            }
          ],
          "internalType": "struct NftHandlerV1.NftIdtoReward[]",
          "name": "_nftInfo",
          "type": "tuple[]"
        },
        {
          "internalType": "uint256",
          "name": "nbNft",
          "type": "uint256"
        }
      ],
      "name": "setNFTData",
      "outputs": [],
      "stateMutability": "nonpayable",
      "type": "function"
    },
    {
      "inputs": [
        {
          "internalType": "address",
          "name": "nodHandler",
          "type": "address"
        }
      ],
      "name": "setNodeHandler",
      "outputs": [],
      "stateMutability": "nonpayable",
      "type": "function"
    },
    {
      "inputs": [
        {
          "internalType": "uint256",
          "name": "id",
          "type": "uint256"
        },
        {
          "internalType": "uint256",
          "name": "rewardBoost",
          "type": "uint256"
        },
        {
          "internalType": "uint256",
          "name": "timeBoost",
          "type": "uint256"
        },
        {
          "internalType": "uint256",
          "name": "feesReduce",
          "type": "uint256"
        },
        {
          "internalType": "address",
          "name": "nft",
          "type": "address"
        }
      ],
      "name": "setPartenairNftData",
      "outputs": [],
      "stateMutability": "nonpayable",
      "type": "function"
    },
    {
      "inputs": [
        {
          "internalType": "address",
          "name": "token_",
          "type": "address"
        }
      ],
      "name": "setToken",
      "outputs": [],
      "stateMutability": "nonpayable",
      "type": "function"
    },
    {
      "inputs": [],
      "name": "token",
      "outputs": [
        {
          "internalType": "address",
          "name": "",
          "type": "address"
        }
      ],
      "stateMutability": "view",
      "type": "function"
    }
  ],
  "bytecode": "0x608060405234801561001057600080fd5b50614c9f806100206000396000f3fe608060405234801561001057600080fd5b50600436106101375760003560e01c80637304a363116100b8578063dbde41351161007c578063dbde413514610345578063ef63056314610361578063f269080d1461037f578063f94e66031461039b578063fc0c546a146103ce578063fff0aa95146103ec57610137565b80637304a363146102865780637b1e64d4146102bf5780638129fc1c146102ef578063ae993bfb146102f9578063d86f526c1461032957610137565b80632dc6ab24116100ff5780632dc6ab24146101e2578063409befdf146101fe57806343cbfe94146102305780634f4ab0411461024c57806369e254241461026a57610137565b80630446f4401461013c57806306a9294a1461017057806310f02a2d1461017a57806313af53c4146101aa578063144fa6d7146101c6575b600080fd5b61015660048036038101906101519190613301565b610420565b60405161016795949392919061337e565b60405180910390f35b610178610476565b005b610194600480360381019061018f9190613301565b6104c1565b6040516101a19190613457565b60405180910390f35b6101c460048036038101906101bf9190613688565b61056c565b005b6101e060048036038101906101db91906136e4565b61072a565b005b6101fc60048036038101906101f79190613711565b610776565b005b61021860048036038101906102139190613841565b610846565b6040516102279392919061389d565b60405180910390f35b61024a600480360381019061024591906136e4565b610af0565b005b610254610b3c565b6040516102619190613933565b60405180910390f35b610284600480360381019061027f919061398c565b610b62565b005b6102a0600480360381019061029b9190613a23565b6115e6565b6040516102b69a99989796959493929190613b19565b60405180910390f35b6102d960048036038101906102d49190613a23565b611739565b6040516102e69190613dba565b60405180910390f35b6102f7611984565b005b610313600480360381019061030e9190613301565b6119c7565b6040516103209190613457565b60405180910390f35b610343600480360381019061033e9190613ddc565b611a72565b005b61035f600480360381019061035a9190613e5f565b611fe7565b005b610369612561565b6040516103769190613ece565b60405180910390f35b61039960048036038101906103949190613ee9565b612587565b005b6103b560048036038101906103b09190613f6c565b612eda565b6040516103c59493929190613fdb565b60405180910390f35b6103d6612fd2565b6040516103e39190613ece565b60405180910390f35b61040660048036038101906104019190613301565b612ff8565b60405161041795949392919061337e565b60405180910390f35b60366020528060005260406000206000915090508060000154908060010154908060020154908060030154908060040160009054906101000a900473ffffffffffffffffffffffffffffffffffffffff16905085565b61047e61304e565b33603360006101000a81548173ffffffffffffffffffffffffffffffffffffffff021916908373ffffffffffffffffffffffffffffffffffffffff160217905550565b6104c9613190565b603960008381526020019081526020016000206040518060a0016040529081600082015481526020016001820154815260200160028201548152602001600382015481526020016004820160009054906101000a900473ffffffffffffffffffffffffffffffffffffffff1673ffffffffffffffffffffffffffffffffffffffff1673ffffffffffffffffffffffffffffffffffffffff16815250509050919050565b61057461304e565b60005b818110156107255782818151811061059257610591614027565b5b602002602001015160000151603660006001846105af9190614085565b8152602001908152602001600020600001819055508281815181106105d7576105d6614027565b5b602002602001015160200151603660006001846105f49190614085565b81526020019081526020016000206001018190555082818151811061061c5761061b614027565b5b602002602001015160400151603660006001846106399190614085565b81526020019081526020016000206002018190555082818151811061066157610660614027565b5b6020026020010151606001516036600060018461067e9190614085565b8152602001908152602001600020600301819055508281815181106106a6576106a5614027565b5b602002602001015160800151603660006001846106c39190614085565b815260200190815260200160002060040160006101000a81548173ffffffffffffffffffffffffffffffffffffffff021916908373ffffffffffffffffffffffffffffffffffffffff160217905550808061071d906140b9565b915050610577565b505050565b61073261304e565b80603460006101000a81548173ffffffffffffffffffffffffffffffffffffffff021916908373ffffffffffffffffffffffffffffffffffffffff16021790555050565b61077e61304e565b846039600087815260200190815260200160002060000181905550836039600087815260200190815260200160002060010181905550826039600087815260200190815260200160002060020181905550816039600087815260200190815260200160002060030181905550806039600087815260200190815260200160002060040160006101000a81548173ffffffffffffffffffffffffffffffffffffffff021916908373ffffffffffffffffffffffffffffffffffffffff1602179055505050505050565b600080600060378460405161085b919061413d565b908152602001604051809103902060008673ffffffffffffffffffffffffffffffffffffffff1673ffffffffffffffffffffffffffffffffffffffff16815260200190815260200160002060010160009054906101000a900460ff166108f6576040517f08c379a00000000000000000000000000000000000000000000000000000000081526004016108ed906141a0565b60405180910390fd5b6000603785604051610908919061413d565b908152602001604051809103902060008773ffffffffffffffffffffffffffffffffffffffff1673ffffffffffffffffffffffffffffffffffffffff168152602001908152602001600020905060008160070160009054906101000a900473ffffffffffffffffffffffffffffffffffffffff169050600081905060005b8360000180549050811015610aaf578873ffffffffffffffffffffffffffffffffffffffff168273ffffffffffffffffffffffffffffffffffffffff16636352211e8660000184815481106109de576109dd614027565b5b90600052602060002001546040518263ffffffff1660e01b8152600401610a0591906141c0565b602060405180830381865afa158015610a22573d6000803e3d6000fd5b505050506040513d601f19601f82011682018060405250810190610a4691906141f0565b73ffffffffffffffffffffffffffffffffffffffff1614610a9c576040517f08c379a0000000000000000000000000000000000000000000000000000000008152600401610a9390614269565b60405180910390fd5b8080610aa7906140b9565b915050610986565b50826003015486610ac09190614085565b9550826005015485610ad29190614085565b9450826004015484610ae49190614085565b93505050509250925092565b610af861304e565b80603560006101000a81548173ffffffffffffffffffffffffffffffffffffffff021916908373ffffffffffffffffffffffffffffffffffffffff16021790555050565b603560009054906101000a900473ffffffffffffffffffffffffffffffffffffffff1681565b610b6a61304e565b610b72613138565b8373ffffffffffffffffffffffffffffffffffffffff166039600084815260200190815260200160002060040160009054906101000a900473ffffffffffffffffffffffffffffffffffffffff1673ffffffffffffffffffffffffffffffffffffffff1614610c16576040517f08c379a0000000000000000000000000000000000000000000000000000000008152600401610c0d906142d5565b60405180910390fd5b60008473ffffffffffffffffffffffffffffffffffffffff166370a08231876040518263ffffffff1660e01b8152600401610c519190613ece565b602060405180830381865afa158015610c6e573d6000803e3d6000fd5b505050506040513d601f19601f82011682018060405250810190610c92919061430a565b11610cd2576040517f08c379a0000000000000000000000000000000000000000000000000000000008152600401610cc990614383565b60405180910390fd5b8473ffffffffffffffffffffffffffffffffffffffff168473ffffffffffffffffffffffffffffffffffffffff16636352211e856040518263ffffffff1660e01b8152600401610d2291906141c0565b602060405180830381865afa158015610d3f573d6000803e3d6000fd5b505050506040513d601f19601f82011682018060405250810190610d6391906141f0565b73ffffffffffffffffffffffffffffffffffffffff1614610db9576040517f08c379a0000000000000000000000000000000000000000000000000000000008152600401610db0906143ef565b60405180910390fd5b6002603782604051610dcb919061413d565b908152602001604051809103902060008773ffffffffffffffffffffffffffffffffffffffff1673ffffffffffffffffffffffffffffffffffffffff1681526020019081526020016000206000018054905010610e5d576040517f08c379a0000000000000000000000000000000000000000000000000000000008152600401610e549061445b565b60405180910390fd5b603781604051610e6d919061413d565b908152602001604051809103902060008673ffffffffffffffffffffffffffffffffffffffff1673ffffffffffffffffffffffffffffffffffffffff16815260200190815260200160002060010160009054906101000a900460ff166112165760008060008060396000878152602001908152602001600020600101541115610ef95760019250610f47565b600060396000878152602001908152602001600020600301541115610f215760019150610f46565b600060396000878152602001908152602001600020600201541115610f4557600190505b5b5b60396000868152602001908152602001600020506000600167ffffffffffffffff811115610f7857610f77613488565b5b604051908082528060200260200182016040528015610fa65781602001602082028036833780820191505090505b5090508681600081518110610fbe57610fbd614027565b5b602002602001018181525050604051806101600160405280828152602001600115158152602001868152602001662386f26fc10000603960008a815260200190815260200160002060010154611014919061447b565b81526020016039600089815260200190815260200160002060020154815260200160396000898152602001908152602001600020600301548152602001600081526020018973ffffffffffffffffffffffffffffffffffffffff1681526020018515158152602001841515815260200183151581525060378660405161109a919061413d565b908152602001604051809103902060008b73ffffffffffffffffffffffffffffffffffffffff1673ffffffffffffffffffffffffffffffffffffffff16815260200190815260200160002060008201518160000190805190602001906111019291906131d5565b5060208201518160010160006101000a81548160ff021916908315150217905550604082015181600201908161113791906146bf565b50606082015181600301556080820151816004015560a0820151816005015560c0820151816006015560e08201518160070160006101000a81548173ffffffffffffffffffffffffffffffffffffffff021916908373ffffffffffffffffffffffffffffffffffffffff1602179055506101008201518160070160146101000a81548160ff0219169083151502179055506101208201518160070160156101000a81548160ff0219169083151502179055506101408201518160070160166101000a81548160ff021916908315150217905550905050505050506115d7565b6000603960008481526020019081526020016000206040518060a0016040529081600082015481526020016001820154815260200160028201548152602001600382015481526020016004820160009054906101000a900473ffffffffffffffffffffffffffffffffffffffff1673ffffffffffffffffffffffffffffffffffffffff1673ffffffffffffffffffffffffffffffffffffffff168152505090506000806037846040516112c9919061413d565b908152602001604051809103902060008973ffffffffffffffffffffffffffffffffffffffff1673ffffffffffffffffffffffffffffffffffffffff168152602001908152602001600020905060008160070160149054906101000a900460ff16905060008260070160159054906101000a900460ff16905060008360070160169054906101000a900460ff16905060005b84600001805490508110156113a9578460000181815481106113805761137f614027565b5b90600052602060002001548a1461139657600195505b80806113a1906140b9565b91505061135b565b50846113ea576040517f08c379a00000000000000000000000000000000000000000000000000000000081526004016113e1906147dd565b60405180910390fd5b60008660200151111561143d578215611438576040517f08c379a000000000000000000000000000000000000000000000000000000000815260040161142f90614849565b60405180910390fd5b6114e1565b60008660600151111561149057811561148b576040517f08c379a0000000000000000000000000000000000000000000000000000000008152600401611482906148b5565b60405180910390fd5b6114e0565b6000866040015111156114df5780156114de576040517f08c379a00000000000000000000000000000000000000000000000000000000081526004016114d590614921565b60405180910390fd5b5b5b5b60008660600151111561151d5760018460070160156101000a81548160ff021916908315150217905550856060015184600501819055506115a5565b60008660200151111561156b57662386f26fc100008660200151611541919061447b565b846003018190555060018460070160146101000a81548160ff0219169083151502179055506115a4565b6000866040015111156115a35760018460070160166101000a81548160ff021916908315150217905550856040015184600401819055505b5b5b836000018990806001815401808255809150506001900390600052602060002001600090919091909150555050505050505b6115df613187565b5050505050565b603782805160208101820180518482526020830160208501208183528095505050505050602052806000526040600020600091509150508060010160009054906101000a900460ff169080600201805461163f906144ec565b80601f016020809104026020016040519081016040528092919081815260200182805461166b906144ec565b80156116b85780601f1061168d576101008083540402835291602001916116b8565b820191906000526020600020905b81548152906001019060200180831161169b57829003601f168201915b5050505050908060030154908060040154908060050154908060060154908060070160009054906101000a900473ffffffffffffffffffffffffffffffffffffffff16908060070160149054906101000a900460ff16908060070160159054906101000a900460ff16908060070160169054906101000a900460ff1690508a565b611741613222565b603783604051611751919061413d565b908152602001604051809103902060008373ffffffffffffffffffffffffffffffffffffffff1673ffffffffffffffffffffffffffffffffffffffff16815260200190815260200160002060405180610160016040529081600082018054806020026020016040519081016040528092919081815260200182805480156117f757602002820191906000526020600020905b8154815260200190600101908083116117e3575b505050505081526020016001820160009054906101000a900460ff1615151515815260200160028201805461182b906144ec565b80601f0160208091040260200160405190810160405280929190818152602001828054611857906144ec565b80156118a45780601f10611879576101008083540402835291602001916118a4565b820191906000526020600020905b81548152906001019060200180831161188757829003601f168201915b50505050508152602001600382015481526020016004820154815260200160058201548152602001600682015481526020016007820160009054906101000a900473ffffffffffffffffffffffffffffffffffffffff1673ffffffffffffffffffffffffffffffffffffffff1673ffffffffffffffffffffffffffffffffffffffff1681526020016007820160149054906101000a900460ff161515151581526020016007820160159054906101000a900460ff161515151581526020016007820160169054906101000a900460ff161515151581525050905092915050565b33603360006101000a81548173ffffffffffffffffffffffffffffffffffffffff021916908373ffffffffffffffffffffffffffffffffffffffff160217905550565b6119cf613190565b603660008381526020019081526020016000206040518060a0016040529081600082015481526020016001820154815260200160028201548152602001600382015481526020016004820160009054906101000a900473ffffffffffffffffffffffffffffffffffffffff1673ffffffffffffffffffffffffffffffffffffffff1673ffffffffffffffffffffffffffffffffffffffff16815250509050919050565b611a7a61304e565b611a82613138565b603781604051611a92919061413d565b908152602001604051809103902060008573ffffffffffffffffffffffffffffffffffffffff1673ffffffffffffffffffffffffffffffffffffffff16815260200190815260200160002060010160009054906101000a900460ff16611b2d576040517f08c379a0000000000000000000000000000000000000000000000000000000008152600401611b249061498d565b60405180910390fd5b600080603960008581526020019081526020016000206040518060a0016040529081600082015481526020016001820154815260200160028201548152602001600382015481526020016004820160009054906101000a900473ffffffffffffffffffffffffffffffffffffffff1673ffffffffffffffffffffffffffffffffffffffff1673ffffffffffffffffffffffffffffffffffffffff168152505090506000603784604051611be0919061413d565b908152602001604051809103902060008873ffffffffffffffffffffffffffffffffffffffff1673ffffffffffffffffffffffffffffffffffffffff168152602001908152602001600020905060005b8160000180549050811015611c7e5786826000018281548110611c5657611c55614027565b5b906000526020600020015403611c6b57600193505b8080611c76906140b9565b915050611c30565b5082611cbf576040517f08c379a0000000000000000000000000000000000000000000000000000000008152600401611cb6906149f9565b60405180910390fd5b60008160070160149054906101000a900460ff16905060008260070160159054906101000a900460ff16905060008360070160169054906101000a900460ff169050600085602001511115611d535782611d4e576040517f08c379a0000000000000000000000000000000000000000000000000000000008152600401611d4590614849565b60405180910390fd5b611df5565b600085604001511115611da55781611da0576040517f08c379a0000000000000000000000000000000000000000000000000000000008152600401611d97906148b5565b60405180910390fd5b611df4565b600085606001511115611df35780611df2576040517f08c379a0000000000000000000000000000000000000000000000000000000008152600401611de990614921565b60405180910390fd5b5b5b5b600085606001511115611e2e5760008460070160166101000a81548160ff02191690831515021790555060008460050181905550611e9e565b600085602001511115611e67576000846003018190555060008460070160146101000a81548160ff021916908315150217905550611e9d565b600085604001511115611e9c5760008460070160156101000a81548160ff021916908315150217905550600084600401819055505b5b5b600060018560000180549050611eb49190614a19565b67ffffffffffffffff811115611ecd57611ecc613488565b5b604051908082528060200260200182016040528015611efb5781602001602082028036833780820191505090505b50905060005b8560000180549050811015611f8b578a866000018281548110611f2757611f26614027565b5b906000526020600020015414611f7857856000018181548110611f4d57611f4c614027565b5b9060005260206000200154828281518110611f6b57611f6a614027565b5b6020026020010181815250505b8080611f83906140b9565b915050611f01565b5080856000019080519060200190611fa49291906131d5565b506000856000018054905003611fd25760008560010160006101000a81548160ff0219169083151502179055505b50505050505050611fe1613187565b50505050565b611fef61304e565b611ff7613138565b603781604051612007919061413d565b908152602001604051809103902060008473ffffffffffffffffffffffffffffffffffffffff1673ffffffffffffffffffffffffffffffffffffffff16815260200190815260200160002060010160009054906101000a900460ff166120a2576040517f08c379a00000000000000000000000000000000000000000000000000000000081526004016120999061445b565b60405180910390fd5b600080603660008581526020019081526020016000206040518060a0016040529081600082015481526020016001820154815260200160028201548152602001600382015481526020016004820160009054906101000a900473ffffffffffffffffffffffffffffffffffffffff1673ffffffffffffffffffffffffffffffffffffffff1673ffffffffffffffffffffffffffffffffffffffff168152505090506000603784604051612155919061413d565b908152602001604051809103902060008773ffffffffffffffffffffffffffffffffffffffff1673ffffffffffffffffffffffffffffffffffffffff168152602001908152602001600020905060005b81600001805490508110156121f357858260000182815481106121cb576121ca614027565b5b9060005260206000200154036121e057600193505b80806121eb906140b9565b9150506121a5565b5082612234576040517f08c379a000000000000000000000000000000000000000000000000000000000815260040161222b906149f9565b60405180910390fd5b60008160070160149054906101000a900460ff16905060008260070160159054906101000a900460ff16905060008360070160169054906101000a900460ff16905060008560000151036122c757826122c2576040517f08c379a00000000000000000000000000000000000000000000000000000000081526004016122b990614a99565b60405180910390fd5b612367565b60018560000151036123185781612313576040517f08c379a000000000000000000000000000000000000000000000000000000000815260040161230a90614b05565b60405180910390fd5b612366565b60028560000151036123655780612364576040517f08c379a000000000000000000000000000000000000000000000000000000000815260040161235b90614b71565b60405180910390fd5b5b5b5b600085600001510361239f576000846003018190555060008460070160146101000a81548160ff02191690831515021790555061240d565b60018560000151036123d7576000846004018190555060008460070160156101000a81548160ff02191690831515021790555061240c565b600285600001510361240b576000846005018190555060008460070160166101000a81548160ff0219169083151502179055505b5b5b6000600185600001805490506124239190614a19565b67ffffffffffffffff81111561243c5761243b613488565b5b60405190808252806020026020018201604052801561246a5781602001602082028036833780820191505090505b50905060005b8560000180549050811015612506578986600001828154811061249657612495614027565b5b9060005260206000200154146124f3578560000181815481106124bc576124bb614027565b5b9060005260206000200154826001836124d59190614a19565b815181106124e6576124e5614027565b5b6020026020010181815250505b80806124fe906140b9565b915050612470565b508085600001908051906020019061251f9291906131d5565b50600085600001805490500361254d5760008560010160006101000a81548160ff0219169083151502179055505b5050505050505061255c613187565b505050565b603360009054906101000a900473ffffffffffffffffffffffffffffffffffffffff1681565b61258f61304e565b612597613138565b60008373ffffffffffffffffffffffffffffffffffffffff166370a08231866040518263ffffffff1660e01b81526004016125d29190613ece565b602060405180830381865afa1580156125ef573d6000803e3d6000fd5b505050506040513d601f19601f82011682018060405250810190612613919061430a565b11612653576040517f08c379a000000000000000000000000000000000000000000000000000000000815260040161264a90614383565b60405180910390fd5b8373ffffffffffffffffffffffffffffffffffffffff168373ffffffffffffffffffffffffffffffffffffffff16636352211e846040518263ffffffff1660e01b81526004016126a391906141c0565b602060405180830381865afa1580156126c0573d6000803e3d6000fd5b505050506040513d601f19601f820116820180604052508101906126e491906141f0565b73ffffffffffffffffffffffffffffffffffffffff161461273a576040517f08c379a0000000000000000000000000000000000000000000000000000000008152600401612731906143ef565b60405180910390fd5b60378160405161274a919061413d565b908152602001604051809103902060008573ffffffffffffffffffffffffffffffffffffffff1673ffffffffffffffffffffffffffffffffffffffff16815260200190815260200160002060010160009054906101000a900460ff16612b11576000603660008481526020019081526020016000206040518060a0016040529081600082015481526020016001820154815260200160028201548152602001600382015481526020016004820160009054906101000a900473ffffffffffffffffffffffffffffffffffffffff1673ffffffffffffffffffffffffffffffffffffffff1673ffffffffffffffffffffffffffffffffffffffff16815250509050600080600080846000015103612863576001925061288b565b6001846000015103612878576001915061288a565b600284600001510361288957600190505b5b5b6000600167ffffffffffffffff8111156128a8576128a7613488565b5b6040519080825280602002602001820160405280156128d65781602001602082028036833780820191505090505b50905086816000815181106128ee576128ed614027565b5b602002602001018181525050604051806101600160405280828152602001600115158152602001878152602001662386f26fc100008760200151612932919061447b565b81526020018660400151815260200186606001518152602001600081526020018973ffffffffffffffffffffffffffffffffffffffff16815260200185151581526020018415158152602001831515815250603787604051612994919061413d565b908152602001604051809103902060008b73ffffffffffffffffffffffffffffffffffffffff1673ffffffffffffffffffffffffffffffffffffffff16815260200190815260200160002060008201518160000190805190602001906129fb9291906131d5565b5060208201518160010160006101000a81548160ff0219169083151502179055506040820151816002019081612a3191906146bf565b50606082015181600301556080820151816004015560a0820151816005015560c0820151816006015560e08201518160070160006101000a81548173ffffffffffffffffffffffffffffffffffffffff021916908373ffffffffffffffffffffffffffffffffffffffff1602179055506101008201518160070160146101000a81548160ff0219169083151502179055506101208201518160070160156101000a81548160ff0219169083151502179055506101408201518160070160166101000a81548160ff0219169083151502179055509050505050505050612ecc565b6000603660008481526020019081526020016000206040518060a0016040529081600082015481526020016001820154815260200160028201548152602001600382015481526020016004820160009054906101000a900473ffffffffffffffffffffffffffffffffffffffff1673ffffffffffffffffffffffffffffffffffffffff1673ffffffffffffffffffffffffffffffffffffffff16815250509050600080603784604051612bc4919061413d565b908152602001604051809103902060008873ffffffffffffffffffffffffffffffffffffffff1673ffffffffffffffffffffffffffffffffffffffff168152602001908152602001600020905060008160070160149054906101000a900460ff16905060008260070160159054906101000a900460ff16905060008360070160169054906101000a900460ff16905060005b8460000180549050811015612ca457846000018181548110612c7b57612c7a614027565b5b90600052602060002001548914612c9157600195505b8080612c9c906140b9565b915050612c56565b5084612ce5576040517f08c379a0000000000000000000000000000000000000000000000000000000008152600401612cdc906147dd565b60405180910390fd5b6000866000015103612d37578215612d32576040517f08c379a0000000000000000000000000000000000000000000000000000000008152600401612d2990614849565b60405180910390fd5b612dd9565b6001866000015103612d89578115612d84576040517f08c379a0000000000000000000000000000000000000000000000000000000008152600401612d7b906148b5565b60405180910390fd5b612dd8565b6002866000015103612dd7578015612dd6576040517f08c379a0000000000000000000000000000000000000000000000000000000008152600401612dcd90614921565b60405180910390fd5b5b5b5b6000866000015103612e2657662386f26fc100008660200151612dfc919061447b565b846003018190555060018460070160146101000a81548160ff021916908315150217905550612e9a565b6001866000015103612e61578560400151846004018190555060018460070160156101000a81548160ff021916908315150217905550612e99565b6002866000015103612e98578560600151846005018190555060018460070160166101000a81548160ff0219169083151502179055505b5b5b836000018890806001815401808255809150506001900390600052602060002001600090919091909150555050505050505b612ed4613187565b50505050565b6038838051602081018201805184825260208301602085012081835280955050505050506020528160005260406000208181548110612f1857600080fd5b90600052602060002090600502016000925092505050806000018054612f3d906144ec565b80601f0160208091040260200160405190810160405280929190818152602001828054612f69906144ec565b8015612fb65780601f10612f8b57610100808354040283529160200191612fb6565b820191906000526020600020905b815481529060010190602001808311612f9957829003601f168201915b5050505050908060020154908060030154908060040154905084565b603460009054906101000a900473ffffffffffffffffffffffffffffffffffffffff1681565b60396020528060005260406000206000915090508060000154908060010154908060020154908060030154908060040160009054906101000a900473ffffffffffffffffffffffffffffffffffffffff16905085565b603460009054906101000a900473ffffffffffffffffffffffffffffffffffffffff1673ffffffffffffffffffffffffffffffffffffffff163373ffffffffffffffffffffffffffffffffffffffff1614806130f75750603360009054906101000a900473ffffffffffffffffffffffffffffffffffffffff1673ffffffffffffffffffffffffffffffffffffffff163373ffffffffffffffffffffffffffffffffffffffff16145b613136576040517f08c379a000000000000000000000000000000000000000000000000000000000815260040161312d90614bdd565b60405180910390fd5b565b60026001540361317d576040517f08c379a000000000000000000000000000000000000000000000000000000000815260040161317490614c49565b60405180910390fd5b6002600181905550565b60018081905550565b6040518060a0016040528060008152602001600081526020016000815260200160008152602001600073ffffffffffffffffffffffffffffffffffffffff1681525090565b828054828255906000526020600020908101928215613211579160200282015b828111156132105782518255916020019190600101906131f5565b5b50905061321e919061329a565b5090565b604051806101600160405280606081526020016000151581526020016060815260200160008152602001600081526020016000815260200160008152602001600073ffffffffffffffffffffffffffffffffffffffff1681526020016000151581526020016000151581526020016000151581525090565b5b808211156132b357600081600090555060010161329b565b5090565b6000604051905090565b600080fd5b600080fd5b6000819050919050565b6132de816132cb565b81146132e957600080fd5b50565b6000813590506132fb816132d5565b92915050565b600060208284031215613317576133166132c1565b5b6000613325848285016132ec565b91505092915050565b613337816132cb565b82525050565b600073ffffffffffffffffffffffffffffffffffffffff82169050919050565b60006133688261333d565b9050919050565b6133788161335d565b82525050565b600060a082019050613393600083018861332e565b6133a0602083018761332e565b6133ad604083018661332e565b6133ba606083018561332e565b6133c7608083018461336f565b9695505050505050565b6133da816132cb565b82525050565b6133e98161335d565b82525050565b60a08201600082015161340560008501826133d1565b50602082015161341860208501826133d1565b50604082015161342b60408501826133d1565b50606082015161343e60608501826133d1565b50608082015161345160808501826133e0565b50505050565b600060a08201905061346c60008301846133ef565b92915050565b600080fd5b6000601f19601f8301169050919050565b7f4e487b7100000000000000000000000000000000000000000000000000000000600052604160045260246000fd5b6134c082613477565b810181811067ffffffffffffffff821117156134df576134de613488565b5b80604052505050565b60006134f26132b7565b90506134fe82826134b7565b919050565b600067ffffffffffffffff82111561351e5761351d613488565b5b602082029050602081019050919050565b600080fd5b600080fd5b6135428161335d565b811461354d57600080fd5b50565b60008135905061355f81613539565b92915050565b600060a0828403121561357b5761357a613534565b5b61358560a06134e8565b90506000613595848285016132ec565b60008301525060206135a9848285016132ec565b60208301525060406135bd848285016132ec565b60408301525060606135d1848285016132ec565b60608301525060806135e584828501613550565b60808301525092915050565b60006136046135ff84613503565b6134e8565b90508083825260208201905060a084028301858111156136275761362661352f565b5b835b81811015613650578061363c8882613565565b84526020840193505060a081019050613629565b5050509392505050565b600082601f83011261366f5761366e613472565b5b813561367f8482602086016135f1565b91505092915050565b6000806040838503121561369f5761369e6132c1565b5b600083013567ffffffffffffffff8111156136bd576136bc6132c6565b5b6136c98582860161365a565b92505060206136da858286016132ec565b9150509250929050565b6000602082840312156136fa576136f96132c1565b5b600061370884828501613550565b91505092915050565b600080600080600060a0868803121561372d5761372c6132c1565b5b600061373b888289016132ec565b955050602061374c888289016132ec565b945050604061375d888289016132ec565b935050606061376e888289016132ec565b925050608061377f88828901613550565b9150509295509295909350565b600080fd5b600067ffffffffffffffff8211156137ac576137ab613488565b5b6137b582613477565b9050602081019050919050565b82818337600083830152505050565b60006137e46137df84613791565b6134e8565b905082815260208101848484011115613800576137ff61378c565b5b61380b8482856137c2565b509392505050565b600082601f83011261382857613827613472565b5b81356138388482602086016137d1565b91505092915050565b60008060408385031215613858576138576132c1565b5b600061386685828601613550565b925050602083013567ffffffffffffffff811115613887576138866132c6565b5b61389385828601613813565b9150509250929050565b60006060820190506138b2600083018661332e565b6138bf602083018561332e565b6138cc604083018461332e565b949350505050565b6000819050919050565b60006138f96138f46138ef8461333d565b6138d4565b61333d565b9050919050565b600061390b826138de565b9050919050565b600061391d82613900565b9050919050565b61392d81613912565b82525050565b60006020820190506139486000830184613924565b92915050565b60006139598261335d565b9050919050565b6139698161394e565b811461397457600080fd5b50565b60008135905061398681613960565b92915050565b600080600080600060a086880312156139a8576139a76132c1565b5b60006139b688828901613550565b95505060206139c788828901613977565b94505060406139d8888289016132ec565b93505060606139e9888289016132ec565b925050608086013567ffffffffffffffff811115613a0a57613a096132c6565b5b613a1688828901613813565b9150509295509295909350565b60008060408385031215613a3a57613a396132c1565b5b600083013567ffffffffffffffff811115613a5857613a576132c6565b5b613a6485828601613813565b9250506020613a7585828601613550565b9150509250929050565b60008115159050919050565b613a9481613a7f565b82525050565b600081519050919050565b600082825260208201905092915050565b60005b83811015613ad4578082015181840152602081019050613ab9565b60008484015250505050565b6000613aeb82613a9a565b613af58185613aa5565b9350613b05818560208601613ab6565b613b0e81613477565b840191505092915050565b600061014082019050613b2f600083018d613a8b565b8181036020830152613b41818c613ae0565b9050613b50604083018b61332e565b613b5d606083018a61332e565b613b6a608083018961332e565b613b7760a083018861332e565b613b8460c083018761336f565b613b9160e0830186613a8b565b613b9f610100830185613a8b565b613bad610120830184613a8b565b9b9a5050505050505050505050565b600081519050919050565b600082825260208201905092915050565b6000819050602082019050919050565b6000613bf483836133d1565b60208301905092915050565b6000602082019050919050565b6000613c1882613bbc565b613c228185613bc7565b9350613c2d83613bd8565b8060005b83811015613c5e578151613c458882613be8565b9750613c5083613c00565b925050600181019050613c31565b5085935050505092915050565b613c7481613a7f565b82525050565b600082825260208201905092915050565b6000613c9682613a9a565b613ca08185613c7a565b9350613cb0818560208601613ab6565b613cb981613477565b840191505092915050565b6000610160830160008301518482036000860152613ce28282613c0d565b9150506020830151613cf76020860182613c6b565b5060408301518482036040860152613d0f8282613c8b565b9150506060830151613d2460608601826133d1565b506080830151613d3760808601826133d1565b5060a0830151613d4a60a08601826133d1565b5060c0830151613d5d60c08601826133d1565b5060e0830151613d7060e08601826133e0565b50610100830151613d85610100860182613c6b565b50610120830151613d9a610120860182613c6b565b50610140830151613daf610140860182613c6b565b508091505092915050565b60006020820190508181036000830152613dd48184613cc4565b905092915050565b60008060008060808587031215613df657613df56132c1565b5b6000613e0487828801613550565b9450506020613e15878288016132ec565b9350506040613e26878288016132ec565b925050606085013567ffffffffffffffff811115613e4757613e466132c6565b5b613e5387828801613813565b91505092959194509250565b600080600060608486031215613e7857613e776132c1565b5b6000613e8686828701613550565b9350506020613e97868287016132ec565b925050604084013567ffffffffffffffff811115613eb857613eb76132c6565b5b613ec486828701613813565b9150509250925092565b6000602082019050613ee3600083018461336f565b92915050565b60008060008060808587031215613f0357613f026132c1565b5b6000613f1187828801613550565b9450506020613f2287828801613977565b9350506040613f33878288016132ec565b925050606085013567ffffffffffffffff811115613f5457613f536132c6565b5b613f6087828801613813565b91505092959194509250565b600080600060608486031215613f8557613f846132c1565b5b600084013567ffffffffffffffff811115613fa357613fa26132c6565b5b613faf86828701613813565b9350506020613fc0868287016132ec565b9250506040613fd1868287016132ec565b9150509250925092565b60006080820190508181036000830152613ff58187613ae0565b9050614004602083018661332e565b614011604083018561332e565b61401e606083018461332e565b95945050505050565b7f4e487b7100000000000000000000000000000000000000000000000000000000600052603260045260246000fd5b7f4e487b7100000000000000000000000000000000000000000000000000000000600052601160045260246000fd5b6000614090826132cb565b915061409b836132cb565b92508282019050808211156140b3576140b2614056565b5b92915050565b60006140c4826132cb565b91507fffffffffffffffffffffffffffffffffffffffffffffffffffffffffffffffff82036140f6576140f5614056565b5b600182019050919050565b600081905092915050565b600061411782613a9a565b6141218185614101565b9350614131818560208601613ab6565b80840191505092915050565b6000614149828461410c565b915081905092915050565b7f6e6f206e66740000000000000000000000000000000000000000000000000000600082015250565b600061418a600683613aa5565b915061419582614154565b602082019050919050565b600060208201905081810360008301526141b98161417d565b9050919050565b60006020820190506141d5600083018461332e565b92915050565b6000815190506141ea81613539565b92915050565b600060208284031215614206576142056132c1565b5b6000614214848285016141db565b91505092915050565b7f4f6e65206f6620686973206e6674206973206e6f74206f776e65640000000000600082015250565b6000614253601b83613aa5565b915061425e8261421d565b602082019050919050565b6000602082019050818103600083015261428281614246565b9050919050565b7f796f7520617265207573696e67207468652077726f6e67206164647200000000600082015250565b60006142bf601c83613aa5565b91506142ca82614289565b602082019050919050565b600060208201905081810360008301526142ee816142b2565b9050919050565b600081519050614304816132d5565b92915050565b6000602082840312156143205761431f6132c1565b5b600061432e848285016142f5565b91505092915050565b7f6e6f206e6674206f776e65640000000000000000000000000000000000000000600082015250565b600061436d600c83613aa5565b915061437882614337565b602082019050919050565b6000602082019050818103600083015261439c81614360565b9050919050565b7f6e6f7420746865206f776e657200000000000000000000000000000000000000600082015250565b60006143d9600d83613aa5565b91506143e4826143a3565b602082019050919050565b60006020820190508181036000830152614408816143cc565b9050919050565b7f6e6f206e667420616c6c6f776564000000000000000000000000000000000000600082015250565b6000614445600e83613aa5565b91506144508261440f565b602082019050919050565b6000602082019050818103600083015261447481614438565b9050919050565b6000614486826132cb565b9150614491836132cb565b925082820261449f816132cb565b915082820484148315176144b6576144b5614056565b5b5092915050565b7f4e487b7100000000000000000000000000000000000000000000000000000000600052602260045260246000fd5b6000600282049050600182168061450457607f821691505b602082108103614517576145166144bd565b5b50919050565b60008190508160005260206000209050919050565b60006020601f8301049050919050565b600082821b905092915050565b60006008830261457f7fffffffffffffffffffffffffffffffffffffffffffffffffffffffffffffffff82614542565b6145898683614542565b95508019841693508086168417925050509392505050565b60006145bc6145b76145b2846132cb565b6138d4565b6132cb565b9050919050565b6000819050919050565b6145d6836145a1565b6145ea6145e2826145c3565b84845461454f565b825550505050565b600090565b6145ff6145f2565b61460a8184846145cd565b505050565b5b8181101561462e576146236000826145f7565b600181019050614610565b5050565b601f821115614673576146448161451d565b61464d84614532565b8101602085101561465c578190505b61467061466885614532565b83018261460f565b50505b505050565b600082821c905092915050565b600061469660001984600802614678565b1980831691505092915050565b60006146af8383614685565b9150826002028217905092915050565b6146c882613a9a565b67ffffffffffffffff8111156146e1576146e0613488565b5b6146eb82546144ec565b6146f6828285614632565b600060209050601f8311600181146147295760008415614717578287015190505b61472185826146a3565b865550614789565b601f1984166147378661451d565b60005b8281101561475f5784890151825560018201915060208501945060208101905061473a565b8683101561477c5784890151614778601f891682614685565b8355505b6001600288020188555050505b505050505050565b7f4e667420616c7265616479206174746163686564000000000000000000000000600082015250565b60006147c7601483613aa5565b91506147d282614791565b602082019050919050565b600060208201905081810360008301526147f6816147ba565b9050919050565b7f72657761726420616c7265616479207365740000000000000000000000000000600082015250565b6000614833601283613aa5565b915061483e826147fd565b602082019050919050565b6000602082019050818103600083015261486281614826565b9050919050565b7f74696d6520616c72656164792073657400000000000000000000000000000000600082015250565b600061489f601083613aa5565b91506148aa82614869565b602082019050919050565b600060208201905081810360008301526148ce81614892565b9050919050565b7f666565735220616c726561647920736574000000000000000000000000000000600082015250565b600061490b601183613aa5565b9150614916826148d5565b602082019050919050565b6000602082019050818103600083015261493a816148fe565b9050919050565b7f6e6f206e66742061637469766500000000000000000000000000000000000000600082015250565b6000614977600d83613aa5565b915061498282614941565b602082019050919050565b600060208201905081810360008301526149a68161496a565b9050919050565b7f6e6674206e6f7453657400000000000000000000000000000000000000000000600082015250565b60006149e3600a83613aa5565b91506149ee826149ad565b602082019050919050565b60006020820190508181036000830152614a12816149d6565b9050919050565b6000614a24826132cb565b9150614a2f836132cb565b9250828203905081811115614a4757614a46614056565b5b92915050565b7f726577617264206e6f7420736574000000000000000000000000000000000000600082015250565b6000614a83600e83613aa5565b9150614a8e82614a4d565b602082019050919050565b60006020820190508181036000830152614ab281614a76565b9050919050565b7f74696d65206e6f74207365740000000000000000000000000000000000000000600082015250565b6000614aef600c83613aa5565b9150614afa82614ab9565b602082019050919050565b60006020820190508181036000830152614b1e81614ae2565b9050919050565b7f6665657352206e6f742073657400000000000000000000000000000000000000600082015250565b6000614b5b600d83613aa5565b9150614b6682614b25565b602082019050919050565b60006020820190508181036000830152614b8a81614b4e565b9050919050565b7f4f6e6c792053656e747279000000000000000000000000000000000000000000600082015250565b6000614bc7600b83613aa5565b9150614bd282614b91565b602082019050919050565b60006020820190508181036000830152614bf681614bba565b9050919050565b7f5265656e7472616e637947756172643a207265656e7472616e742063616c6c00600082015250565b6000614c33601f83613aa5565b9150614c3e82614bfd565b602082019050919050565b60006020820190508181036000830152614c6281614c26565b905091905056fea2646970667358221220116b5155ce1f3274e0f52f84414a4e75add838f3084ab6a7c9d3483f4a33137b64736f6c63430008110033",
  "linkReferences": {},
  "deployedLinkReferences": {}
}