{
  "_format": "hh-sol-artifact-1",
  "contractName": "NodeHandlerV3",
  "sourceName": "contracts/nodeHandlerV2.sol",
  "abi": [
    {
      "anonymous": false,
      "inputs": [
        {
          "indexed": true,
          "internalType": "address",
          "name": "owner",
          "type": "address"
        },
        {
          "indexed": true,
          "internalType": "address",
          "name": "spender",
          "type": "address"
        },
        {
          "indexed": false,
          "internalType": "uint256",
          "name": "value",
          "type": "uint256"
        }
      ],
      "name": "Approval",
      "type": "event"
    },
    {
      "anonymous": false,
      "inputs": [
        {
          "indexed": false,
          "internalType": "uint256",
          "name": "rewardAmount",
          "type": "uint256"
        },
        {
          "indexed": false,
          "internalType": "uint256",
          "name": "claimTime",
          "type": "uint256"
        },
        {
          "indexed": true,
          "internalType": "address",
          "name": "owner",
          "type": "address"
        }
      ],
      "name": "CashoutAll",
      "type": "event"
    },
    {
      "anonymous": false,
      "inputs": [
        {
          "indexed": false,
          "internalType": "string",
          "name": "nodeTypeName",
          "type": "string"
        },
        {
          "indexed": false,
          "internalType": "uint256",
          "name": "creationTime",
          "type": "uint256"
        },
        {
          "indexed": true,
          "internalType": "address",
          "name": "owner",
          "type": "address"
        }
      ],
      "name": "Created",
      "type": "event"
    },
    {
      "anonymous": false,
      "inputs": [
        {
          "indexed": false,
          "internalType": "uint8",
          "name": "version",
          "type": "uint8"
        }
      ],
      "name": "Initialized",
      "type": "event"
    },
    {
      "anonymous": false,
      "inputs": [
        {
          "indexed": true,
          "internalType": "address",
          "name": "from",
          "type": "address"
        },
        {
          "indexed": true,
          "internalType": "address",
          "name": "to",
          "type": "address"
        },
        {
          "indexed": false,
          "internalType": "uint256",
          "name": "value",
          "type": "uint256"
        }
      ],
      "name": "Transfer",
      "type": "event"
    },
    {
      "inputs": [
        {
          "internalType": "address",
          "name": "account",
          "type": "address"
        },
        {
          "internalType": "string",
          "name": "nodeTypeName",
          "type": "string"
        },
        {
          "internalType": "uint256",
          "name": "count",
          "type": "uint256"
        }
      ],
      "name": "_createNodes",
      "outputs": [],
      "stateMutability": "nonpayable",
      "type": "function"
    },
    {
      "inputs": [],
      "name": "_defaultNodeTypeName",
      "outputs": [
        {
          "internalType": "string",
          "name": "",
          "type": "string"
        }
      ],
      "stateMutability": "view",
      "type": "function"
    },
    {
      "inputs": [
        {
          "internalType": "string",
          "name": "nodeTypeName",
          "type": "string"
        }
      ],
      "name": "_doesNodeTypeExist",
      "outputs": [
        {
          "internalType": "bool",
          "name": "",
          "type": "bool"
        }
      ],
      "stateMutability": "view",
      "type": "function"
    },
    {
      "inputs": [],
      "name": "_gateKeeper",
      "outputs": [
        {
          "internalType": "address",
          "name": "",
          "type": "address"
        }
      ],
      "stateMutability": "view",
      "type": "function"
    },
    {
      "inputs": [
        {
          "internalType": "address",
          "name": "",
          "type": "address"
        },
        {
          "internalType": "uint256",
          "name": "",
          "type": "uint256"
        }
      ],
      "name": "_nodeIndexOwner",
      "outputs": [
        {
          "internalType": "string",
          "name": "nodeTypeName",
          "type": "string"
        },
        {
          "internalType": "uint256",
          "name": "creationTime",
          "type": "uint256"
        },
        {
          "internalType": "uint256",
          "name": "lastClaimTime",
          "type": "uint256"
        }
      ],
      "stateMutability": "view",
      "type": "function"
    },
    {
      "inputs": [
        {
          "internalType": "string",
          "name": "nodeTypeName",
          "type": "string"
        },
        {
          "internalType": "uint256[]",
          "name": "values",
          "type": "uint256[]"
        }
      ],
      "name": "addNodeType",
      "outputs": [],
      "stateMutability": "nonpayable",
      "type": "function"
    },
    {
      "inputs": [
        {
          "internalType": "address[]",
          "name": "users",
          "type": "address[]"
        }
      ],
      "name": "addWhitelistFreeNodeAddress",
      "outputs": [],
      "stateMutability": "nonpayable",
      "type": "function"
    },
    {
      "inputs": [
        {
          "internalType": "address",
          "name": "owner",
          "type": "address"
        },
        {
          "internalType": "address",
          "name": "spender",
          "type": "address"
        }
      ],
      "name": "allowance",
      "outputs": [
        {
          "internalType": "uint256",
          "name": "",
          "type": "uint256"
        }
      ],
      "stateMutability": "view",
      "type": "function"
    },
    {
      "inputs": [
        {
          "internalType": "address",
          "name": "spender",
          "type": "address"
        },
        {
          "internalType": "uint256",
          "name": "amount",
          "type": "uint256"
        }
      ],
      "name": "approve",
      "outputs": [
        {
          "internalType": "bool",
          "name": "",
          "type": "bool"
        }
      ],
      "stateMutability": "nonpayable",
      "type": "function"
    },
    {
      "inputs": [
        {
          "internalType": "address",
          "name": "account",
          "type": "address"
        }
      ],
      "name": "balanceOf",
      "outputs": [
        {
          "internalType": "uint256",
          "name": "",
          "type": "uint256"
        }
      ],
      "stateMutability": "view",
      "type": "function"
    },
    {
      "inputs": [
        {
          "internalType": "uint256",
          "name": "index",
          "type": "uint256"
        },
        {
          "internalType": "address",
          "name": "sender",
          "type": "address"
        }
      ],
      "name": "burnNode",
      "outputs": [],
      "stateMutability": "nonpayable",
      "type": "function"
    },
    {
      "inputs": [
        {
          "internalType": "address",
          "name": "sender",
          "type": "address"
        }
      ],
      "name": "burnNodeAll",
      "outputs": [],
      "stateMutability": "nonpayable",
      "type": "function"
    },
    {
      "inputs": [
        {
          "internalType": "address",
          "name": "user",
          "type": "address"
        }
      ],
      "name": "calculateAllClaimableRewards",
      "outputs": [
        {
          "internalType": "uint256",
          "name": "",
          "type": "uint256"
        }
      ],
      "stateMutability": "view",
      "type": "function"
    },
    {
      "inputs": [
        {
          "internalType": "address",
          "name": "user",
          "type": "address"
        },
        {
          "internalType": "uint256",
          "name": "index",
          "type": "uint256"
        }
      ],
      "name": "calculateAllClaimableRewardsType",
      "outputs": [
        {
          "internalType": "uint256",
          "name": "",
          "type": "uint256"
        }
      ],
      "stateMutability": "view",
      "type": "function"
    },
    {
      "inputs": [
        {
          "internalType": "address",
          "name": "account",
          "type": "address"
        }
      ],
      "name": "cashoutHandler",
      "outputs": [
        {
          "internalType": "uint256",
          "name": "",
          "type": "uint256"
        }
      ],
      "stateMutability": "nonpayable",
      "type": "function"
    },
    {
      "inputs": [
        {
          "internalType": "address",
          "name": "account",
          "type": "address"
        },
        {
          "internalType": "uint256",
          "name": "index",
          "type": "uint256"
        }
      ],
      "name": "cashoutTypeHandler",
      "outputs": [
        {
          "internalType": "uint256",
          "name": "",
          "type": "uint256"
        }
      ],
      "stateMutability": "nonpayable",
      "type": "function"
    },
    {
      "inputs": [
        {
          "internalType": "string",
          "name": "nodeTypeName",
          "type": "string"
        },
        {
          "internalType": "uint256",
          "name": "nodePrice",
          "type": "uint256"
        },
        {
          "internalType": "uint256",
          "name": "claimTime",
          "type": "uint256"
        },
        {
          "internalType": "uint256",
          "name": "rewardAmount",
          "type": "uint256"
        },
        {
          "internalType": "uint256",
          "name": "claimTaxBeforeTime",
          "type": "uint256"
        },
        {
          "internalType": "uint256",
          "name": "testCashoutFee",
          "type": "uint256"
        },
        {
          "internalType": "uint256",
          "name": "max",
          "type": "uint256"
        },
        {
          "internalType": "uint256",
          "name": "maxLevelUpGlobal",
          "type": "uint256"
        },
        {
          "internalType": "uint256",
          "name": "maxLevelUpUser",
          "type": "uint256"
        },
        {
          "internalType": "uint256",
          "name": "burnDate",
          "type": "uint256"
        },
        {
          "internalType": "uint256",
          "name": "nodePricePartener",
          "type": "uint256"
        }
      ],
      "name": "changeNodeType",
      "outputs": [],
      "stateMutability": "nonpayable",
      "type": "function"
    },
    {
      "inputs": [
        {
          "internalType": "address[]",
          "name": "users",
          "type": "address[]"
        },
        {
          "internalType": "bool",
          "name": "value",
          "type": "bool"
        }
      ],
      "name": "changeWhitelistFreeNode",
      "outputs": [],
      "stateMutability": "nonpayable",
      "type": "function"
    },
    {
      "inputs": [
        {
          "internalType": "string",
          "name": "nodeTypeName",
          "type": "string"
        },
        {
          "internalType": "uint256",
          "name": "count",
          "type": "uint256"
        }
      ],
      "name": "createFreeNode",
      "outputs": [],
      "stateMutability": "nonpayable",
      "type": "function"
    },
    {
      "inputs": [],
      "name": "decimals",
      "outputs": [
        {
          "internalType": "uint8",
          "name": "",
          "type": "uint8"
        }
      ],
      "stateMutability": "view",
      "type": "function"
    },
    {
      "inputs": [
        {
          "internalType": "address",
          "name": "spender",
          "type": "address"
        },
        {
          "internalType": "uint256",
          "name": "subtractedValue",
          "type": "uint256"
        }
      ],
      "name": "decreaseAllowance",
      "outputs": [
        {
          "internalType": "bool",
          "name": "",
          "type": "bool"
        }
      ],
      "stateMutability": "nonpayable",
      "type": "function"
    },
    {
      "inputs": [],
      "name": "deposit",
      "outputs": [],
      "stateMutability": "payable",
      "type": "function"
    },
    {
      "inputs": [
        {
          "internalType": "address",
          "name": "_owner",
          "type": "address"
        }
      ],
      "name": "getNodeEntityOwner",
      "outputs": [
        {
          "components": [
            {
              "internalType": "string",
              "name": "nodeTypeName",
              "type": "string"
            },
            {
              "internalType": "uint256",
              "name": "creationTime",
              "type": "uint256"
            },
            {
              "internalType": "uint256",
              "name": "lastClaimTime",
              "type": "uint256"
            }
          ],
          "internalType": "struct NodeHandlerV3.NodeEntity[]",
          "name": "",
          "type": "tuple[]"
        }
      ],
      "stateMutability": "view",
      "type": "function"
    },
    {
      "inputs": [
        {
          "internalType": "string",
          "name": "nodeTypeName",
          "type": "string"
        }
      ],
      "name": "getNodePrice",
      "outputs": [
        {
          "internalType": "uint256",
          "name": "",
          "type": "uint256"
        }
      ],
      "stateMutability": "view",
      "type": "function"
    },
    {
      "inputs": [
        {
          "internalType": "string",
          "name": "nodeTypeName",
          "type": "string"
        }
      ],
      "name": "getNodePricePartenair",
      "outputs": [
        {
          "internalType": "uint256",
          "name": "",
          "type": "uint256"
        }
      ],
      "stateMutability": "view",
      "type": "function"
    },
    {
      "inputs": [
        {
          "internalType": "string",
          "name": "nodeTypeName",
          "type": "string"
        }
      ],
      "name": "getNodeTypeAll",
      "outputs": [
        {
          "internalType": "uint256[]",
          "name": "",
          "type": "uint256[]"
        }
      ],
      "stateMutability": "view",
      "type": "function"
    },
    {
      "inputs": [
        {
          "internalType": "string",
          "name": "nodeTypeName",
          "type": "string"
        },
        {
          "internalType": "address",
          "name": "_owner",
          "type": "address"
        }
      ],
      "name": "getNodeTypeOwner",
      "outputs": [
        {
          "components": [
            {
              "internalType": "string",
              "name": "nodeTypeName",
              "type": "string"
            },
            {
              "internalType": "uint256",
              "name": "creationTime",
              "type": "uint256"
            },
            {
              "internalType": "uint256",
              "name": "lastClaimTime",
              "type": "uint256"
            }
          ],
          "internalType": "struct NodeHandlerV3.NodeEntity[]",
          "name": "nodeTypeOwner",
          "type": "tuple[]"
        }
      ],
      "stateMutability": "view",
      "type": "function"
    },
    {
      "inputs": [
        {
          "internalType": "uint256",
          "name": "index",
          "type": "uint256"
        },
        {
          "internalType": "address",
          "name": "_owner",
          "type": "address"
        }
      ],
      "name": "getNodeTypeOwnerNum",
      "outputs": [
        {
          "internalType": "uint256",
          "name": "",
          "type": "uint256"
        }
      ],
      "stateMutability": "view",
      "type": "function"
    },
    {
      "inputs": [
        {
          "internalType": "string",
          "name": "nodeTypeName",
          "type": "string"
        },
        {
          "internalType": "address",
          "name": "_owner",
          "type": "address"
        }
      ],
      "name": "getNodeTypeOwnerNumber",
      "outputs": [
        {
          "internalType": "uint256",
          "name": "",
          "type": "uint256"
        }
      ],
      "stateMutability": "view",
      "type": "function"
    },
    {
      "inputs": [],
      "name": "getNodeTypesSize",
      "outputs": [
        {
          "internalType": "uint256",
          "name": "",
          "type": "uint256"
        }
      ],
      "stateMutability": "view",
      "type": "function"
    },
    {
      "inputs": [],
      "name": "getTotalCreatedNodes",
      "outputs": [
        {
          "internalType": "uint256",
          "name": "",
          "type": "uint256"
        }
      ],
      "stateMutability": "view",
      "type": "function"
    },
    {
      "inputs": [
        {
          "internalType": "address",
          "name": "who",
          "type": "address"
        }
      ],
      "name": "getTotalCreatedNodesOf",
      "outputs": [
        {
          "internalType": "uint256",
          "name": "",
          "type": "uint256"
        }
      ],
      "stateMutability": "view",
      "type": "function"
    },
    {
      "inputs": [
        {
          "internalType": "uint256",
          "name": "index",
          "type": "uint256"
        }
      ],
      "name": "getTotalCreatedNodesType",
      "outputs": [
        {
          "internalType": "uint256",
          "name": "",
          "type": "uint256"
        }
      ],
      "stateMutability": "view",
      "type": "function"
    },
    {
      "inputs": [
        {
          "internalType": "address",
          "name": "_addr",
          "type": "address"
        }
      ],
      "name": "getWhitelistAddressFreeNode",
      "outputs": [
        {
          "internalType": "bool",
          "name": "",
          "type": "bool"
        }
      ],
      "stateMutability": "view",
      "type": "function"
    },
    {
      "inputs": [
        {
          "internalType": "address",
          "name": "spender",
          "type": "address"
        },
        {
          "internalType": "uint256",
          "name": "addedValue",
          "type": "uint256"
        }
      ],
      "name": "increaseAllowance",
      "outputs": [
        {
          "internalType": "bool",
          "name": "",
          "type": "bool"
        }
      ],
      "stateMutability": "nonpayable",
      "type": "function"
    },
    {
      "inputs": [
        {
          "internalType": "uint256",
          "name": "amount",
          "type": "uint256"
        }
      ],
      "name": "initApprove",
      "outputs": [],
      "stateMutability": "nonpayable",
      "type": "function"
    },
    {
      "inputs": [],
      "name": "initialize",
      "outputs": [],
      "stateMutability": "nonpayable",
      "type": "function"
    },
    {
      "inputs": [
        {
          "internalType": "string[]",
          "name": "nodeTypeNames",
          "type": "string[]"
        },
        {
          "internalType": "string",
          "name": "target",
          "type": "string"
        }
      ],
      "name": "levelUp",
      "outputs": [],
      "stateMutability": "nonpayable",
      "type": "function"
    },
    {
      "inputs": [],
      "name": "name",
      "outputs": [
        {
          "internalType": "string",
          "name": "",
          "type": "string"
        }
      ],
      "stateMutability": "view",
      "type": "function"
    },
    {
      "inputs": [
        {
          "internalType": "address",
          "name": "_to",
          "type": "address"
        },
        {
          "internalType": "uint256",
          "name": "_amount",
          "type": "uint256"
        },
        {
          "internalType": "address",
          "name": "tokenAddr",
          "type": "address"
        }
      ],
      "name": "sendUSDC",
      "outputs": [],
      "stateMutability": "nonpayable",
      "type": "function"
    },
    {
      "inputs": [
        {
          "internalType": "string",
          "name": "nodeTypeName",
          "type": "string"
        }
      ],
      "name": "setDefaultNodeTypeName",
      "outputs": [],
      "stateMutability": "nonpayable",
      "type": "function"
    },
    {
      "inputs": [
        {
          "internalType": "address",
          "name": "token_",
          "type": "address"
        }
      ],
      "name": "setToken",
      "outputs": [],
      "stateMutability": "nonpayable",
      "type": "function"
    },
    {
      "inputs": [
        {
          "internalType": "address",
          "name": "addrLdn",
          "type": "address"
        }
      ],
      "name": "setUsdAddr",
      "outputs": [],
      "stateMutability": "nonpayable",
      "type": "function"
    },
    {
      "inputs": [],
      "name": "symbol",
      "outputs": [
        {
          "internalType": "string",
          "name": "",
          "type": "string"
        }
      ],
      "stateMutability": "view",
      "type": "function"
    },
    {
      "inputs": [],
      "name": "token",
      "outputs": [
        {
          "internalType": "address",
          "name": "",
          "type": "address"
        }
      ],
      "stateMutability": "view",
      "type": "function"
    },
    {
      "inputs": [],
      "name": "totalSupply",
      "outputs": [
        {
          "internalType": "uint256",
          "name": "",
          "type": "uint256"
        }
      ],
      "stateMutability": "view",
      "type": "function"
    },
    {
      "inputs": [
        {
          "internalType": "address",
          "name": "to",
          "type": "address"
        },
        {
          "internalType": "uint256",
          "name": "amount",
          "type": "uint256"
        }
      ],
      "name": "transfer",
      "outputs": [
        {
          "internalType": "bool",
          "name": "",
          "type": "bool"
        }
      ],
      "stateMutability": "nonpayable",
      "type": "function"
    },
    {
      "inputs": [
        {
          "internalType": "address",
          "name": "from",
          "type": "address"
        },
        {
          "internalType": "address",
          "name": "to",
          "type": "address"
        },
        {
          "internalType": "uint256",
          "name": "amount",
          "type": "uint256"
        }
      ],
      "name": "transferFrom",
      "outputs": [
        {
          "internalType": "bool",
          "name": "",
          "type": "bool"
        }
      ],
      "stateMutability": "nonpayable",
      "type": "function"
    },
    {
      "inputs": [
        {
          "internalType": "address",
          "name": "tokenAddr",
          "type": "address"
        },
        {
          "internalType": "address",
          "name": "destination",
          "type": "address"
        }
      ],
      "name": "triggerSend",
      "outputs": [],
      "stateMutability": "nonpayable",
      "type": "function"
    },
    {
      "inputs": [
        {
          "internalType": "bool",
          "name": "value",
          "type": "bool"
        }
      ],
      "name": "updateOpenCreateFreeNode",
      "outputs": [],
      "stateMutability": "nonpayable",
      "type": "function"
    },
    {
      "inputs": [
        {
          "internalType": "bool",
          "name": "value",
          "type": "bool"
        }
      ],
      "name": "updateOpenLevelUp",
      "outputs": [],
      "stateMutability": "nonpayable",
      "type": "function"
    },
    {
      "inputs": [
        {
          "internalType": "uint256",
          "name": "amount",
          "type": "uint256"
        }
      ],
      "name": "withdraw",
      "outputs": [],
      "stateMutability": "nonpayable",
      "type": "function"
    }
  ],
  "bytecode": "0x60806040523480156200001157600080fd5b5061812d80620000226000396000f3fe6080604052600436106102ff5760003560e01c806378a5781711610190578063d0e30db0116100dc578063e4a2c5db11610095578063ef6305631161006f578063ef63056314610c4b578063f54549bc14610c76578063f88b443414610c9f578063fc0c546a14610cdc576102ff565b8063e4a2c5db14610ba8578063e63f9de714610be5578063e92f240714610c22576102ff565b8063d0e30db014610aa7578063d6a0d2ee14610ab1578063d760a54314610adc578063d8a911d914610b05578063dd62ed3e14610b42578063e19d3c4814610b7f576102ff565b8063a457c2d711610149578063c033bbd211610123578063c033bbd2146109d7578063c4c6903814610a16578063ca721f2214610a3f578063d061943914610a6a576102ff565b8063a457c2d714610920578063a9059cbb1461095d578063bce7049a1461099a576102ff565b806378a57817146108385780638129fc1c1461086157806395d89b41146108785780639c534791146108a3578063a0a8fe65146108cc578063a4122531146108f7576102ff565b80632e1a7d4d1161024f5780634f925468116102085780636eee4f3a116101e25780636eee4f3a1461078057806370a08231146107a957806372de21fa146107e657806373194deb1461080f576102ff565b80634f925468146106dd5780636574a9af14610706578063694ae3a914610743576102ff565b80632e1a7d4d146105a9578063313ce567146105d257806338f49b4f146105fd578063395093511461062657806349c541bd146106635780634c7f490e146106a0576102ff565b806318160ddd116102bc57806322ae51741161029657806322ae5174146104dd57806323b872dd1461051a578063255d7d5514610557578063270756ff14610580576102ff565b806318160ddd146104385780631ae86560146104635780631b4b6940146104a0576102ff565b806301251f2a14610304578063035f722b1461034157806306fdde031461036a578063095ea7b314610395578063144fa6d7146103d257806314d3ba46146103fb575b600080fd5b34801561031057600080fd5b5061032b60048036038101906103269190615990565b610d07565b60405161033891906159d6565b60405180910390f35b34801561034d57600080fd5b5061036860048036038101906103639190615c2b565b610fa7565b005b34801561037657600080fd5b5061037f61124c565b60405161038c9190615d22565b60405180910390f35b3480156103a157600080fd5b506103bc60048036038101906103b79190615d44565b6112de565b6040516103c99190615d9f565b60405180910390f35b3480156103de57600080fd5b506103f960048036038101906103f49190615990565b611301565b005b34801561040757600080fd5b50610422600480360381019061041d9190615dba565b61134d565b60405161042f9190615f81565b60405180910390f35b34801561044457600080fd5b5061044d6114ae565b60405161045a91906159d6565b60405180910390f35b34801561046f57600080fd5b5061048a60048036038101906104859190615990565b6114b8565b6040516104979190615f81565b60405180910390f35b3480156104ac57600080fd5b506104c760048036038101906104c29190615d44565b6115fc565b6040516104d491906159d6565b60405180910390f35b3480156104e957600080fd5b5061050460048036038101906104ff9190615fa3565b6118ce565b60405161051191906159d6565b60405180910390f35b34801561052657600080fd5b50610541600480360381019061053c9190615fec565b611958565b60405161054e9190615d9f565b60405180910390f35b34801561056357600080fd5b5061057e60048036038101906105799190616120565b611987565b005b34801561058c57600080fd5b506105a760048036038101906105a2919061625b565b611f61565b005b3480156105b557600080fd5b506105d060048036038101906105cb91906162a4565b611ffe565b005b3480156105de57600080fd5b506105e7612056565b6040516105f491906162ed565b60405180910390f35b34801561060957600080fd5b50610624600480360381019061061f9190616334565b61205f565b005b34801561063257600080fd5b5061064d60048036038101906106489190615d44565b6120fc565b60405161065a9190615d9f565b60405180910390f35b34801561066f57600080fd5b5061068a60048036038101906106859190615fa3565b612133565b6040516106979190615d9f565b60405180910390f35b3480156106ac57600080fd5b506106c760048036038101906106c29190615990565b6121bc565b6040516106d491906159d6565b60405180910390f35b3480156106e957600080fd5b5061070460048036038101906106ff9190616390565b612294565b005b34801561071257600080fd5b5061072d60048036038101906107289190615990565b6122b9565b60405161073a91906159d6565b60405180910390f35b34801561074f57600080fd5b5061076a60048036038101906107659190615d44565b61258a565b60405161077791906159d6565b60405180910390f35b34801561078c57600080fd5b506107a760048036038101906107a29190615990565b612793565b005b3480156107b557600080fd5b506107d060048036038101906107cb9190615990565b612ef6565b6040516107dd91906159d6565b60405180910390f35b3480156107f257600080fd5b5061080d600480360381019061080891906163bd565b612f3f565b005b34801561081b57600080fd5b5061083660048036038101906108319190616419565b613121565b005b34801561084457600080fd5b5061085f600480360381019061085a9190616488565b61348a565b005b34801561086d57600080fd5b5061087661359a565b005b34801561088457600080fd5b5061088d6135f8565b60405161089a9190615d22565b60405180910390f35b3480156108af57600080fd5b506108ca60048036038101906108c591906162a4565b61368a565b005b3480156108d857600080fd5b506108e16136c2565b6040516108ee91906159d6565b60405180910390f35b34801561090357600080fd5b5061091e60048036038101906109199190615990565b6137fc565b005b34801561092c57600080fd5b5061094760048036038101906109429190615d44565b613848565b6040516109549190615d9f565b60405180910390f35b34801561096957600080fd5b50610984600480360381019061097f9190615d44565b6138bf565b6040516109919190615d9f565b60405180910390f35b3480156109a657600080fd5b506109c160048036038101906109bc91906162a4565b6138e2565b6040516109ce91906159d6565b60405180910390f35b3480156109e357600080fd5b506109fe60048036038101906109f99190615d44565b613971565b604051610a0d939291906164c8565b60405180910390f35b348015610a2257600080fd5b50610a3d6004803603810190610a389190616506565b613a40565b005b348015610a4b57600080fd5b50610a54613bdd565b604051610a619190615d22565b60405180910390f35b348015610a7657600080fd5b50610a916004803603810190610a8c9190615fa3565b613c6b565b604051610a9e91906166c5565b60405180910390f35b610aaf614020565b005b348015610abd57600080fd5b50610ac6614022565b604051610ad391906159d6565b60405180910390f35b348015610ae857600080fd5b50610b036004803603810190610afe91906166e7565b6140a4565b005b348015610b1157600080fd5b50610b2c6004803603810190610b279190615dba565b614731565b604051610b3991906159d6565b60405180910390f35b348015610b4e57600080fd5b50610b696004803603810190610b649190616488565b6147b1565b604051610b7691906159d6565b60405180910390f35b348015610b8b57600080fd5b50610ba66004803603810190610ba19190616390565b614838565b005b348015610bb457600080fd5b50610bcf6004803603810190610bca9190615990565b61485d565b604051610bdc9190615d9f565b60405180910390f35b348015610bf157600080fd5b50610c0c6004803603810190610c0791906166e7565b6148bb565b604051610c1991906159d6565b60405180910390f35b348015610c2e57600080fd5b50610c496004803603810190610c449190616727565b6149c6565b005b348015610c5757600080fd5b50610c60614a58565b604051610c6d9190616789565b60405180910390f35b348015610c8257600080fd5b50610c9d6004803603810190610c989190615fa3565b614a7e565b005b348015610cab57600080fd5b50610cc66004803603810190610cc19190615fa3565b614ae1565b604051610cd391906159d6565b60405180910390f35b348015610ce857600080fd5b50610cf1614b6b565b604051610cfe9190616789565b60405180910390f35b6000610d11615859565b6000805b606573__$f4f4ad711baf0b6680854290afed407660$__637e923cd890916040518263ffffffff1660e01b8152600401610d4f91906167ab565b602060405180830381865af4158015610d6c573d6000803e3d6000fd5b505050506040513d601f19601f82011682018060405250810190610d9091906167db565b811015610f9c57606573__$f4f4ad711baf0b6680854290afed407660$__63384662999091836040518363ffffffff1660e01b8152600401610dd3929190616817565b600060405180830381865af4158015610df0573d6000803e3d6000fd5b505050506040513d6000823e3d601f19601f82011682018060405250810190610e199190616a0e565b92506000606c8460000151604051610e319190616a93565b908152602001604051809103902060008773ffffffffffffffffffffffffffffffffffffffff1673ffffffffffffffffffffffffffffffffffffffff168152602001908152602001600020905060005b8180549050811015610f8757610f67828281548110610ea357610ea2616aaa565b5b9060005260206000209060030201604051806060016040529081600082018054610ecc90616b08565b80601f0160208091040260200160405190810160405280929190818152602001828054610ef890616b08565b8015610f455780601f10610f1a57610100808354040283529160200191610f45565b820191906000526020600020905b815481529060010190602001808311610f2857829003601f168201915b5050505050815260200160018201548152602001600282015481525050614b91565b84610f729190616b68565b93508080610f7f90616b9c565b915050610e81565b50508080610f9490616b9c565b915050610d15565b508092505050919050565b610faf614e40565b6000825111610ff3576040517f08c379a0000000000000000000000000000000000000000000000000000000008152600401610fea90616c30565b60405180910390fd5b610ffc82612133565b1561103c576040517f08c379a000000000000000000000000000000000000000000000000000000000815260040161103390616c9c565b60405180910390fd5b606573__$f4f4ad711baf0b6680854290afed407660$__6341740085909184604051806101a00160405280878152602001670de0b6b3a76400008760008151811061108a57611089616aaa565b5b602002602001015161109c9190616cbc565b8152602001866001815181106110b5576110b4616aaa565b5b60200260200101518152602001662386f26fc10000876002815181106110de576110dd616aaa565b5b60200260200101516110f09190616cbc565b81526020018660038151811061110957611108616aaa565b5b602002602001015181526020018660048151811061112a57611129616aaa565b5b60200260200101518152602001428152602001600081526020018660058151811061115857611157616aaa565b5b602002602001015181526020018660068151811061117957611178616aaa565b5b602002602001015181526020018660078151811061119a57611199616aaa565b5b60200260200101518152602001866008815181106111bb576111ba616aaa565b5b60200260200101518152602001670de0b6b3a7640000876009815181106111e5576111e4616aaa565b5b60200260200101516111f79190616cbc565b8152506040518463ffffffff1660e01b815260040161121893929190616eba565b60006040518083038186803b15801561123057600080fd5b505af4158015611244573d6000803e3d6000fd5b505050505050565b60606036805461125b90616b08565b80601f016020809104026020016040519081016040528092919081815260200182805461128790616b08565b80156112d45780601f106112a9576101008083540402835291602001916112d4565b820191906000526020600020905b8154815290600101906020018083116112b757829003601f168201915b5050505050905090565b6000806112e9614f2a565b90506112f6818585614f32565b600191505092915050565b611309614e40565b80606f60006101000a81548173ffffffffffffffffffffffffffffffffffffffff021916908373ffffffffffffffffffffffffffffffffffffffff16021790555050565b6060606c8360405161135f9190616a93565b908152602001604051809103902060008373ffffffffffffffffffffffffffffffffffffffff1673ffffffffffffffffffffffffffffffffffffffff168152602001908152602001600020805480602002602001604051908101604052809291908181526020016000905b828210156114a257838290600052602060002090600302016040518060600160405290816000820180546113fd90616b08565b80601f016020809104026020016040519081016040528092919081815260200182805461142990616b08565b80156114765780601f1061144b57610100808354040283529160200191611476565b820191906000526020600020905b81548152906001019060200180831161145957829003601f168201915b5050505050815260200160018201548152602001600282015481525050815260200190600101906113ca565b50505050905092915050565b6000603554905090565b6060606d60008373ffffffffffffffffffffffffffffffffffffffff1673ffffffffffffffffffffffffffffffffffffffff168152602001908152602001600020805480602002602001604051908101604052809291908181526020016000905b828210156115f1578382906000526020600020906003020160405180606001604052908160008201805461154c90616b08565b80601f016020809104026020016040519081016040528092919081815260200182805461157890616b08565b80156115c55780601f1061159a576101008083540402835291602001916115c5565b820191906000526020600020905b8154815290600101906020018083116115a857829003601f168201915b505050505081526020016001820154815260200160028201548152505081526020019060010190611519565b505050509050919050565b6000611606614e40565b61160e615859565b6000805b606573__$f4f4ad711baf0b6680854290afed407660$__637e923cd890916040518263ffffffff1660e01b815260040161164c91906167ab565b602060405180830381865af4158015611669573d6000803e3d6000fd5b505050506040513d601f19601f8201168201806040525081019061168d91906167db565b8110156118c257606573__$f4f4ad711baf0b6680854290afed407660$__63384662999091876040518363ffffffff1660e01b81526004016116d0929190616817565b600060405180830381865af41580156116ed573d6000803e3d6000fd5b505050506040513d6000823e3d601f19601f820116820180604052508101906117169190616a0e565b92506000606c846000015160405161172e9190616a93565b908152602001604051809103902060008873ffffffffffffffffffffffffffffffffffffffff1673ffffffffffffffffffffffffffffffffffffffff168152602001908152602001600020905060005b81805490508110156118ad576118648282815481106117a05761179f616aaa565b5b90600052602060002090600302016040518060600160405290816000820180546117c990616b08565b80601f01602080910402602001604051908101604052809291908181526020018280546117f590616b08565b80156118425780601f1061181757610100808354040283529160200191611842565b820191906000526020600020905b81548152906001019060200180831161182557829003601f168201915b5050505050815260200160018201548152602001600282015481525050614b91565b8461186f9190616b68565b93504282828154811061188557611884616aaa565b5b90600052602060002090600302016002018190555080806118a590616b9c565b91505061177e565b505080806118ba90616b9c565b915050611612565b50809250505092915050565b6000606573__$f4f4ad711baf0b6680854290afed407660$__635bce6b3b9091846040518363ffffffff1660e01b815260040161190c929190616eff565b602060405180830381865af4158015611929573d6000803e3d6000fd5b505050506040513d601f19601f8201168201806040525081019061194d9190616f65565b600101549050919050565b600080611963614f2a565b90506119708582856150fb565b61197b858585615187565b60019150509392505050565b606f60159054906101000a900460ff166119d6576040517f08c379a00000000000000000000000000000000000000000000000000000000081526004016119cd90616fde565b60405180910390fd5b6119df81612133565b611a1e576040517f08c379a0000000000000000000000000000000000000000000000000000000008152600401611a159061704a565b60405180910390fd5b6000606573__$f4f4ad711baf0b6680854290afed407660$__635bce6b3b9091846040518363ffffffff1660e01b8152600401611a5c929190616eff565b602060405180830381865af4158015611a79573d6000803e3d6000fd5b505050506040513d601f19601f82011682018060405250810190611a9d9190616f65565b9050600181600901541015611ae7576040517f08c379a0000000000000000000000000000000000000000000000000000000008152600401611ade906170dc565b60405180910390fd5b6001816009016000828254611afc91906170fc565b925050819055506001606e83604051611b159190616a93565b908152602001604051809103902060003373ffffffffffffffffffffffffffffffffffffffff1673ffffffffffffffffffffffffffffffffffffffff1681526020019081526020016000206000828254611b6f9190616b68565b9250508190555080600a0154606e83604051611b8b9190616a93565b908152602001604051809103902060003373ffffffffffffffffffffffffffffffffffffffff1673ffffffffffffffffffffffffffffffffffffffff168152602001908152602001600020541115611c18576040517f08c379a0000000000000000000000000000000000000000000000000000000008152600401611c0f9061717c565b60405180910390fd5b600081600101549050600081905060005b855181108015611c395750600082115b15611f0a576000868281518110611c5357611c52616aaa565b5b60200260200101519050611c6681612133565b611ca5576040517f08c379a0000000000000000000000000000000000000000000000000000000008152600401611c9c906171e8565b60405180910390fd5b6000606c82604051611cb79190616a93565b908152602001604051809103902060003373ffffffffffffffffffffffffffffffffffffffff1673ffffffffffffffffffffffffffffffffffffffff1681526020019081526020016000208054905011611d46576040517f08c379a0000000000000000000000000000000000000000000000000000000008152600401611d3d90617254565b60405180910390fd5b6000606573__$f4f4ad711baf0b6680854290afed407660$__635bce6b3b9091846040518363ffffffff1660e01b8152600401611d84929190616eff565b602060405180830381865af4158015611da1573d6000803e3d6000fd5b505050506040513d601f19601f82011682018060405250810190611dc59190616f65565b905080600101548511611e0d576040517f08c379a0000000000000000000000000000000000000000000000000000000008152600401611e04906172c0565b60405180910390fd5b606c82604051611e1d9190616a93565b908152602001604051809103902060003373ffffffffffffffffffffffffffffffffffffffff1673ffffffffffffffffffffffffffffffffffffffff168152602001908152602001600020805480611e7857611e776172e0565b5b600190038181906000526020600020906003020160008082016000611e9d91906158c1565b60018201600090556002820160009055505090556001816007016000828254611ec691906170fc565b925050819055508381600101541115611ee25760009350611ef5565b806001015484611ef291906170fc565b93505b50508080611f0290616b9c565b915050611c29565b5060008114611f4e576040517f08c379a0000000000000000000000000000000000000000000000000000000008152600401611f459061735b565b60405180910390fd5b611f5a33856001615400565b5050505050565b611f69614e40565b60005b8151811015611ffa57600160706000848481518110611f8e57611f8d616aaa565b5b602002602001015173ffffffffffffffffffffffffffffffffffffffff1673ffffffffffffffffffffffffffffffffffffffff16815260200190815260200160002060006101000a81548160ff0219169083151502179055508080611ff290616b9c565b915050611f6c565b5050565b612006614e40565b60003390508073ffffffffffffffffffffffffffffffffffffffff166108fc839081150290604051600060405180830381858888f19350505050158015612051573d6000803e3d6000fd5b505050565b60006012905090565b612067614e40565b60005b82518110156120f757816070600085848151811061208b5761208a616aaa565b5b602002602001015173ffffffffffffffffffffffffffffffffffffffff1673ffffffffffffffffffffffffffffffffffffffff16815260200190815260200160002060006101000a81548160ff02191690831515021790555080806120ef90616b9c565b91505061206a565b505050565b600080612107614f2a565b905061212881858561211985896147b1565b6121239190616b68565b614f32565b600191505092915050565b600080606573__$f4f4ad711baf0b6680854290afed407660$__63df6167209091856040518363ffffffff1660e01b8152600401612172929190616eff565b602060405180830381865af415801561218f573d6000803e3d6000fd5b505050506040513d601f19601f820116820180604052508101906121b391906173b1565b12159050919050565b6000806000905060005b6121ce614022565b81101561228a576000606573__$f4f4ad711baf0b6680854290afed407660$__63384662999091846040518363ffffffff1660e01b8152600401612213929190616817565b600060405180830381865af4158015612230573d6000803e3d6000fd5b505050506040513d6000823e3d601f19601f820116820180604052508101906122599190616a0e565b6000015190506122698186614731565b836122749190616b68565b925050808061228290616b9c565b9150506121c6565b5080915050919050565b61229c614e40565b80606f60146101000a81548160ff02191690831515021790555050565b60006122c3614e40565b6122cb615859565b6000805b606573__$f4f4ad711baf0b6680854290afed407660$__637e923cd890916040518263ffffffff1660e01b815260040161230991906167ab565b602060405180830381865af4158015612326573d6000803e3d6000fd5b505050506040513d601f19601f8201168201806040525081019061234a91906167db565b81101561257f57606573__$f4f4ad711baf0b6680854290afed407660$__63384662999091836040518363ffffffff1660e01b815260040161238d929190616817565b600060405180830381865af41580156123aa573d6000803e3d6000fd5b505050506040513d6000823e3d601f19601f820116820180604052508101906123d39190616a0e565b92506000606c84600001516040516123eb9190616a93565b908152602001604051809103902060008773ffffffffffffffffffffffffffffffffffffffff1673ffffffffffffffffffffffffffffffffffffffff168152602001908152602001600020905060005b818054905081101561256a5761252182828154811061245d5761245c616aaa565b5b906000526020600020906003020160405180606001604052908160008201805461248690616b08565b80601f01602080910402602001604051908101604052809291908181526020018280546124b290616b08565b80156124ff5780601f106124d4576101008083540402835291602001916124ff565b820191906000526020600020905b8154815290600101906020018083116124e257829003601f168201915b5050505050815260200160018201548152602001600282015481525050614b91565b8461252c9190616b68565b93504282828154811061254257612541616aaa565b5b906000526020600020906003020160020181905550808061256290616b9c565b91505061243b565b5050808061257790616b9c565b9150506122cf565b508092505050919050565b6000612594615859565b6000606573__$f4f4ad711baf0b6680854290afed407660$__63384662999091866040518363ffffffff1660e01b81526004016125d2929190616817565b600060405180830381865af41580156125ef573d6000803e3d6000fd5b505050506040513d6000823e3d601f19601f820116820180604052508101906126189190616a0e565b91506000606c83600001516040516126309190616a93565b908152602001604051809103902060008773ffffffffffffffffffffffffffffffffffffffff1673ffffffffffffffffffffffffffffffffffffffff168152602001908152602001600020905060005b8180549050811015612786576127668282815481106126a2576126a1616aaa565b5b90600052602060002090600302016040518060600160405290816000820180546126cb90616b08565b80601f01602080910402602001604051908101604052809291908181526020018280546126f790616b08565b80156127445780601f1061271957610100808354040283529160200191612744565b820191906000526020600020905b81548152906001019060200180831161272757829003601f168201915b5050505050815260200160018201548152602001600282015481525050614b91565b836127719190616b68565b9250808061277e90616b9c565b915050612680565b5081935050505092915050565b61279b614e40565b6127a3615859565b60005b606573__$f4f4ad711baf0b6680854290afed407660$__637e923cd890916040518263ffffffff1660e01b81526004016127e091906167ab565b602060405180830381865af41580156127fd573d6000803e3d6000fd5b505050506040513d601f19601f8201168201806040525081019061282191906167db565b811015612ef157606573__$f4f4ad711baf0b6680854290afed407660$__63384662999091836040518363ffffffff1660e01b8152600401612864929190616817565b600060405180830381865af4158015612881573d6000803e3d6000fd5b505050506040513d6000823e3d601f19601f820116820180604052508101906128aa9190616a0e565b91506000606c83600001516040516128c29190616a93565b908152602001604051809103902060008573ffffffffffffffffffffffffffffffffffffffff1673ffffffffffffffffffffffffffffffffffffffff168152602001908152602001600020905060005b8180549050811015612edc5783610160015182828154811061293757612936616aaa565b5b9060005260206000209060030201600101544261295491906170fc565b1115612ec957606d60008673ffffffffffffffffffffffffffffffffffffffff1673ffffffffffffffffffffffffffffffffffffffff16815260200190815260200160002081815481106129ab576129aa616aaa565b5b9060005260206000209060030201600080820160006129ca91906158c1565b600182016000905560028201600090555050606c84600001516040516129f09190616a93565b908152602001604051809103902060008673ffffffffffffffffffffffffffffffffffffffff1673ffffffffffffffffffffffffffffffffffffffff1681526020019081526020016000208181548110612a4d57612a4c616aaa565b5b906000526020600020906003020160008082016000612a6c91906158c1565b60018201600090556002820160009055505060006001606c8660000151604051612a969190616a93565b908152602001604051809103902060008873ffffffffffffffffffffffffffffffffffffffff1673ffffffffffffffffffffffffffffffffffffffff16815260200190815260200160002080549050612aef91906170fc565b905060006001606d60008973ffffffffffffffffffffffffffffffffffffffff1673ffffffffffffffffffffffffffffffffffffffff16815260200190815260200160002080549050612b4291906170fc565b9050606d60008873ffffffffffffffffffffffffffffffffffffffff1673ffffffffffffffffffffffffffffffffffffffff1681526020019081526020016000208181548110612b9557612b94616aaa565b5b9060005260206000209060030201606d60008973ffffffffffffffffffffffffffffffffffffffff1673ffffffffffffffffffffffffffffffffffffffff1681526020019081526020016000208481548110612bf457612bf3616aaa565b5b906000526020600020906003020160008201816000019081612c1691906175a0565b506001820154816001015560028201548160020155905050606d60008873ffffffffffffffffffffffffffffffffffffffff1673ffffffffffffffffffffffffffffffffffffffff168152602001908152602001600020805480612c7d57612c7c6172e0565b5b600190038181906000526020600020906003020160008082016000612ca291906158c1565b6001820160009055600282016000905550509055612cf46040518060400160405280600f81526020017f756e6520666f69732064656c6574650000000000000000000000000000000000815250615761565b606c8660000151604051612d089190616a93565b908152602001604051809103902060008873ffffffffffffffffffffffffffffffffffffffff1673ffffffffffffffffffffffffffffffffffffffff1681526020019081526020016000208281548110612d6557612d64616aaa565b5b9060005260206000209060030201606c8760000151604051612d879190616a93565b908152602001604051809103902060008973ffffffffffffffffffffffffffffffffffffffff1673ffffffffffffffffffffffffffffffffffffffff1681526020019081526020016000208481548110612de457612de3616aaa565b5b906000526020600020906003020160008201816000019081612e0691906175a0565b506001820154816001015560028201548160020155905050606c8660000151604051612e329190616a93565b908152602001604051809103902060008873ffffffffffffffffffffffffffffffffffffffff1673ffffffffffffffffffffffffffffffffffffffff168152602001908152602001600020805480612e8d57612e8c6172e0565b5b600190038181906000526020600020906003020160008082016000612eb291906158c1565b600182016000905560028201600090555050905550505b8080612ed490616b9c565b915050612912565b50508080612ee990616b9c565b9150506127a6565b505050565b6000603360008373ffffffffffffffffffffffffffffffffffffffff1673ffffffffffffffffffffffffffffffffffffffff168152602001908152602001600020549050919050565b60011515607060003373ffffffffffffffffffffffffffffffffffffffff1673ffffffffffffffffffffffffffffffffffffffff16815260200190815260200160002060009054906101000a900460ff16151514612fd2576040517f08c379a0000000000000000000000000000000000000000000000000000000008152600401612fc9906176fa565b60405180910390fd5b606f60149054906101000a900460ff16613021576040517f08c379a000000000000000000000000000000000000000000000000000000000815260040161301890617766565b60405180910390fd5b6001151561302e83612133565b151514613070576040517f08c379a0000000000000000000000000000000000000000000000000000000008152600401613067906177d2565b60405180910390fd5b60028111156130b4576040517f08c379a00000000000000000000000000000000000000000000000000000000081526004016130ab90617766565b60405180910390fd5b60003390506000607060008373ffffffffffffffffffffffffffffffffffffffff1673ffffffffffffffffffffffffffffffffffffffff16815260200190815260200160002060006101000a81548160ff02191690831515021790555061311c818484615400565b505050565b613129614e40565b61313282612133565b613171576040517f08c379a00000000000000000000000000000000000000000000000000000000081526004016131689061783e565b60405180910390fd5b600081116131b4576040517f08c379a00000000000000000000000000000000000000000000000000000000081526004016131ab906178aa565b60405180910390fd5b6000606573__$f4f4ad711baf0b6680854290afed407660$__635bce6b3b9091856040518363ffffffff1660e01b81526004016131f2929190616eff565b602060405180830381865af415801561320f573d6000803e3d6000fd5b505050506040513d601f19601f820116820180604052508101906132339190616f65565b9050818160070160008282546132499190616b68565b9250508190555080600801548160070154111561329b576040517f08c379a000000000000000000000000000000000000000000000000000000000815260040161329290617916565b60405180910390fd5b60005b8281101561348357606c846040516132b69190616a93565b908152602001604051809103902060008673ffffffffffffffffffffffffffffffffffffffff1673ffffffffffffffffffffffffffffffffffffffff1681526020019081526020016000206040518060600160405280868152602001428152602001428152509080600181540180825580915050600190039060005260206000209060030201600090919091909150600082015181600001908161335a9190617936565b5060208201518160010155604082015181600201555050606d60008673ffffffffffffffffffffffffffffffffffffffff1673ffffffffffffffffffffffffffffffffffffffff168152602001908152602001600020604051806060016040528086815260200142815260200142815250908060018154018082558091505060019003906000526020600020906003020160009091909190915060008201518160000190816134099190617936565b50602082015181600101556040820151816002015550508473ffffffffffffffffffffffffffffffffffffffff167fa319abf0bf6e4ec7945a81a3552479dd23456ff1e503cd641ec946082acdce8b8542604051613468929190617a08565b60405180910390a2808061347b90616b9c565b91505061329e565b5050505050565b613492614e40565b600082905060008173ffffffffffffffffffffffffffffffffffffffff166370a08231306040518263ffffffff1660e01b81526004016134d29190616789565b602060405180830381865afa1580156134ef573d6000803e3d6000fd5b505050506040513d601f19601f8201168201806040525081019061351391906167db565b90508173ffffffffffffffffffffffffffffffffffffffff1663a9059cbb84836040518363ffffffff1660e01b8152600401613550929190617a38565b6020604051808303816000875af115801561356f573d6000803e3d6000fd5b505050506040513d601f19601f820116820180604052508101906135939190617a76565b5050505050565b33606a60006101000a81548173ffffffffffffffffffffffffffffffffffffffff021916908373ffffffffffffffffffffffffffffffffffffffff1602179055506000606f60146101000a81548160ff021916908315150217905550565b60606037805461360790616b08565b80601f016020809104026020016040519081016040528092919081815260200182805461363390616b08565b80156136805780601f1061365557610100808354040283529160200191613680565b820191906000526020600020905b81548152906001019060200180831161366357829003601f168201915b5050505050905090565b613692614e40565b6136bf30606f60009054906101000a900473ffffffffffffffffffffffffffffffffffffffff1683614f32565b50565b6000806000905060005b606573__$f4f4ad711baf0b6680854290afed407660$__637e923cd890916040518263ffffffff1660e01b815260040161370691906167ab565b602060405180830381865af4158015613723573d6000803e3d6000fd5b505050506040513d601f19601f8201168201806040525081019061374791906167db565b8110156137f457606573__$f4f4ad711baf0b6680854290afed407660$__63384662999091836040518363ffffffff1660e01b815260040161378a929190616817565b600060405180830381865af41580156137a7573d6000803e3d6000fd5b505050506040513d6000823e3d601f19601f820116820180604052508101906137d09190616a0e565b60e00151826137df9190616b68565b915080806137ec90616b9c565b9150506136cc565b508091505090565b613804614e40565b80606960006101000a81548173ffffffffffffffffffffffffffffffffffffffff021916908373ffffffffffffffffffffffffffffffffffffffff16021790555050565b600080613853614f2a565b9050600061386182866147b1565b9050838110156138a6576040517f08c379a000000000000000000000000000000000000000000000000000000000815260040161389d90617b15565b60405180910390fd5b6138b38286868403614f32565b60019250505092915050565b6000806138ca614f2a565b90506138d7818585615187565b600191505092915050565b6000606573__$f4f4ad711baf0b6680854290afed407660$__63384662999091846040518363ffffffff1660e01b8152600401613920929190616817565b600060405180830381865af415801561393d573d6000803e3d6000fd5b505050506040513d6000823e3d601f19601f820116820180604052508101906139669190616a0e565b60e001519050919050565b606d602052816000526040600020818154811061398d57600080fd5b9060005260206000209060030201600091509150508060000180546139b190616b08565b80601f01602080910402602001604051908101604052809291908181526020018280546139dd90616b08565b8015613a2a5780601f106139ff57610100808354040283529160200191613a2a565b820191906000526020600020905b815481529060010190602001808311613a0d57829003601f168201915b5050505050908060010154908060020154905083565b613a48614e40565b613a518b612133565b613a90576040517f08c379a0000000000000000000000000000000000000000000000000000000008152600401613a8790617b81565b60405180910390fd5b6000606573__$f4f4ad711baf0b6680854290afed407660$__635bce6b3b90918e6040518363ffffffff1660e01b8152600401613ace929190616eff565b602060405180830381865af4158015613aeb573d6000803e3d6000fd5b505050506040513d601f19601f82011682018060405250810190613b0f9190616f65565b905060008b1115613b24578a81600101819055505b60008a1115613b37578981600201819055505b6000891115613b4a578881600301819055505b6000881115613b5d578781600401819055505b6000871115613b70578681600501819055505b6000861115613b83578581600801819055505b6000851115613b96578481600901819055505b6000841115613ba9578381600a01819055505b6000831115613bbc578281600b01819055505b6000821115613bcf578181600c01819055505b505050505050505050505050565b606b8054613bea90616b08565b80601f0160208091040260200160405190810160405280929190818152602001828054613c1690616b08565b8015613c635780601f10613c3857610100808354040283529160200191613c63565b820191906000526020600020905b815481529060010190602001808311613c4657829003601f168201915b505050505081565b6060613c7682612133565b613cb5576040517f08c379a0000000000000000000000000000000000000000000000000000000008152600401613cac90617bed565b60405180910390fd5b6000600c67ffffffffffffffff811115613cd257613cd1615a0c565b5b604051908082528060200260200182016040528015613d005781602001602082028036833780820191505090505b509050613d0b615859565b606573__$f4f4ad711baf0b6680854290afed407660$__635bce6b3b9091866040518363ffffffff1660e01b8152600401613d47929190616eff565b602060405180830381865af4158015613d64573d6000803e3d6000fd5b505050506040513d601f19601f82011682018060405250810190613d889190616f65565b604051806101a0016040529081600082018054613da490616b08565b80601f0160208091040260200160405190810160405280929190818152602001828054613dd090616b08565b8015613e1d5780601f10613df257610100808354040283529160200191613e1d565b820191906000526020600020905b815481529060010190602001808311613e0057829003601f168201915b50505050508152602001600182015481526020016002820154815260200160038201548152602001600482015481526020016005820154815260200160068201548152602001600782015481526020016008820154815260200160098201548152602001600a8201548152602001600b8201548152602001600c820154815250509050806020015182600081518110613eb957613eb8616aaa565b5b602002602001018181525050806040015182600181518110613ede57613edd616aaa565b5b602002602001018181525050806060015182600281518110613f0357613f02616aaa565b5b602002602001018181525050806080015182600381518110613f2857613f27616aaa565b5b6020026020010181815250508060a0015182600481518110613f4d57613f4c616aaa565b5b6020026020010181815250508060e0015182600581518110613f7257613f71616aaa565b5b60200260200101818152505080610100015182600681518110613f9857613f97616aaa565b5b60200260200101818152505080610120015182600781518110613fbe57613fbd616aaa565b5b60200260200101818152505080610140015182600881518110613fe457613fe3616aaa565b5b6020026020010181815250508061018001518260098151811061400a57614009616aaa565b5b6020026020010181815250508192505050919050565b565b6000606573__$f4f4ad711baf0b6680854290afed407660$__637e923cd890916040518263ffffffff1660e01b815260040161405e91906167ab565b602060405180830381865af415801561407b573d6000803e3d6000fd5b505050506040513d601f19601f8201168201806040525081019061409f91906167db565b905090565b6140ac614e40565b6140b4615859565b606573__$f4f4ad711baf0b6680854290afed407660$__63384662999091856040518363ffffffff1660e01b81526004016140f0929190616817565b600060405180830381865af415801561410d573d6000803e3d6000fd5b505050506040513d6000823e3d601f19601f820116820180604052508101906141369190616a0e565b90506000606c826000015160405161414e9190616a93565b908152602001604051809103902060008473ffffffffffffffffffffffffffffffffffffffff1673ffffffffffffffffffffffffffffffffffffffff168152602001908152602001600020905060005b818054905081101561472a578261016001518282815481106141c3576141c2616aaa565b5b906000526020600020906003020160010154426141e091906170fc565b111561471757606d60008573ffffffffffffffffffffffffffffffffffffffff1673ffffffffffffffffffffffffffffffffffffffff168152602001908152602001600020818154811061423757614236616aaa565b5b90600052602060002090600302016000808201600061425691906158c1565b600182016000905560028201600090555050606c836000015160405161427c9190616a93565b908152602001604051809103902060008573ffffffffffffffffffffffffffffffffffffffff1673ffffffffffffffffffffffffffffffffffffffff16815260200190815260200160002081815481106142d9576142d8616aaa565b5b9060005260206000209060030201600080820160006142f891906158c1565b60018201600090556002820160009055505060006001606c85600001516040516143229190616a93565b908152602001604051809103902060008773ffffffffffffffffffffffffffffffffffffffff1673ffffffffffffffffffffffffffffffffffffffff1681526020019081526020016000208054905061437b91906170fc565b905060006001606d60008873ffffffffffffffffffffffffffffffffffffffff1673ffffffffffffffffffffffffffffffffffffffff168152602001908152602001600020805490506143ce91906170fc565b9050606d60008773ffffffffffffffffffffffffffffffffffffffff1673ffffffffffffffffffffffffffffffffffffffff168152602001908152602001600020818154811061442157614420616aaa565b5b9060005260206000209060030201606d60008873ffffffffffffffffffffffffffffffffffffffff1673ffffffffffffffffffffffffffffffffffffffff16815260200190815260200160002084815481106144805761447f616aaa565b5b9060005260206000209060030201600082018160000190816144a291906175a0565b506001820154816001015560028201548160020155905050606d60008773ffffffffffffffffffffffffffffffffffffffff1673ffffffffffffffffffffffffffffffffffffffff168152602001908152602001600020805480614509576145086172e0565b5b60019003818190600052602060002090600302016000808201600061452e91906158c1565b6001820160009055600282016000905550509055606c85600001516040516145569190616a93565b908152602001604051809103902060008773ffffffffffffffffffffffffffffffffffffffff1673ffffffffffffffffffffffffffffffffffffffff16815260200190815260200160002082815481106145b3576145b2616aaa565b5b9060005260206000209060030201606c86600001516040516145d59190616a93565b908152602001604051809103902060008873ffffffffffffffffffffffffffffffffffffffff1673ffffffffffffffffffffffffffffffffffffffff168152602001908152602001600020848154811061463257614631616aaa565b5b90600052602060002090600302016000820181600001908161465491906175a0565b506001820154816001015560028201548160020155905050606c85600001516040516146809190616a93565b908152602001604051809103902060008773ffffffffffffffffffffffffffffffffffffffff1673ffffffffffffffffffffffffffffffffffffffff1681526020019081526020016000208054806146db576146da6172e0565b5b60019003818190600052602060002090600302016000808201600061470091906158c1565b600182016000905560028201600090555050905550505b808061472290616b9c565b91505061419e565b5050505050565b600061473c83612133565b61474957600090506147ab565b606c836040516147599190616a93565b908152602001604051809103902060008373ffffffffffffffffffffffffffffffffffffffff1673ffffffffffffffffffffffffffffffffffffffff1681526020019081526020016000208054905090505b92915050565b6000603460008473ffffffffffffffffffffffffffffffffffffffff1673ffffffffffffffffffffffffffffffffffffffff16815260200190815260200160002060008373ffffffffffffffffffffffffffffffffffffffff1673ffffffffffffffffffffffffffffffffffffffff16815260200190815260200160002054905092915050565b614840614e40565b80606f60156101000a81548160ff02191690831515021790555050565b6000614867614e40565b607060008373ffffffffffffffffffffffffffffffffffffffff1673ffffffffffffffffffffffffffffffffffffffff16815260200190815260200160002060009054906101000a900460ff169050919050565b600080606573__$f4f4ad711baf0b6680854290afed407660$__63384662999091866040518363ffffffff1660e01b81526004016148fa929190616817565b600060405180830381865af4158015614917573d6000803e3d6000fd5b505050506040513d6000823e3d601f19601f820116820180604052508101906149409190616a0e565b60000151905061494f81612133565b61495d5760009150506149c0565b606c8160405161496d9190616a93565b908152602001604051809103902060008473ffffffffffffffffffffffffffffffffffffffff1673ffffffffffffffffffffffffffffffffffffffff168152602001908152602001600020805490509150505b92915050565b6149ce614e40565b60008190508073ffffffffffffffffffffffffffffffffffffffff1663a9059cbb85856040518363ffffffff1660e01b8152600401614a0e929190617a38565b6020604051808303816000875af1158015614a2d573d6000803e3d6000fd5b505050506040513d601f19601f82011682018060405250810190614a519190617a76565b5050505050565b606a60009054906101000a900473ffffffffffffffffffffffffffffffffffffffff1681565b614a86614e40565b614a8f81612133565b614ace576040517f08c379a0000000000000000000000000000000000000000000000000000000008152600401614ac590617c59565b60405180910390fd5b80606b9081614add9190617936565b5050565b6000606573__$f4f4ad711baf0b6680854290afed407660$__635bce6b3b9091846040518363ffffffff1660e01b8152600401614b1f929190616eff565b602060405180830381865af4158015614b3c573d6000803e3d6000fd5b505050506040513d601f19601f82011682018060405250810190614b609190616f65565b600c01549050919050565b606f60009054906101000a900473ffffffffffffffffffffffffffffffffffffffff1681565b600080606573__$f4f4ad711baf0b6680854290afed407660$__635bce6b3b909185600001516040518363ffffffff1660e01b8152600401614bd4929190616eff565b602060405180830381865af4158015614bf1573d6000803e3d6000fd5b505050506040513d601f19601f82011682018060405250810190614c159190616f65565b604051806101a0016040529081600082018054614c3190616b08565b80601f0160208091040260200160405190810160405280929190818152602001828054614c5d90616b08565b8015614caa5780601f10614c7f57610100808354040283529160200191614caa565b820191906000526020600020905b815481529060010190602001808311614c8d57829003601f168201915b50505050508152602001600182015481526020016002820154815260200160038201548152602001600482015481526020016005820154815260200160068201548152602001600782015481526020016008820154815260200160098201548152602001600a8201548152602001600b8201548152602001600c82015481525050905060008160400151846040015142614d4491906170fc565b1015614dc257614dbb614d65606484604001516157fa90919063ffffffff16565b614dad84608001516064614d7991906170fc565b614d9f886040015142614d8c91906170fc565b87606001516157fa90919063ffffffff16565b6157fa90919063ffffffff16565b61581090919063ffffffff16565b9050614e36565b614e33614ddd606484604001516157fa90919063ffffffff16565b614e258460a001516064614df191906170fc565b614e17886040015142614e0491906170fc565b87606001516157fa90919063ffffffff16565b6157fa90919063ffffffff16565b61581090919063ffffffff16565b90505b8092505050919050565b606f60009054906101000a900473ffffffffffffffffffffffffffffffffffffffff1673ffffffffffffffffffffffffffffffffffffffff163373ffffffffffffffffffffffffffffffffffffffff161480614ee95750606a60009054906101000a900473ffffffffffffffffffffffffffffffffffffffff1673ffffffffffffffffffffffffffffffffffffffff163373ffffffffffffffffffffffffffffffffffffffff16145b614f28576040517f08c379a0000000000000000000000000000000000000000000000000000000008152600401614f1f90617cc5565b60405180910390fd5b565b600033905090565b600073ffffffffffffffffffffffffffffffffffffffff168373ffffffffffffffffffffffffffffffffffffffff1603614fa1576040517f08c379a0000000000000000000000000000000000000000000000000000000008152600401614f9890617d57565b60405180910390fd5b600073ffffffffffffffffffffffffffffffffffffffff168273ffffffffffffffffffffffffffffffffffffffff1603615010576040517f08c379a000000000000000000000000000000000000000000000000000000000815260040161500790617de9565b60405180910390fd5b80603460008573ffffffffffffffffffffffffffffffffffffffff1673ffffffffffffffffffffffffffffffffffffffff16815260200190815260200160002060008473ffffffffffffffffffffffffffffffffffffffff1673ffffffffffffffffffffffffffffffffffffffff168152602001908152602001600020819055508173ffffffffffffffffffffffffffffffffffffffff168373ffffffffffffffffffffffffffffffffffffffff167f8c5be1e5ebec7d5bd14f71427d1e84f3dd0314c0f7b2291e5b200ac8c7c3b925836040516150ee91906159d6565b60405180910390a3505050565b600061510784846147b1565b90507fffffffffffffffffffffffffffffffffffffffffffffffffffffffffffffffff81146151815781811015615173576040517f08c379a000000000000000000000000000000000000000000000000000000000815260040161516a90617e55565b60405180910390fd5b6151808484848403614f32565b5b50505050565b600073ffffffffffffffffffffffffffffffffffffffff168373ffffffffffffffffffffffffffffffffffffffff16036151f6576040517f08c379a00000000000000000000000000000000000000000000000000000000081526004016151ed90617ee7565b60405180910390fd5b600073ffffffffffffffffffffffffffffffffffffffff168273ffffffffffffffffffffffffffffffffffffffff1603615265576040517f08c379a000000000000000000000000000000000000000000000000000000000815260040161525c90617f79565b60405180910390fd5b615270838383615826565b6000603360008573ffffffffffffffffffffffffffffffffffffffff1673ffffffffffffffffffffffffffffffffffffffff168152602001908152602001600020549050818110156152f7576040517f08c379a00000000000000000000000000000000000000000000000000000000081526004016152ee9061800b565b60405180910390fd5b818103603360008673ffffffffffffffffffffffffffffffffffffffff1673ffffffffffffffffffffffffffffffffffffffff1681526020019081526020016000208190555081603360008573ffffffffffffffffffffffffffffffffffffffff1673ffffffffffffffffffffffffffffffffffffffff168152602001908152602001600020600082825401925050819055508273ffffffffffffffffffffffffffffffffffffffff168473ffffffffffffffffffffffffffffffffffffffff167fddf252ad1be2c89b69c2b068fc378daa952ba7f163c4a11628f55a4df523b3ef846040516153e791906159d6565b60405180910390a36153fa84848461582b565b50505050565b61540982612133565b615448576040517f08c379a000000000000000000000000000000000000000000000000000000000815260040161543f9061783e565b60405180910390fd5b6000811161548b576040517f08c379a0000000000000000000000000000000000000000000000000000000008152600401615482906178aa565b60405180910390fd5b6000606573__$f4f4ad711baf0b6680854290afed407660$__635bce6b3b9091856040518363ffffffff1660e01b81526004016154c9929190616eff565b602060405180830381865af41580156154e6573d6000803e3d6000fd5b505050506040513d601f19601f8201168201806040525081019061550a9190616f65565b9050818160070160008282546155209190616b68565b92505081905550806008015481600701541115615572576040517f08c379a000000000000000000000000000000000000000000000000000000000815260040161556990618077565b60405180910390fd5b60005b8281101561575a57606c8460405161558d9190616a93565b908152602001604051809103902060008673ffffffffffffffffffffffffffffffffffffffff1673ffffffffffffffffffffffffffffffffffffffff168152602001908152602001600020604051806060016040528086815260200142815260200142815250908060018154018082558091505060019003906000526020600020906003020160009091909190915060008201518160000190816156319190617936565b5060208201518160010155604082015181600201555050606d60008673ffffffffffffffffffffffffffffffffffffffff1673ffffffffffffffffffffffffffffffffffffffff168152602001908152602001600020604051806060016040528086815260200142815260200142815250908060018154018082558091505060019003906000526020600020906003020160009091909190915060008201518160000190816156e09190617936565b50602082015181600101556040820151816002015550508473ffffffffffffffffffffffffffffffffffffffff167fa319abf0bf6e4ec7945a81a3552479dd23456ff1e503cd641ec946082acdce8b854260405161573f929190617a08565b60405180910390a2808061575290616b9c565b915050615575565b5050505050565b6157f7816040516024016157759190615d22565b6040516020818303038152906040527f41304fac000000000000000000000000000000000000000000000000000000007bffffffffffffffffffffffffffffffffffffffffffffffffffffffff19166020820180517bffffffffffffffffffffffffffffffffffffffffffffffffffffffff8381831617835250505050615830565b50565b600081836158089190616cbc565b905092915050565b6000818361581e91906180c6565b905092915050565b505050565b505050565b60008151905060006a636f6e736f6c652e6c6f679050602083016000808483855afa5050505050565b604051806101a00160405280606081526020016000815260200160008152602001600081526020016000815260200160008152602001600081526020016000815260200160008152602001600081526020016000815260200160008152602001600081525090565b5080546158cd90616b08565b6000825580601f106158df57506158fe565b601f0160209004906000526020600020908101906158fd9190615901565b5b50565b5b8082111561591a576000816000905550600101615902565b5090565b6000604051905090565b600080fd5b600080fd5b600073ffffffffffffffffffffffffffffffffffffffff82169050919050565b600061595d82615932565b9050919050565b61596d81615952565b811461597857600080fd5b50565b60008135905061598a81615964565b92915050565b6000602082840312156159a6576159a5615928565b5b60006159b48482850161597b565b91505092915050565b6000819050919050565b6159d0816159bd565b82525050565b60006020820190506159eb60008301846159c7565b92915050565b600080fd5b600080fd5b6000601f19601f8301169050919050565b7f4e487b7100000000000000000000000000000000000000000000000000000000600052604160045260246000fd5b615a44826159fb565b810181811067ffffffffffffffff82111715615a6357615a62615a0c565b5b80604052505050565b6000615a7661591e565b9050615a828282615a3b565b919050565b600067ffffffffffffffff821115615aa257615aa1615a0c565b5b615aab826159fb565b9050602081019050919050565b82818337600083830152505050565b6000615ada615ad584615a87565b615a6c565b905082815260208101848484011115615af657615af56159f6565b5b615b01848285615ab8565b509392505050565b600082601f830112615b1e57615b1d6159f1565b5b8135615b2e848260208601615ac7565b91505092915050565b600067ffffffffffffffff821115615b5257615b51615a0c565b5b602082029050602081019050919050565b600080fd5b615b71816159bd565b8114615b7c57600080fd5b50565b600081359050615b8e81615b68565b92915050565b6000615ba7615ba284615b37565b615a6c565b90508083825260208201905060208402830185811115615bca57615bc9615b63565b5b835b81811015615bf35780615bdf8882615b7f565b845260208401935050602081019050615bcc565b5050509392505050565b600082601f830112615c1257615c116159f1565b5b8135615c22848260208601615b94565b91505092915050565b60008060408385031215615c4257615c41615928565b5b600083013567ffffffffffffffff811115615c6057615c5f61592d565b5b615c6c85828601615b09565b925050602083013567ffffffffffffffff811115615c8d57615c8c61592d565b5b615c9985828601615bfd565b9150509250929050565b600081519050919050565b600082825260208201905092915050565b60005b83811015615cdd578082015181840152602081019050615cc2565b60008484015250505050565b6000615cf482615ca3565b615cfe8185615cae565b9350615d0e818560208601615cbf565b615d17816159fb565b840191505092915050565b60006020820190508181036000830152615d3c8184615ce9565b905092915050565b60008060408385031215615d5b57615d5a615928565b5b6000615d698582860161597b565b9250506020615d7a85828601615b7f565b9150509250929050565b60008115159050919050565b615d9981615d84565b82525050565b6000602082019050615db46000830184615d90565b92915050565b60008060408385031215615dd157615dd0615928565b5b600083013567ffffffffffffffff811115615def57615dee61592d565b5b615dfb85828601615b09565b9250506020615e0c8582860161597b565b9150509250929050565b600081519050919050565b600082825260208201905092915050565b6000819050602082019050919050565b600082825260208201905092915050565b6000615e5e82615ca3565b615e688185615e42565b9350615e78818560208601615cbf565b615e81816159fb565b840191505092915050565b615e95816159bd565b82525050565b60006060830160008301518482036000860152615eb88282615e53565b9150506020830151615ecd6020860182615e8c565b506040830151615ee06040860182615e8c565b508091505092915050565b6000615ef78383615e9b565b905092915050565b6000602082019050919050565b6000615f1782615e16565b615f218185615e21565b935083602082028501615f3385615e32565b8060005b85811015615f6f5784840389528151615f508582615eeb565b9450615f5b83615eff565b925060208a01995050600181019050615f37565b50829750879550505050505092915050565b60006020820190508181036000830152615f9b8184615f0c565b905092915050565b600060208284031215615fb957615fb8615928565b5b600082013567ffffffffffffffff811115615fd757615fd661592d565b5b615fe384828501615b09565b91505092915050565b60008060006060848603121561600557616004615928565b5b60006160138682870161597b565b93505060206160248682870161597b565b925050604061603586828701615b7f565b9150509250925092565b600067ffffffffffffffff82111561605a57616059615a0c565b5b602082029050602081019050919050565b600061607e6160798461603f565b615a6c565b905080838252602082019050602084028301858111156160a1576160a0615b63565b5b835b818110156160e857803567ffffffffffffffff8111156160c6576160c56159f1565b5b8086016160d38982615b09565b855260208501945050506020810190506160a3565b5050509392505050565b600082601f830112616107576161066159f1565b5b813561611784826020860161606b565b91505092915050565b6000806040838503121561613757616136615928565b5b600083013567ffffffffffffffff8111156161555761615461592d565b5b616161858286016160f2565b925050602083013567ffffffffffffffff8111156161825761618161592d565b5b61618e85828601615b09565b9150509250929050565b600067ffffffffffffffff8211156161b3576161b2615a0c565b5b602082029050602081019050919050565b60006161d76161d284616198565b615a6c565b905080838252602082019050602084028301858111156161fa576161f9615b63565b5b835b81811015616223578061620f888261597b565b8452602084019350506020810190506161fc565b5050509392505050565b600082601f830112616242576162416159f1565b5b81356162528482602086016161c4565b91505092915050565b60006020828403121561627157616270615928565b5b600082013567ffffffffffffffff81111561628f5761628e61592d565b5b61629b8482850161622d565b91505092915050565b6000602082840312156162ba576162b9615928565b5b60006162c884828501615b7f565b91505092915050565b600060ff82169050919050565b6162e7816162d1565b82525050565b600060208201905061630260008301846162de565b92915050565b61631181615d84565b811461631c57600080fd5b50565b60008135905061632e81616308565b92915050565b6000806040838503121561634b5761634a615928565b5b600083013567ffffffffffffffff8111156163695761636861592d565b5b6163758582860161622d565b92505060206163868582860161631f565b9150509250929050565b6000602082840312156163a6576163a5615928565b5b60006163b48482850161631f565b91505092915050565b600080604083850312156163d4576163d3615928565b5b600083013567ffffffffffffffff8111156163f2576163f161592d565b5b6163fe85828601615b09565b925050602061640f85828601615b7f565b9150509250929050565b60008060006060848603121561643257616431615928565b5b60006164408682870161597b565b935050602084013567ffffffffffffffff8111156164615761646061592d565b5b61646d86828701615b09565b925050604061647e86828701615b7f565b9150509250925092565b6000806040838503121561649f5761649e615928565b5b60006164ad8582860161597b565b92505060206164be8582860161597b565b9150509250929050565b600060608201905081810360008301526164e28186615ce9565b90506164f160208301856159c7565b6164fe60408301846159c7565b949350505050565b60008060008060008060008060008060006101608c8e03121561652c5761652b615928565b5b60008c013567ffffffffffffffff81111561654a5761654961592d565b5b6165568e828f01615b09565b9b505060206165678e828f01615b7f565b9a505060406165788e828f01615b7f565b99505060606165898e828f01615b7f565b985050608061659a8e828f01615b7f565b97505060a06165ab8e828f01615b7f565b96505060c06165bc8e828f01615b7f565b95505060e06165cd8e828f01615b7f565b9450506101006165df8e828f01615b7f565b9350506101206165f18e828f01615b7f565b9250506101406166038e828f01615b7f565b9150509295989b509295989b9093969950565b600081519050919050565b600082825260208201905092915050565b6000819050602082019050919050565b600061664e8383615e8c565b60208301905092915050565b6000602082019050919050565b600061667282616616565b61667c8185616621565b935061668783616632565b8060005b838110156166b857815161669f8882616642565b97506166aa8361665a565b92505060018101905061668b565b5085935050505092915050565b600060208201905081810360008301526166df8184616667565b905092915050565b600080604083850312156166fe576166fd615928565b5b600061670c85828601615b7f565b925050602061671d8582860161597b565b9150509250929050565b6000806000606084860312156167405761673f615928565b5b600061674e8682870161597b565b935050602061675f86828701615b7f565b92505060406167708682870161597b565b9150509250925092565b61678381615952565b82525050565b600060208201905061679e600083018461677a565b92915050565b8082525050565b60006020820190506167c060008301846167a4565b92915050565b6000815190506167d581615b68565b92915050565b6000602082840312156167f1576167f0615928565b5b60006167ff848285016167c6565b91505092915050565b616811816159bd565b82525050565b600060408201905061682c60008301856167a4565b6168396020830184616808565b9392505050565b600080fd5b600080fd5b600061685d61685884615a87565b615a6c565b905082815260208101848484011115616879576168786159f6565b5b616884848285615cbf565b509392505050565b600082601f8301126168a1576168a06159f1565b5b81516168b184826020860161684a565b91505092915050565b60006101a082840312156168d1576168d0616840565b5b6168dc6101a0615a6c565b9050600082015167ffffffffffffffff8111156168fc576168fb616845565b5b6169088482850161688c565b600083015250602061691c848285016167c6565b6020830152506040616930848285016167c6565b6040830152506060616944848285016167c6565b6060830152506080616958848285016167c6565b60808301525060a061696c848285016167c6565b60a08301525060c0616980848285016167c6565b60c08301525060e0616994848285016167c6565b60e0830152506101006169a9848285016167c6565b610100830152506101206169bf848285016167c6565b610120830152506101406169d5848285016167c6565b610140830152506101606169eb848285016167c6565b61016083015250610180616a01848285016167c6565b6101808301525092915050565b600060208284031215616a2457616a23615928565b5b600082015167ffffffffffffffff811115616a4257616a4161592d565b5b616a4e848285016168ba565b91505092915050565b600081905092915050565b6000616a6d82615ca3565b616a778185616a57565b9350616a87818560208601615cbf565b80840191505092915050565b6000616a9f8284616a62565b915081905092915050565b7f4e487b7100000000000000000000000000000000000000000000000000000000600052603260045260246000fd5b7f4e487b7100000000000000000000000000000000000000000000000000000000600052602260045260246000fd5b60006002820490506001821680616b2057607f821691505b602082108103616b3357616b32616ad9565b5b50919050565b7f4e487b7100000000000000000000000000000000000000000000000000000000600052601160045260246000fd5b6000616b73826159bd565b9150616b7e836159bd565b9250828201905080821115616b9657616b95616b39565b5b92915050565b6000616ba7826159bd565b91507fffffffffffffffffffffffffffffffffffffffffffffffffffffffffffffffff8203616bd957616bd8616b39565b5b600182019050919050565b7f456d707479206e616d6500000000000000000000000000000000000000000000600082015250565b6000616c1a600a83615cae565b9150616c2582616be4565b602082019050919050565b60006020820190508181036000830152616c4981616c0d565b9050919050565b7f6e6f6465547970654e616d652065786973747300000000000000000000000000600082015250565b6000616c86601383615cae565b9150616c9182616c50565b602082019050919050565b60006020820190508181036000830152616cb581616c79565b9050919050565b6000616cc7826159bd565b9150616cd2836159bd565b9250828202616ce0816159bd565b91508282048414831517616cf757616cf6616b39565b5b5092915050565b600082825260208201905092915050565b6000616d1a82615ca3565b616d248185616cfe565b9350616d34818560208601615cbf565b616d3d816159fb565b840191505092915050565b600082825260208201905092915050565b6000616d6482615ca3565b616d6e8185616d48565b9350616d7e818560208601615cbf565b616d87816159fb565b840191505092915050565b616d9b816159bd565b82525050565b60006101a0830160008301518482036000860152616dbf8282616d59565b9150506020830151616dd46020860182616d92565b506040830151616de76040860182616d92565b506060830151616dfa6060860182616d92565b506080830151616e0d6080860182616d92565b5060a0830151616e2060a0860182616d92565b5060c0830151616e3360c0860182616d92565b5060e0830151616e4660e0860182616d92565b50610100830151616e5b610100860182616d92565b50610120830151616e70610120860182616d92565b50610140830151616e85610140860182616d92565b50610160830151616e9a610160860182616d92565b50610180830151616eaf610180860182616d92565b508091505092915050565b6000606082019050616ecf60008301866167a4565b8181036020830152616ee18185616d0f565b90508181036040830152616ef58184616da1565b9050949350505050565b6000604082019050616f1460008301856167a4565b8181036020830152616f268184616d0f565b90509392505050565b6000819050919050565b616f4281616f2f565b8114616f4d57600080fd5b50565b600081519050616f5f81616f39565b92915050565b600060208284031215616f7b57616f7a615928565b5b6000616f8984828501616f50565b91505092915050565b7f4e6f6465206c6576656c207570206e6f7420617574686f72697a656420796574600082015250565b6000616fc8602083615cae565b9150616fd382616f92565b602082019050919050565b60006020820190508181036000830152616ff781616fbb565b9050919050565b7f74617267657420646f65736e7420657869737400000000000000000000000000600082015250565b6000617034601383615cae565b915061703f82616ffe565b602082019050919050565b6000602082019050818103600083015261706381617027565b9050919050565b7f4e6f206f6e652063616e206c6576656c20757020746869732074797065206f6660008201527f206e6f6465000000000000000000000000000000000000000000000000000000602082015250565b60006170c6602583615cae565b91506170d18261706a565b604082019050919050565b600060208201905081810360008301526170f5816170b9565b9050919050565b6000617107826159bd565b9150617112836159bd565b925082820390508181111561712a57617129616b39565b5b92915050565b7f4c6576656c207570206c696d6974207265616368656420666f72207573657200600082015250565b6000617166601f83615cae565b915061717182617130565b602082019050919050565b6000602082019050818103600083015261719581617159565b9050919050565b7f6e616d6520646f65736e74206578697374000000000000000000000000000000600082015250565b60006171d2601183615cae565b91506171dd8261719c565b602082019050919050565b60006020820190508181036000830152617201816171c5565b9050919050565b7f4e6f74206f776e65640000000000000000000000000000000000000000000000600082015250565b600061723e600983615cae565b915061724982617208565b602082019050919050565b6000602082019050818103600083015261726d81617231565b9050919050565b7f43616e6e6f74206c6576656c20646f776e000000000000000000000000000000600082015250565b60006172aa601183615cae565b91506172b582617274565b602082019050919050565b600060208201905081810360008301526172d98161729d565b9050919050565b7f4e487b7100000000000000000000000000000000000000000000000000000000600052603160045260246000fd5b7f4e6f7420656e6f7567682073656e740000000000000000000000000000000000600082015250565b6000617345600f83615cae565b91506173508261730f565b602082019050919050565b6000602082019050818103600083015261737481617338565b9050919050565b6000819050919050565b61738e8161737b565b811461739957600080fd5b50565b6000815190506173ab81617385565b92915050565b6000602082840312156173c7576173c6615928565b5b60006173d58482850161739c565b91505092915050565b6000815490506173ed81616b08565b9050919050565b60008190508160005260206000209050919050565b60006020601f8301049050919050565b600082821b905092915050565b6000600883026174567fffffffffffffffffffffffffffffffffffffffffffffffffffffffffffffffff82617419565b6174608683617419565b95508019841693508086168417925050509392505050565b6000819050919050565b600061749d617498617493846159bd565b617478565b6159bd565b9050919050565b6000819050919050565b6174b783617482565b6174cb6174c3826174a4565b848454617426565b825550505050565b600090565b6174e06174d3565b6174eb8184846174ae565b505050565b5b8181101561750f576175046000826174d8565b6001810190506174f1565b5050565b601f82111561755457617525816173f4565b61752e84617409565b8101602085101561753d578190505b61755161754985617409565b8301826174f0565b50505b505050565b600082821c905092915050565b600061757760001984600802617559565b1980831691505092915050565b60006175908383617566565b9150826002028217905092915050565b8181036175ae575050617686565b6175b7826173de565b67ffffffffffffffff8111156175d0576175cf615a0c565b5b6175da8254616b08565b6175e5828285617513565b6000601f8311600181146176145760008415617602578287015490505b61760c8582617584565b86555061767f565b601f198416617622876173f4565b965061762d866173f4565b60005b8281101561765557848901548255600182019150600185019450602081019050617630565b86831015617672578489015461766e601f891682617566565b8355505b6001600288020188555050505b5050505050505b565b7f4c6f616465643a20596f75206e65656420746f2062652077686974656c69737460008201527f65642e0000000000000000000000000000000000000000000000000000000000602082015250565b60006176e4602383615cae565b91506176ef82617688565b604082019050919050565b60006020820190508181036000830152617713816176d7565b9050919050565b7f6e6f7420617574686f72697a6564207965740000000000000000000000000000600082015250565b6000617750601283615cae565b915061775b8261771a565b602082019050919050565b6000602082019050818103600083015261777f81617743565b9050919050565b7f54797065206e6f74206578697374000000000000000000000000000000000000600082015250565b60006177bc600e83615cae565b91506177c782617786565b602082019050919050565b600060208201905081810360008301526177eb816177af565b9050919050565b7f6e6f6465547970654e616d65206e6f7420657869737400000000000000000000600082015250565b6000617828601683615cae565b9150617833826177f2565b602082019050919050565b600060208201905081810360008301526178578161781b565b9050919050565b7f636f756e74203e20300000000000000000000000000000000000000000000000600082015250565b6000617894600983615cae565b915061789f8261785e565b602082019050919050565b600060208201905081810360008301526178c381617887565b9050919050565b7f4d6178204e6f6465205469657220737570706c79207265616368650000000000600082015250565b6000617900601b83615cae565b915061790b826178ca565b602082019050919050565b6000602082019050818103600083015261792f816178f3565b9050919050565b61793f82615ca3565b67ffffffffffffffff81111561795857617957615a0c565b5b6179628254616b08565b61796d828285617513565b600060209050601f8311600181146179a0576000841561798e578287015190505b6179988582617584565b865550617a00565b601f1984166179ae866173f4565b60005b828110156179d6578489015182556001820191506020850194506020810190506179b1565b868310156179f357848901516179ef601f891682617566565b8355505b6001600288020188555050505b505050505050565b60006040820190508181036000830152617a228185615ce9565b9050617a3160208301846159c7565b9392505050565b6000604082019050617a4d600083018561677a565b617a5a60208301846159c7565b9392505050565b600081519050617a7081616308565b92915050565b600060208284031215617a8c57617a8b615928565b5b6000617a9a84828501617a61565b91505092915050565b7f45524332303a2064656372656173656420616c6c6f77616e63652062656c6f7760008201527f207a65726f000000000000000000000000000000000000000000000000000000602082015250565b6000617aff602583615cae565b9150617b0a82617aa3565b604082019050919050565b60006020820190508181036000830152617b2e81617af2565b9050919050565b7f646f6573206e6f74206578697374000000000000000000000000000000000000600082015250565b6000617b6b600e83615cae565b9150617b7682617b35565b602082019050919050565b60006020820190508181036000830152617b9a81617b5e565b9050919050565b7f4e616d6520496e76616c69640000000000000000000000000000000000000000600082015250565b6000617bd7600c83615cae565b9150617be282617ba1565b602082019050919050565b60006020820190508181036000830152617c0681617bca565b9050919050565b7f4e6f64655479706520496e76616c696400000000000000000000000000000000600082015250565b6000617c43601083615cae565b9150617c4e82617c0d565b602082019050919050565b60006020820190508181036000830152617c7281617c36565b9050919050565b7f4f6e6c792053656e747279000000000000000000000000000000000000000000600082015250565b6000617caf600b83615cae565b9150617cba82617c79565b602082019050919050565b60006020820190508181036000830152617cde81617ca2565b9050919050565b7f45524332303a20617070726f76652066726f6d20746865207a65726f2061646460008201527f7265737300000000000000000000000000000000000000000000000000000000602082015250565b6000617d41602483615cae565b9150617d4c82617ce5565b604082019050919050565b60006020820190508181036000830152617d7081617d34565b9050919050565b7f45524332303a20617070726f766520746f20746865207a65726f20616464726560008201527f7373000000000000000000000000000000000000000000000000000000000000602082015250565b6000617dd3602283615cae565b9150617dde82617d77565b604082019050919050565b60006020820190508181036000830152617e0281617dc6565b9050919050565b7f45524332303a20696e73756666696369656e7420616c6c6f77616e6365000000600082015250565b6000617e3f601d83615cae565b9150617e4a82617e09565b602082019050919050565b60006020820190508181036000830152617e6e81617e32565b9050919050565b7f45524332303a207472616e736665722066726f6d20746865207a65726f20616460008201527f6472657373000000000000000000000000000000000000000000000000000000602082015250565b6000617ed1602583615cae565b9150617edc82617e75565b604082019050919050565b60006020820190508181036000830152617f0081617ec4565b9050919050565b7f45524332303a207472616e7366657220746f20746865207a65726f206164647260008201527f6573730000000000000000000000000000000000000000000000000000000000602082015250565b6000617f63602383615cae565b9150617f6e82617f07565b604082019050919050565b60006020820190508181036000830152617f9281617f56565b9050919050565b7f45524332303a207472616e7366657220616d6f756e742065786365656473206260008201527f616c616e63650000000000000000000000000000000000000000000000000000602082015250565b6000617ff5602683615cae565b915061800082617f99565b604082019050919050565b6000602082019050818103600083015261802481617fe8565b9050919050565b7f4d6178204e6f6465205469657220737570706c79207265616368656400000000600082015250565b6000618061601c83615cae565b915061806c8261802b565b602082019050919050565b6000602082019050818103600083015261809081618054565b9050919050565b7f4e487b7100000000000000000000000000000000000000000000000000000000600052601260045260246000fd5b60006180d1826159bd565b91506180dc836159bd565b9250826180ec576180eb618097565b5b82820490509291505056fea26469706673582212201ceaf974d1da89586148a9558319fd4bfe62d73f0cd56f157763aa37f1fb672664736f6c63430008110033",
  "linkReferences": {
    "contracts/IterableNodeTypeMapping.sol": {
      "IterableNodeTypeMapping": [
        {
          "length": 20,
          "start": 3387
        },
        {
          "length": 20,
          "start": 3517
        },
        {
          "length": 20,
          "start": 4194
        },
        {
          "length": 20,
          "start": 5688
        },
        {
          "length": 20,
          "start": 5818
        },
        {
          "length": 20,
          "start": 6390
        },
        {
          "length": 20,
          "start": 6726
        },
        {
          "length": 20,
          "start": 7534
        },
        {
          "length": 20,
          "start": 8540
        },
        {
          "length": 20,
          "start": 8701
        },
        {
          "length": 20,
          "start": 8949
        },
        {
          "length": 20,
          "start": 9079
        },
        {
          "length": 20,
          "start": 9660
        },
        {
          "length": 20,
          "start": 10188
        },
        {
          "length": 20,
          "start": 10318
        },
        {
          "length": 20,
          "start": 12764
        },
        {
          "length": 20,
          "start": 14066
        },
        {
          "length": 20,
          "start": 14196
        },
        {
          "length": 20,
          "start": 14602
        },
        {
          "length": 20,
          "start": 15032
        },
        {
          "length": 20,
          "start": 15665
        },
        {
          "length": 20,
          "start": 16458
        },
        {
          "length": 20,
          "start": 16602
        },
        {
          "length": 20,
          "start": 18660
        },
        {
          "length": 20,
          "start": 19209
        },
        {
          "length": 20,
          "start": 19386
        },
        {
          "length": 20,
          "start": 21683
        }
      ]
    }
  },
  "deployedLinkReferences": {
    "contracts/IterableNodeTypeMapping.sol": {
      "IterableNodeTypeMapping": [
        {
          "length": 20,
          "start": 3353
        },
        {
          "length": 20,
          "start": 3483
        },
        {
          "length": 20,
          "start": 4160
        },
        {
          "length": 20,
          "start": 5654
        },
        {
          "length": 20,
          "start": 5784
        },
        {
          "length": 20,
          "start": 6356
        },
        {
          "length": 20,
          "start": 6692
        },
        {
          "length": 20,
          "start": 7500
        },
        {
          "length": 20,
          "start": 8506
        },
        {
          "length": 20,
          "start": 8667
        },
        {
          "length": 20,
          "start": 8915
        },
        {
          "length": 20,
          "start": 9045
        },
        {
          "length": 20,
          "start": 9626
        },
        {
          "length": 20,
          "start": 10154
        },
        {
          "length": 20,
          "start": 10284
        },
        {
          "length": 20,
          "start": 12730
        },
        {
          "length": 20,
          "start": 14032
        },
        {
          "length": 20,
          "start": 14162
        },
        {
          "length": 20,
          "start": 14568
        },
        {
          "length": 20,
          "start": 14998
        },
        {
          "length": 20,
          "start": 15631
        },
        {
          "length": 20,
          "start": 16424
        },
        {
          "length": 20,
          "start": 16568
        },
        {
          "length": 20,
          "start": 18626
        },
        {
          "length": 20,
          "start": 19175
        },
        {
          "length": 20,
          "start": 19352
        },
        {
          "length": 20,
          "start": 21649
        }
      ]
    }
  }
}