{
  "_format": "hh-sol-artifact-1",
  "contractName": "APLPresale",
  "sourceName": "contracts/PresaleSig.sol",
  "abi": [
    {
      "inputs": [
        {
          "internalType": "contract IERC20",
          "name": "_token",
          "type": "address"
        },
        {
          "internalType": "uint256",
          "name": "_presaleSupply",
          "type": "uint256"
        }
      ],
      "stateMutability": "nonpayable",
      "type": "constructor"
    },
    {
      "anonymous": false,
      "inputs": [
        {
          "indexed": true,
          "internalType": "address",
          "name": "previousOwner",
          "type": "address"
        },
        {
          "indexed": true,
          "internalType": "address",
          "name": "newOwner",
          "type": "address"
        }
      ],
      "name": "OwnershipTransferred",
      "type": "event"
    },
    {
      "anonymous": false,
      "inputs": [
        {
          "indexed": true,
          "internalType": "address",
          "name": "purchaser",
          "type": "address"
        },
        {
          "indexed": false,
          "internalType": "uint256",
          "name": "value",
          "type": "uint256"
        },
        {
          "indexed": false,
          "internalType": "uint256",
          "name": "amount",
          "type": "uint256"
        }
      ],
      "name": "TokensPurchased",
      "type": "event"
    },
    {
      "anonymous": false,
      "inputs": [
        {
          "indexed": true,
          "internalType": "address",
          "name": "beneficiary",
          "type": "address"
        },
        {
          "indexed": false,
          "internalType": "uint256",
          "name": "amount",
          "type": "uint256"
        }
      ],
      "name": "TokensWithdrawn",
      "type": "event"
    },
    {
      "inputs": [],
      "name": "DAILY_WITHDRAWAL_PERCENTAGE",
      "outputs": [
        {
          "internalType": "uint256",
          "name": "",
          "type": "uint256"
        }
      ],
      "stateMutability": "view",
      "type": "function"
    },
    {
      "inputs": [],
      "name": "FIRST_DAY_WITHDRAWAL_PERCENTAGE",
      "outputs": [
        {
          "internalType": "uint256",
          "name": "",
          "type": "uint256"
        }
      ],
      "stateMutability": "view",
      "type": "function"
    },
    {
      "inputs": [],
      "name": "SECONDS_PER_DAY",
      "outputs": [
        {
          "internalType": "uint256",
          "name": "",
          "type": "uint256"
        }
      ],
      "stateMutability": "view",
      "type": "function"
    },
    {
      "inputs": [
        {
          "internalType": "address[]",
          "name": "beneficiaries",
          "type": "address[]"
        }
      ],
      "name": "addToWhitelist",
      "outputs": [],
      "stateMutability": "nonpayable",
      "type": "function"
    },
    {
      "inputs": [
        {
          "internalType": "uint256",
          "name": "_amount",
          "type": "uint256"
        }
      ],
      "name": "buyTokens",
      "outputs": [],
      "stateMutability": "payable",
      "type": "function"
    },
    {
      "inputs": [
        {
          "internalType": "uint256",
          "name": "_amount",
          "type": "uint256"
        }
      ],
      "name": "buyTokensPublic",
      "outputs": [],
      "stateMutability": "payable",
      "type": "function"
    },
    {
      "inputs": [
        {
          "internalType": "address",
          "name": "beneficiary",
          "type": "address"
        }
      ],
      "name": "calculateAmountWithdrawn",
      "outputs": [
        {
          "internalType": "uint256",
          "name": "",
          "type": "uint256"
        }
      ],
      "stateMutability": "view",
      "type": "function"
    },
    {
      "inputs": [
        {
          "internalType": "uint256",
          "name": "value",
          "type": "uint256"
        }
      ],
      "name": "changeRemainingSupply",
      "outputs": [],
      "stateMutability": "nonpayable",
      "type": "function"
    },
    {
      "inputs": [
        {
          "internalType": "uint256",
          "name": "amount",
          "type": "uint256"
        }
      ],
      "name": "emergencyWithdraw",
      "outputs": [],
      "stateMutability": "nonpayable",
      "type": "function"
    },
    {
      "inputs": [
        {
          "internalType": "address",
          "name": "beneficiary",
          "type": "address"
        }
      ],
      "name": "getVestedAmount",
      "outputs": [
        {
          "internalType": "uint256",
          "name": "",
          "type": "uint256"
        }
      ],
      "stateMutability": "view",
      "type": "function"
    },
    {
      "inputs": [
        {
          "internalType": "address",
          "name": "beneficiary",
          "type": "address"
        }
      ],
      "name": "getVestingInfo",
      "outputs": [
        {
          "internalType": "uint256",
          "name": "amountWithdrawn",
          "type": "uint256"
        },
        {
          "internalType": "uint256",
          "name": "amountVested",
          "type": "uint256"
        },
        {
          "internalType": "uint256",
          "name": "lastWithdrawTime",
          "type": "uint256"
        }
      ],
      "stateMutability": "view",
      "type": "function"
    },
    {
      "inputs": [
        {
          "internalType": "address",
          "name": "beneficiary",
          "type": "address"
        }
      ],
      "name": "getWithdrawnAmount",
      "outputs": [
        {
          "internalType": "uint256",
          "name": "",
          "type": "uint256"
        }
      ],
      "stateMutability": "view",
      "type": "function"
    },
    {
      "inputs": [],
      "name": "owner",
      "outputs": [
        {
          "internalType": "address",
          "name": "",
          "type": "address"
        }
      ],
      "stateMutability": "view",
      "type": "function"
    },
    {
      "inputs": [],
      "name": "ownerContact",
      "outputs": [
        {
          "internalType": "address",
          "name": "",
          "type": "address"
        }
      ],
      "stateMutability": "view",
      "type": "function"
    },
    {
      "inputs": [],
      "name": "percentRate",
      "outputs": [
        {
          "internalType": "uint256",
          "name": "",
          "type": "uint256"
        }
      ],
      "stateMutability": "view",
      "type": "function"
    },
    {
      "inputs": [],
      "name": "presalePrice",
      "outputs": [
        {
          "internalType": "uint256",
          "name": "",
          "type": "uint256"
        }
      ],
      "stateMutability": "view",
      "type": "function"
    },
    {
      "inputs": [],
      "name": "presaleSupply",
      "outputs": [
        {
          "internalType": "uint256",
          "name": "",
          "type": "uint256"
        }
      ],
      "stateMutability": "view",
      "type": "function"
    },
    {
      "inputs": [],
      "name": "remainingSupply",
      "outputs": [
        {
          "internalType": "uint256",
          "name": "",
          "type": "uint256"
        }
      ],
      "stateMutability": "view",
      "type": "function"
    },
    {
      "inputs": [
        {
          "internalType": "address[]",
          "name": "beneficiaries",
          "type": "address[]"
        }
      ],
      "name": "removeFromWhitelist",
      "outputs": [],
      "stateMutability": "nonpayable",
      "type": "function"
    },
    {
      "inputs": [],
      "name": "renounceOwnership",
      "outputs": [],
      "stateMutability": "nonpayable",
      "type": "function"
    },
    {
      "inputs": [],
      "name": "saleStatus",
      "outputs": [
        {
          "internalType": "bool",
          "name": "",
          "type": "bool"
        }
      ],
      "stateMutability": "view",
      "type": "function"
    },
    {
      "inputs": [
        {
          "internalType": "uint256",
          "name": "amount",
          "type": "uint256"
        },
        {
          "internalType": "uint256",
          "name": "bps",
          "type": "uint256"
        }
      ],
      "name": "setRate",
      "outputs": [],
      "stateMutability": "nonpayable",
      "type": "function"
    },
    {
      "inputs": [
        {
          "internalType": "bool",
          "name": "_value",
          "type": "bool"
        }
      ],
      "name": "setSaleStatus",
      "outputs": [],
      "stateMutability": "nonpayable",
      "type": "function"
    },
    {
      "inputs": [
        {
          "internalType": "contract IERC20",
          "name": "tokenAddr",
          "type": "address"
        }
      ],
      "name": "setToken",
      "outputs": [],
      "stateMutability": "nonpayable",
      "type": "function"
    },
    {
      "inputs": [],
      "name": "token",
      "outputs": [
        {
          "internalType": "contract IERC20",
          "name": "",
          "type": "address"
        }
      ],
      "stateMutability": "view",
      "type": "function"
    },
    {
      "inputs": [
        {
          "internalType": "address",
          "name": "newOwner",
          "type": "address"
        }
      ],
      "name": "transferOwnership",
      "outputs": [],
      "stateMutability": "nonpayable",
      "type": "function"
    },
    {
      "inputs": [
        {
          "internalType": "address",
          "name": "",
          "type": "address"
        }
      ],
      "name": "vestingCompleted",
      "outputs": [
        {
          "internalType": "bool",
          "name": "",
          "type": "bool"
        }
      ],
      "stateMutability": "view",
      "type": "function"
    },
    {
      "inputs": [
        {
          "internalType": "address",
          "name": "",
          "type": "address"
        }
      ],
      "name": "vestingInfo",
      "outputs": [
        {
          "internalType": "uint256",
          "name": "amountVested",
          "type": "uint256"
        },
        {
          "internalType": "uint256",
          "name": "amountWithdrawn",
          "type": "uint256"
        },
        {
          "internalType": "uint256",
          "name": "lastWithdrawTime",
          "type": "uint256"
        },
        {
          "internalType": "uint256",
          "name": "timeElapsed",
          "type": "uint256"
        }
      ],
      "stateMutability": "view",
      "type": "function"
    },
    {
      "inputs": [
        {
          "internalType": "address",
          "name": "",
          "type": "address"
        }
      ],
      "name": "whitelist",
      "outputs": [
        {
          "internalType": "bool",
          "name": "",
          "type": "bool"
        }
      ],
      "stateMutability": "view",
      "type": "function"
    },
    {
      "inputs": [
        {
          "internalType": "uint256",
          "name": "_amount",
          "type": "uint256"
        }
      ],
      "name": "withdrawEther",
      "outputs": [],
      "stateMutability": "nonpayable",
      "type": "function"
    },
    {
      "inputs": [],
      "name": "withdrawTokens",
      "outputs": [],
      "stateMutability": "nonpayable",
      "type": "function"
    },
    {
      "inputs": [
        {
          "internalType": "address",
          "name": "",
          "type": "address"
        }
      ],
      "name": "withdrawn",
      "outputs": [
        {
          "internalType": "uint256",
          "name": "",
          "type": "uint256"
        }
      ],
      "stateMutability": "view",
      "type": "function"
    }
  ],
  "bytecode": "0x608060405266038d7ea4c68000600b553480156200001c57600080fd5b50604051620036fe380380620036fe833981810160405281019062000042919062000337565b6200006262000056620001b260201b60201c565b620001ba60201b60201c565b600073ffffffffffffffffffffffffffffffffffffffff168273ffffffffffffffffffffffffffffffffffffffff1603620000d4576040517f08c379a0000000000000000000000000000000000000000000000000000000008152600401620000cb90620003df565b60405180910390fd5b600081116200011a576040517f08c379a0000000000000000000000000000000000000000000000000000000008152600401620001119062000451565b60405180910390fd5b81600160006101000a81548173ffffffffffffffffffffffffffffffffffffffff021916908373ffffffffffffffffffffffffffffffffffffffff16021790555033600260006101000a81548173ffffffffffffffffffffffffffffffffffffffff021916908373ffffffffffffffffffffffffffffffffffffffff1602179055508060048190555080600581905550505062000473565b600033905090565b60008060009054906101000a900473ffffffffffffffffffffffffffffffffffffffff169050816000806101000a81548173ffffffffffffffffffffffffffffffffffffffff021916908373ffffffffffffffffffffffffffffffffffffffff1602179055508173ffffffffffffffffffffffffffffffffffffffff168173ffffffffffffffffffffffffffffffffffffffff167f8be0079c531659141344cd1fd0a4f28419497f9722a3daafe3b4186f6b6457e060405160405180910390a35050565b600080fd5b600073ffffffffffffffffffffffffffffffffffffffff82169050919050565b6000620002b08262000283565b9050919050565b6000620002c482620002a3565b9050919050565b620002d681620002b7565b8114620002e257600080fd5b50565b600081519050620002f681620002cb565b92915050565b6000819050919050565b6200031181620002fc565b81146200031d57600080fd5b50565b600081519050620003318162000306565b92915050565b600080604083850312156200035157620003506200027e565b5b60006200036185828601620002e5565b9250506020620003748582860162000320565b9150509250929050565b600082825260208201905092915050565b7f496e76616c696420746f6b656e20616464726573730000000000000000000000600082015250565b6000620003c76015836200037e565b9150620003d4826200038f565b602082019050919050565b60006020820190508181036000830152620003fa81620003b8565b9050919050565b7f496e76616c69642070726573616c6520737570706c7900000000000000000000600082015250565b6000620004396016836200037e565b9150620004468262000401565b602082019050919050565b600060208201905081810360008301526200046c816200042a565b9050919050565b61327b80620004836000396000f3fe6080604052600436106101e25760003560e01c80637f64978311610102578063d5a73fdd11610095578063f78e633d11610064578063f78e633d146106af578063f9020e33146106ef578063fb897ce41461071a578063fc0c546a14610759576101e2565b8063d5a73fdd146105f5578063d897833e14610632578063da0239a61461065b578063f2fde38b14610686576101e2565b80639b19251a116100d15780639b19251a14610534578063b3a196e914610571578063bd30403b1461059c578063cfe55f4f146105d9576101e2565b80637f6497831461049e5780638090114f146104c75780638d8f2adb146104f25780638da5cb5b14610509576101e2565b8063540b94d01161017a578063709445f411610149578063709445f4146103f4578063715018a61461043157806374f0314f1461044857806375b86ff014610473576101e2565b8063540b94d01461033a578063548db174146103655780636d171f0e1461038e5780636ef61092146103b7576101e2565b80633610724e116101b65780633610724e146102a35780633bed33ce146102bf57806346df2ccb146102e85780635312ea8e14610311576101e2565b80620e7fa8146101e7578063144fa6d71461021257806318d5a3281461023b5780632d70715d14610266575b600080fd5b3480156101f357600080fd5b506101fc610784565b60405161020991906121ee565b60405180910390f35b34801561021e57600080fd5b5061023960048036038101906102349190612283565b61078a565b005b34801561024757600080fd5b506102506107d6565b60405161025d91906122bf565b60405180910390f35b34801561027257600080fd5b5061028d60048036038101906102889190612306565b6107fc565b60405161029a91906121ee565b60405180910390f35b6102bd60048036038101906102b8919061235f565b610848565b005b3480156102cb57600080fd5b506102e660048036038101906102e1919061235f565b610ae2565b005b3480156102f457600080fd5b5061030f600480360381019061030a919061238c565b610b9a565b005b34801561031d57600080fd5b506103386004803603810190610333919061235f565b610bbd565b005b34801561034657600080fd5b5061034f610ca5565b60405161035c91906121ee565b60405180910390f35b34801561037157600080fd5b5061038c60048036038101906103879190612431565b610caa565b005b34801561039a57600080fd5b506103b560048036038101906103b0919061235f565b610de7565b005b3480156103c357600080fd5b506103de60048036038101906103d99190612306565b610df1565b6040516103eb91906121ee565b60405180910390f35b34801561040057600080fd5b5061041b60048036038101906104169190612306565b610e09565b6040516104289190612499565b60405180910390f35b34801561043d57600080fd5b50610446610e29565b005b34801561045457600080fd5b5061045d610e3d565b60405161046a91906121ee565b60405180910390f35b34801561047f57600080fd5b50610488610e44565b60405161049591906121ee565b60405180910390f35b3480156104aa57600080fd5b506104c560048036038101906104c09190612431565b610e49565b005b3480156104d357600080fd5b506104dc610f86565b6040516104e991906121ee565b60405180910390f35b3480156104fe57600080fd5b50610507610f8c565b005b34801561051557600080fd5b5061051e6115ab565b60405161052b91906122bf565b60405180910390f35b34801561054057600080fd5b5061055b60048036038101906105569190612306565b6115d4565b6040516105689190612499565b60405180910390f35b34801561057d57600080fd5b506105866115f4565b60405161059391906121ee565b60405180910390f35b3480156105a857600080fd5b506105c360048036038101906105be9190612306565b6115fa565b6040516105d091906121ee565b60405180910390f35b6105f360048036038101906105ee919061235f565b6117f5565b005b34801561060157600080fd5b5061061c60048036038101906106179190612306565b611a52565b60405161062991906121ee565b60405180910390f35b34801561063e57600080fd5b50610659600480360381019061065491906124e0565b611a9e565b005b34801561066757600080fd5b50610670611ac3565b60405161067d91906121ee565b60405180910390f35b34801561069257600080fd5b506106ad60048036038101906106a89190612306565b611ac9565b005b3480156106bb57600080fd5b506106d660048036038101906106d19190612306565b611b4c565b6040516106e6949392919061250d565b60405180910390f35b3480156106fb57600080fd5b50610704611b7c565b6040516107119190612499565b60405180910390f35b34801561072657600080fd5b50610741600480360381019061073c9190612306565b611b8f565b60405161075093929190612552565b60405180910390f35b34801561076557600080fd5b5061076e611c6a565b60405161077b91906125e8565b60405180910390f35b600b5481565b610792611c90565b80600160006101000a81548173ffffffffffffffffffffffffffffffffffffffff021916908373ffffffffffffffffffffffffffffffffffffffff16021790555050565b600260009054906101000a900473ffffffffffffffffffffffffffffffffffffffff1681565b6000600a60008373ffffffffffffffffffffffffffffffffffffffff1673ffffffffffffffffffffffffffffffffffffffff168152602001908152602001600020600101549050919050565b600760003373ffffffffffffffffffffffffffffffffffffffff1673ffffffffffffffffffffffffffffffffffffffff16815260200190815260200160002060009054906101000a900460ff166108d4576040517f08c379a00000000000000000000000000000000000000000000000000000000081526004016108cb90612660565b60405180910390fd5b60008111610917576040517f08c379a000000000000000000000000000000000000000000000000000000000815260040161090e906126cc565b60405180910390fd5b6000610934670de0b6b3a764000083611d0e90919063ffffffff16565b9050600061094d600b5483611d2490919063ffffffff16565b905080341015610992576040517f08c379a000000000000000000000000000000000000000000000000000000000815260040161098990612738565b60405180910390fd5b6005548311156109d7576040517f08c379a00000000000000000000000000000000000000000000000000000000081526004016109ce906127a4565b60405180910390fd5b6109ec83600554611d3a90919063ffffffff16565b600581905550610a4783600a60003373ffffffffffffffffffffffffffffffffffffffff1673ffffffffffffffffffffffffffffffffffffffff16815260200190815260200160002060000154611d5090919063ffffffff16565b600a60003373ffffffffffffffffffffffffffffffffffffffff1673ffffffffffffffffffffffffffffffffffffffff168152602001908152602001600020600001819055503373ffffffffffffffffffffffffffffffffffffffff167f8fafebcaf9d154343dad25669bfa277f4fbacd7ac6b0c4fed522580e040a0f338485604051610ad59291906127c4565b60405180910390a2505050565b610aea611c90565b60003373ffffffffffffffffffffffffffffffffffffffff1682604051610b109061281e565b60006040518083038185875af1925050503d8060008114610b4d576040519150601f19603f3d011682016040523d82523d6000602084013e610b52565b606091505b5050905080610b96576040517f08c379a0000000000000000000000000000000000000000000000000000000008152600401610b8d9061287f565b60405180910390fd5b5050565b6127108183610ba991906128ce565b610bb3919061293f565b6003819055505050565b610bc5611c90565b600260009054906101000a900473ffffffffffffffffffffffffffffffffffffffff1673ffffffffffffffffffffffffffffffffffffffff163373ffffffffffffffffffffffffffffffffffffffff1614610c55576040517f08c379a0000000000000000000000000000000000000000000000000000000008152600401610c4c906129e2565b60405180910390fd5b610ca23382600160009054906101000a900473ffffffffffffffffffffffffffffffffffffffff1673ffffffffffffffffffffffffffffffffffffffff16611d669092919063ffffffff16565b50565b600e81565b610cb2611c90565b600260009054906101000a900473ffffffffffffffffffffffffffffffffffffffff1673ffffffffffffffffffffffffffffffffffffffff163373ffffffffffffffffffffffffffffffffffffffff1614610d42576040517f08c379a0000000000000000000000000000000000000000000000000000000008152600401610d3990612a74565b60405180910390fd5b60005b82829050811015610de257600060076000858585818110610d6957610d68612a94565b5b9050602002016020810190610d7e9190612306565b73ffffffffffffffffffffffffffffffffffffffff1673ffffffffffffffffffffffffffffffffffffffff16815260200190815260200160002060006101000a81548160ff0219169083151502179055508080610dda90612ac3565b915050610d45565b505050565b8060058190555050565b60096020528060005260406000206000915090505481565b60086020528060005260406000206000915054906101000a900460ff1681565b610e31611c90565b610e3b6000611dec565b565b6201518081565b600f81565b610e51611c90565b600260009054906101000a900473ffffffffffffffffffffffffffffffffffffffff1673ffffffffffffffffffffffffffffffffffffffff163373ffffffffffffffffffffffffffffffffffffffff1614610ee1576040517f08c379a0000000000000000000000000000000000000000000000000000000008152600401610ed890612b7d565b60405180910390fd5b60005b82829050811015610f8157600160076000858585818110610f0857610f07612a94565b5b9050602002016020810190610f1d9190612306565b73ffffffffffffffffffffffffffffffffffffffff1673ffffffffffffffffffffffffffffffffffffffff16815260200190815260200160002060006101000a81548160ff0219169083151502179055508080610f7990612ac3565b915050610ee4565b505050565b60035481565b6000600a60003373ffffffffffffffffffffffffffffffffffffffff1673ffffffffffffffffffffffffffffffffffffffff1681526020019081526020016000206000015411611011576040517f08c379a000000000000000000000000000000000000000000000000000000000815260040161100890612be9565b60405180910390fd5b600860003373ffffffffffffffffffffffffffffffffffffffff1673ffffffffffffffffffffffffffffffffffffffff16815260200190815260200160002060009054906101000a900460ff161561109e576040517f08c379a000000000000000000000000000000000000000000000000000000000815260040161109590612c55565b60405180910390fd5b60006110a9336115fa565b90506000600a60003373ffffffffffffffffffffffffffffffffffffffff1673ffffffffffffffffffffffffffffffffffffffff16815260200190815260200160002060010154905060008211611135576040517f08c379a000000000000000000000000000000000000000000000000000000000815260040161112c90612cc1565b60405180910390fd5b600a60003373ffffffffffffffffffffffffffffffffffffffff1673ffffffffffffffffffffffffffffffffffffffff168152602001908152602001600020600001548211156111ba576040517f08c379a00000000000000000000000000000000000000000000000000000000081526004016111b190612d2d565b60405180910390fd5b600160009054906101000a900473ffffffffffffffffffffffffffffffffffffffff1673ffffffffffffffffffffffffffffffffffffffff1663095ea7b330846040518363ffffffff1660e01b8152600401611217929190612d4d565b6020604051808303816000875af1158015611236573d6000803e3d6000fd5b505050506040513d601f19601f8201168201806040525081019061125a9190612d8b565b50600a60003373ffffffffffffffffffffffffffffffffffffffff1673ffffffffffffffffffffffffffffffffffffffff168152602001908152602001600020600001546112b18383611d5090919063ffffffff16565b11156112f2576040517f08c379a00000000000000000000000000000000000000000000000000000000081526004016112e990612d2d565b60405180910390fd5b600160009054906101000a900473ffffffffffffffffffffffffffffffffffffffff1673ffffffffffffffffffffffffffffffffffffffff1663095ea7b330846040518363ffffffff1660e01b815260040161134f929190612d4d565b6020604051808303816000875af115801561136e573d6000803e3d6000fd5b505050506040513d601f19601f820116820180604052508101906113929190612d8b565b506113e882600a60003373ffffffffffffffffffffffffffffffffffffffff1673ffffffffffffffffffffffffffffffffffffffff16815260200190815260200160002060010154611d5090919063ffffffff16565b600a60003373ffffffffffffffffffffffffffffffffffffffff1673ffffffffffffffffffffffffffffffffffffffff1681526020019081526020016000206001018190555061148082600960003373ffffffffffffffffffffffffffffffffffffffff1673ffffffffffffffffffffffffffffffffffffffff16815260200190815260200160002054611d5090919063ffffffff16565b600960003373ffffffffffffffffffffffffffffffffffffffff1673ffffffffffffffffffffffffffffffffffffffff1681526020019081526020016000208190555042600a60003373ffffffffffffffffffffffffffffffffffffffff1673ffffffffffffffffffffffffffffffffffffffff16815260200190815260200160002060020181905550611559303384600160009054906101000a900473ffffffffffffffffffffffffffffffffffffffff1673ffffffffffffffffffffffffffffffffffffffff16611eb0909392919063ffffffff16565b3373ffffffffffffffffffffffffffffffffffffffff167f6352c5382c4a4578e712449ca65e83cdb392d045dfcf1cad9615189db2da244b8360405161159f91906121ee565b60405180910390a25050565b60008060009054906101000a900473ffffffffffffffffffffffffffffffffffffffff16905090565b60076020528060005260406000206000915054906101000a900460ff1681565b60045481565b600080600a60008473ffffffffffffffffffffffffffffffffffffffff1673ffffffffffffffffffffffffffffffffffffffff1681526020019081526020016000206000015490506000600a60008573ffffffffffffffffffffffffffffffffffffffff1673ffffffffffffffffffffffffffffffffffffffff1681526020019081526020016000206001015490506000600a60008673ffffffffffffffffffffffffffffffffffffffff1673ffffffffffffffffffffffffffffffffffffffff168152602001908152602001600020600201549050600082846116de9190612db8565b905060006116f58342611d3a90919063ffffffff16565b905060008303611732576117266064611718600f88611d2490919063ffffffff16565b611d0e90919063ffffffff16565b955050505050506117f0565b600061174a6201518083611d0e90919063ffffffff16565b9050600181101561176457600096505050505050506117f0565b600061177a82600e611d2490919063ffffffff16565b905060006117a46064611796848b611d2490919063ffffffff16565b611d0e90919063ffffffff16565b9050846117bb600a83611d0e90919063ffffffff16565b11156117d15784985050505050505050506117f0565b6117e5600a82611d0e90919063ffffffff16565b985050505050505050505b919050565b600660009054906101000a900460ff16611844576040517f08c379a000000000000000000000000000000000000000000000000000000000815260040161183b90612e38565b60405180910390fd5b60008111611887576040517f08c379a000000000000000000000000000000000000000000000000000000000815260040161187e906126cc565b60405180910390fd5b60006118a4670de0b6b3a764000083611d0e90919063ffffffff16565b905060006118bd600b5483611d2490919063ffffffff16565b905080341015611902576040517f08c379a00000000000000000000000000000000000000000000000000000000081526004016118f990612738565b60405180910390fd5b600554831115611947576040517f08c379a000000000000000000000000000000000000000000000000000000000815260040161193e906127a4565b60405180910390fd5b61195c83600554611d3a90919063ffffffff16565b6005819055506119b783600a60003373ffffffffffffffffffffffffffffffffffffffff1673ffffffffffffffffffffffffffffffffffffffff16815260200190815260200160002060000154611d5090919063ffffffff16565b600a60003373ffffffffffffffffffffffffffffffffffffffff1673ffffffffffffffffffffffffffffffffffffffff168152602001908152602001600020600001819055503373ffffffffffffffffffffffffffffffffffffffff167f8fafebcaf9d154343dad25669bfa277f4fbacd7ac6b0c4fed522580e040a0f338485604051611a459291906127c4565b60405180910390a2505050565b6000600a60008373ffffffffffffffffffffffffffffffffffffffff1673ffffffffffffffffffffffffffffffffffffffff168152602001908152602001600020600001549050919050565b611aa6611c90565b80600660006101000a81548160ff02191690831515021790555050565b60055481565b611ad1611c90565b600073ffffffffffffffffffffffffffffffffffffffff168173ffffffffffffffffffffffffffffffffffffffff1603611b40576040517f08c379a0000000000000000000000000000000000000000000000000000000008152600401611b3790612eca565b60405180910390fd5b611b4981611dec565b50565b600a6020528060005260406000206000915090508060000154908060010154908060020154908060030154905084565b600660009054906101000a900460ff1681565b6000806000600a60008573ffffffffffffffffffffffffffffffffffffffff1673ffffffffffffffffffffffffffffffffffffffff168152602001908152602001600020600101549250600a60008573ffffffffffffffffffffffffffffffffffffffff1673ffffffffffffffffffffffffffffffffffffffff168152602001908152602001600020600001549150600a60008573ffffffffffffffffffffffffffffffffffffffff1673ffffffffffffffffffffffffffffffffffffffff1681526020019081526020016000206002015490509193909250565b600160009054906101000a900473ffffffffffffffffffffffffffffffffffffffff1681565b611c98611f39565b73ffffffffffffffffffffffffffffffffffffffff16611cb66115ab565b73ffffffffffffffffffffffffffffffffffffffff1614611d0c576040517f08c379a0000000000000000000000000000000000000000000000000000000008152600401611d0390612f36565b60405180910390fd5b565b60008183611d1c919061293f565b905092915050565b60008183611d3291906128ce565b905092915050565b60008183611d489190612db8565b905092915050565b60008183611d5e9190612f56565b905092915050565b611de78363a9059cbb60e01b8484604051602401611d85929190612d4d565b604051602081830303815290604052907bffffffffffffffffffffffffffffffffffffffffffffffffffffffff19166020820180517bffffffffffffffffffffffffffffffffffffffffffffffffffffffff8381831617835250505050611f41565b505050565b60008060009054906101000a900473ffffffffffffffffffffffffffffffffffffffff169050816000806101000a81548173ffffffffffffffffffffffffffffffffffffffff021916908373ffffffffffffffffffffffffffffffffffffffff1602179055508173ffffffffffffffffffffffffffffffffffffffff168173ffffffffffffffffffffffffffffffffffffffff167f8be0079c531659141344cd1fd0a4f28419497f9722a3daafe3b4186f6b6457e060405160405180910390a35050565b611f33846323b872dd60e01b858585604051602401611ed193929190612f8a565b604051602081830303815290604052907bffffffffffffffffffffffffffffffffffffffffffffffffffffffff19166020820180517bffffffffffffffffffffffffffffffffffffffffffffffffffffffff8381831617835250505050611f41565b50505050565b600033905090565b6000611fa3826040518060400160405280602081526020017f5361666545524332303a206c6f772d6c6576656c2063616c6c206661696c65648152508573ffffffffffffffffffffffffffffffffffffffff166120089092919063ffffffff16565b90506000815111156120035780806020019051810190611fc39190612d8b565b612002576040517f08c379a0000000000000000000000000000000000000000000000000000000008152600401611ff990613033565b60405180910390fd5b5b505050565b60606120178484600085612020565b90509392505050565b606082471015612065576040517f08c379a000000000000000000000000000000000000000000000000000000000815260040161205c906130c5565b60405180910390fd5b6000808673ffffffffffffffffffffffffffffffffffffffff16858760405161208e919061314b565b60006040518083038185875af1925050503d80600081146120cb576040519150601f19603f3d011682016040523d82523d6000602084013e6120d0565b606091505b50915091506120e1878383876120ed565b92505050949350505050565b6060831561214f5760008351036121475761210785612162565b612146576040517f08c379a000000000000000000000000000000000000000000000000000000000815260040161213d906131ae565b60405180910390fd5b5b82905061215a565b6121598383612185565b5b949350505050565b6000808273ffffffffffffffffffffffffffffffffffffffff163b119050919050565b6000825111156121985781518083602001fd5b806040517f08c379a00000000000000000000000000000000000000000000000000000000081526004016121cc9190613223565b60405180910390fd5b6000819050919050565b6121e8816121d5565b82525050565b600060208201905061220360008301846121df565b92915050565b600080fd5b600080fd5b600073ffffffffffffffffffffffffffffffffffffffff82169050919050565b600061223e82612213565b9050919050565b600061225082612233565b9050919050565b61226081612245565b811461226b57600080fd5b50565b60008135905061227d81612257565b92915050565b60006020828403121561229957612298612209565b5b60006122a78482850161226e565b91505092915050565b6122b981612233565b82525050565b60006020820190506122d460008301846122b0565b92915050565b6122e381612233565b81146122ee57600080fd5b50565b600081359050612300816122da565b92915050565b60006020828403121561231c5761231b612209565b5b600061232a848285016122f1565b91505092915050565b61233c816121d5565b811461234757600080fd5b50565b60008135905061235981612333565b92915050565b60006020828403121561237557612374612209565b5b60006123838482850161234a565b91505092915050565b600080604083850312156123a3576123a2612209565b5b60006123b18582860161234a565b92505060206123c28582860161234a565b9150509250929050565b600080fd5b600080fd5b600080fd5b60008083601f8401126123f1576123f06123cc565b5b8235905067ffffffffffffffff81111561240e5761240d6123d1565b5b60208301915083602082028301111561242a576124296123d6565b5b9250929050565b6000806020838503121561244857612447612209565b5b600083013567ffffffffffffffff8111156124665761246561220e565b5b612472858286016123db565b92509250509250929050565b60008115159050919050565b6124938161247e565b82525050565b60006020820190506124ae600083018461248a565b92915050565b6124bd8161247e565b81146124c857600080fd5b50565b6000813590506124da816124b4565b92915050565b6000602082840312156124f6576124f5612209565b5b6000612504848285016124cb565b91505092915050565b600060808201905061252260008301876121df565b61252f60208301866121df565b61253c60408301856121df565b61254960608301846121df565b95945050505050565b600060608201905061256760008301866121df565b61257460208301856121df565b61258160408301846121df565b949350505050565b6000819050919050565b60006125ae6125a96125a484612213565b612589565b612213565b9050919050565b60006125c082612593565b9050919050565b60006125d2826125b5565b9050919050565b6125e2816125c7565b82525050565b60006020820190506125fd60008301846125d9565b92915050565b600082825260208201905092915050565b7f4e6f742077686974656c69737465640000000000000000000000000000000000600082015250565b600061264a600f83612603565b915061265582612614565b602082019050919050565b600060208201905081810360008301526126798161263d565b9050919050565b7f496e76616c696420616d6f756e74000000000000000000000000000000000000600082015250565b60006126b6600e83612603565b91506126c182612680565b602082019050919050565b600060208201905081810360008301526126e5816126a9565b9050919050565b7f496e73756666696369656e7420616d6f756e742073656e740000000000000000600082015250565b6000612722601883612603565b915061272d826126ec565b602082019050919050565b6000602082019050818103600083015261275181612715565b9050919050565b7f4e6f7420656e6f75676820746f6b656e73206c65667420666f722073616c6500600082015250565b600061278e601f83612603565b915061279982612758565b602082019050919050565b600060208201905081810360008301526127bd81612781565b9050919050565b60006040820190506127d960008301856121df565b6127e660208301846121df565b9392505050565b600081905092915050565b50565b60006128086000836127ed565b9150612813826127f8565b600082019050919050565b6000612829826127fb565b9150819050919050565b7f5769746864726177204661696c65640000000000000000000000000000000000600082015250565b6000612869600f83612603565b915061287482612833565b602082019050919050565b600060208201905081810360008301526128988161285c565b9050919050565b7f4e487b7100000000000000000000000000000000000000000000000000000000600052601160045260246000fd5b60006128d9826121d5565b91506128e4836121d5565b92508282026128f2816121d5565b915082820484148315176129095761290861289f565b5b5092915050565b7f4e487b7100000000000000000000000000000000000000000000000000000000600052601260045260246000fd5b600061294a826121d5565b9150612955836121d5565b92508261296557612964612910565b5b828204905092915050565b7f4f6e6c79206f776e65722063616e20656d657267656e6379207769746864726160008201527f7700000000000000000000000000000000000000000000000000000000000000602082015250565b60006129cc602183612603565b91506129d782612970565b604082019050919050565b600060208201905081810360008301526129fb816129bf565b9050919050565b7f4f6e6c79206f776e6572436f6e746163742063616e2072656d6f76652066726f60008201527f6d2077686974656c697374000000000000000000000000000000000000000000602082015250565b6000612a5e602b83612603565b9150612a6982612a02565b604082019050919050565b60006020820190508181036000830152612a8d81612a51565b9050919050565b7f4e487b7100000000000000000000000000000000000000000000000000000000600052603260045260246000fd5b6000612ace826121d5565b91507fffffffffffffffffffffffffffffffffffffffffffffffffffffffffffffffff8203612b0057612aff61289f565b5b600182019050919050565b7f4f6e6c79206f776e6572436f6e746163742063616e2061646420746f2077686960008201527f74656c6973740000000000000000000000000000000000000000000000000000602082015250565b6000612b67602683612603565b9150612b7282612b0b565b604082019050919050565b60006020820190508181036000830152612b9681612b5a565b9050919050565b7f4e6f20746f6b656e732076657374656400000000000000000000000000000000600082015250565b6000612bd3601083612603565b9150612bde82612b9d565b602082019050919050565b60006020820190508181036000830152612c0281612bc6565b9050919050565b7f56657374696e6720616c726561647920636f6d706c6574656400000000000000600082015250565b6000612c3f601983612603565b9150612c4a82612c09565b602082019050919050565b60006020820190508181036000830152612c6e81612c32565b9050919050565b7f4e6f20746f6b656e20746f207769746864726177200000000000000000000000600082015250565b6000612cab601583612603565b9150612cb682612c75565b602082019050919050565b60006020820190508181036000830152612cda81612c9e565b9050919050565b7f43616e2774207769746864726177206d6f7265207468616e2076657374656400600082015250565b6000612d17601f83612603565b9150612d2282612ce1565b602082019050919050565b60006020820190508181036000830152612d4681612d0a565b9050919050565b6000604082019050612d6260008301856122b0565b612d6f60208301846121df565b9392505050565b600081519050612d85816124b4565b92915050565b600060208284031215612da157612da0612209565b5b6000612daf84828501612d76565b91505092915050565b6000612dc3826121d5565b9150612dce836121d5565b9250828203905081811115612de657612de561289f565b5b92915050565b7f4e6f74204f70656e000000000000000000000000000000000000000000000000600082015250565b6000612e22600883612603565b9150612e2d82612dec565b602082019050919050565b60006020820190508181036000830152612e5181612e15565b9050919050565b7f4f776e61626c653a206e6577206f776e657220697320746865207a65726f206160008201527f6464726573730000000000000000000000000000000000000000000000000000602082015250565b6000612eb4602683612603565b9150612ebf82612e58565b604082019050919050565b60006020820190508181036000830152612ee381612ea7565b9050919050565b7f4f776e61626c653a2063616c6c6572206973206e6f7420746865206f776e6572600082015250565b6000612f20602083612603565b9150612f2b82612eea565b602082019050919050565b60006020820190508181036000830152612f4f81612f13565b9050919050565b6000612f61826121d5565b9150612f6c836121d5565b9250828201905080821115612f8457612f8361289f565b5b92915050565b6000606082019050612f9f60008301866122b0565b612fac60208301856122b0565b612fb960408301846121df565b949350505050565b7f5361666545524332303a204552433230206f7065726174696f6e20646964206e60008201527f6f74207375636365656400000000000000000000000000000000000000000000602082015250565b600061301d602a83612603565b915061302882612fc1565b604082019050919050565b6000602082019050818103600083015261304c81613010565b9050919050565b7f416464726573733a20696e73756666696369656e742062616c616e636520666f60008201527f722063616c6c0000000000000000000000000000000000000000000000000000602082015250565b60006130af602683612603565b91506130ba82613053565b604082019050919050565b600060208201905081810360008301526130de816130a2565b9050919050565b600081519050919050565b60005b8381101561310e5780820151818401526020810190506130f3565b60008484015250505050565b6000613125826130e5565b61312f81856127ed565b935061313f8185602086016130f0565b80840191505092915050565b6000613157828461311a565b915081905092915050565b7f416464726573733a2063616c6c20746f206e6f6e2d636f6e7472616374000000600082015250565b6000613198601d83612603565b91506131a382613162565b602082019050919050565b600060208201905081810360008301526131c78161318b565b9050919050565b600081519050919050565b6000601f19601f8301169050919050565b60006131f5826131ce565b6131ff8185612603565b935061320f8185602086016130f0565b613218816131d9565b840191505092915050565b6000602082019050818103600083015261323d81846131ea565b90509291505056fea26469706673582212205f8ddb789d796ce948f34946827b623c8266b167c6eda26c384db3dff77b204564736f6c63430008110033",
  "linkReferences": {},
  "deployedLinkReferences": {}
}