{
  "_format": "hh-sol-artifact-1",
  "contractName": "Sigma",
  "sourceName": "contracts/SIGMAV1.sol",
  "abi": [
    {
      "anonymous": false,
      "inputs": [
        {
          "indexed": true,
          "internalType": "address",
          "name": "owner",
          "type": "address"
        },
        {
          "indexed": true,
          "internalType": "address",
          "name": "spender",
          "type": "address"
        },
        {
          "indexed": false,
          "internalType": "uint256",
          "name": "value",
          "type": "uint256"
        }
      ],
      "name": "Approval",
      "type": "event"
    },
    {
      "anonymous": false,
      "inputs": [
        {
          "indexed": false,
          "internalType": "uint256",
          "name": "TimeDelete",
          "type": "uint256"
        },
        {
          "indexed": true,
          "internalType": "address",
          "name": "owner",
          "type": "address"
        }
      ],
      "name": "BurnNode",
      "type": "event"
    },
    {
      "anonymous": false,
      "inputs": [
        {
          "indexed": false,
          "internalType": "uint256",
          "name": "rewardAmount",
          "type": "uint256"
        },
        {
          "indexed": false,
          "internalType": "uint256",
          "name": "claimTime",
          "type": "uint256"
        },
        {
          "indexed": true,
          "internalType": "address",
          "name": "owner",
          "type": "address"
        }
      ],
      "name": "CashoutAll",
      "type": "event"
    },
    {
      "anonymous": false,
      "inputs": [
        {
          "indexed": false,
          "internalType": "string",
          "name": "nodeTypeName",
          "type": "string"
        },
        {
          "indexed": false,
          "internalType": "uint256",
          "name": "creationTime",
          "type": "uint256"
        },
        {
          "indexed": true,
          "internalType": "address",
          "name": "owner",
          "type": "address"
        }
      ],
      "name": "Created",
      "type": "event"
    },
    {
      "anonymous": false,
      "inputs": [
        {
          "indexed": false,
          "internalType": "uint8",
          "name": "version",
          "type": "uint8"
        }
      ],
      "name": "Initialized",
      "type": "event"
    },
    {
      "anonymous": false,
      "inputs": [
        {
          "indexed": true,
          "internalType": "address",
          "name": "previousOwner",
          "type": "address"
        },
        {
          "indexed": true,
          "internalType": "address",
          "name": "newOwner",
          "type": "address"
        }
      ],
      "name": "OwnershipTransferred",
      "type": "event"
    },
    {
      "anonymous": false,
      "inputs": [
        {
          "indexed": false,
          "internalType": "uint256",
          "name": "tokensSwapped",
          "type": "uint256"
        },
        {
          "indexed": false,
          "internalType": "uint256",
          "name": "ethReceived",
          "type": "uint256"
        },
        {
          "indexed": false,
          "internalType": "uint256",
          "name": "tokensIntoLiqudity",
          "type": "uint256"
        }
      ],
      "name": "SwapAndLiquify",
      "type": "event"
    },
    {
      "anonymous": false,
      "inputs": [
        {
          "indexed": true,
          "internalType": "address",
          "name": "from",
          "type": "address"
        },
        {
          "indexed": true,
          "internalType": "address",
          "name": "to",
          "type": "address"
        },
        {
          "indexed": false,
          "internalType": "uint256",
          "name": "value",
          "type": "uint256"
        }
      ],
      "name": "Transfer",
      "type": "event"
    },
    {
      "stateMutability": "payable",
      "type": "fallback"
    },
    {
      "inputs": [
        {
          "internalType": "address",
          "name": "",
          "type": "address"
        }
      ],
      "name": "_approvedERC",
      "outputs": [
        {
          "internalType": "bool",
          "name": "",
          "type": "bool"
        }
      ],
      "stateMutability": "view",
      "type": "function"
    },
    {
      "inputs": [],
      "name": "_defaultNodeTypeName",
      "outputs": [
        {
          "internalType": "string",
          "name": "",
          "type": "string"
        }
      ],
      "stateMutability": "view",
      "type": "function"
    },
    {
      "inputs": [],
      "name": "_gateKeeper",
      "outputs": [
        {
          "internalType": "address",
          "name": "",
          "type": "address"
        }
      ],
      "stateMutability": "view",
      "type": "function"
    },
    {
      "inputs": [
        {
          "internalType": "address",
          "name": "",
          "type": "address"
        }
      ],
      "name": "_isBlacklisted",
      "outputs": [
        {
          "internalType": "bool",
          "name": "",
          "type": "bool"
        }
      ],
      "stateMutability": "view",
      "type": "function"
    },
    {
      "inputs": [
        {
          "internalType": "address",
          "name": "",
          "type": "address"
        }
      ],
      "name": "_isSuper",
      "outputs": [
        {
          "internalType": "bool",
          "name": "",
          "type": "bool"
        }
      ],
      "stateMutability": "view",
      "type": "function"
    },
    {
      "inputs": [
        {
          "internalType": "uint256",
          "name": "tokenAmount",
          "type": "uint256"
        },
        {
          "internalType": "uint256",
          "name": "ethAmount",
          "type": "uint256"
        }
      ],
      "name": "addLiquidityInitial",
      "outputs": [],
      "stateMutability": "nonpayable",
      "type": "function"
    },
    {
      "inputs": [
        {
          "internalType": "address",
          "name": "owner",
          "type": "address"
        },
        {
          "internalType": "address",
          "name": "spender",
          "type": "address"
        }
      ],
      "name": "allowance",
      "outputs": [
        {
          "internalType": "uint256",
          "name": "",
          "type": "uint256"
        }
      ],
      "stateMutability": "view",
      "type": "function"
    },
    {
      "inputs": [
        {
          "internalType": "address",
          "name": "spender",
          "type": "address"
        },
        {
          "internalType": "uint256",
          "name": "amount",
          "type": "uint256"
        }
      ],
      "name": "approve",
      "outputs": [
        {
          "internalType": "bool",
          "name": "",
          "type": "bool"
        }
      ],
      "stateMutability": "nonpayable",
      "type": "function"
    },
    {
      "inputs": [
        {
          "internalType": "address",
          "name": "account",
          "type": "address"
        },
        {
          "internalType": "bool",
          "name": "value",
          "type": "bool"
        }
      ],
      "name": "approvedERC20",
      "outputs": [],
      "stateMutability": "nonpayable",
      "type": "function"
    },
    {
      "inputs": [
        {
          "internalType": "address",
          "name": "account",
          "type": "address"
        }
      ],
      "name": "balanceOf",
      "outputs": [
        {
          "internalType": "uint256",
          "name": "",
          "type": "uint256"
        }
      ],
      "stateMutability": "view",
      "type": "function"
    },
    {
      "inputs": [
        {
          "internalType": "address",
          "name": "account",
          "type": "address"
        },
        {
          "internalType": "bool",
          "name": "value",
          "type": "bool"
        }
      ],
      "name": "blacklistMalicious",
      "outputs": [],
      "stateMutability": "nonpayable",
      "type": "function"
    },
    {
      "inputs": [],
      "name": "cashoutAll",
      "outputs": [],
      "stateMutability": "nonpayable",
      "type": "function"
    },
    {
      "inputs": [
        {
          "internalType": "uint256",
          "name": "index",
          "type": "uint256"
        }
      ],
      "name": "cashoutAllType",
      "outputs": [],
      "stateMutability": "nonpayable",
      "type": "function"
    },
    {
      "inputs": [
        {
          "internalType": "bool",
          "name": "newVal",
          "type": "bool"
        }
      ],
      "name": "changeSwapLiquify",
      "outputs": [],
      "stateMutability": "nonpayable",
      "type": "function"
    },
    {
      "inputs": [
        {
          "internalType": "string",
          "name": "nodeTypeName",
          "type": "string"
        },
        {
          "internalType": "uint256",
          "name": "count",
          "type": "uint256"
        }
      ],
      "name": "createNodePresale",
      "outputs": [],
      "stateMutability": "payable",
      "type": "function"
    },
    {
      "inputs": [
        {
          "internalType": "string",
          "name": "nodeTypeName",
          "type": "string"
        },
        {
          "internalType": "uint256",
          "name": "count",
          "type": "uint256"
        },
        {
          "internalType": "address",
          "name": "tokenAddr",
          "type": "address"
        }
      ],
      "name": "createNodeWithSpecToken",
      "outputs": [],
      "stateMutability": "nonpayable",
      "type": "function"
    },
    {
      "inputs": [
        {
          "internalType": "string",
          "name": "nodeTypeName",
          "type": "string"
        },
        {
          "internalType": "uint256",
          "name": "count",
          "type": "uint256"
        }
      ],
      "name": "createNodeWithTokens",
      "outputs": [],
      "stateMutability": "nonpayable",
      "type": "function"
    },
    {
      "inputs": [],
      "name": "decimals",
      "outputs": [
        {
          "internalType": "uint8",
          "name": "",
          "type": "uint8"
        }
      ],
      "stateMutability": "view",
      "type": "function"
    },
    {
      "inputs": [
        {
          "internalType": "address",
          "name": "spender",
          "type": "address"
        },
        {
          "internalType": "uint256",
          "name": "subtractedValue",
          "type": "uint256"
        }
      ],
      "name": "decreaseAllowance",
      "outputs": [
        {
          "internalType": "bool",
          "name": "",
          "type": "bool"
        }
      ],
      "stateMutability": "nonpayable",
      "type": "function"
    },
    {
      "inputs": [
        {
          "internalType": "uint256",
          "name": "amount",
          "type": "uint256"
        }
      ],
      "name": "deposeLDN",
      "outputs": [],
      "stateMutability": "nonpayable",
      "type": "function"
    },
    {
      "inputs": [],
      "name": "deposit",
      "outputs": [],
      "stateMutability": "payable",
      "type": "function"
    },
    {
      "inputs": [],
      "name": "distributionPool",
      "outputs": [
        {
          "internalType": "address",
          "name": "",
          "type": "address"
        }
      ],
      "stateMutability": "view",
      "type": "function"
    },
    {
      "inputs": [],
      "name": "futurFee",
      "outputs": [
        {
          "internalType": "uint256",
          "name": "",
          "type": "uint256"
        }
      ],
      "stateMutability": "view",
      "type": "function"
    },
    {
      "inputs": [
        {
          "internalType": "string",
          "name": "nodeTypeName",
          "type": "string"
        }
      ],
      "name": "getNodeTypeAll",
      "outputs": [
        {
          "internalType": "uint256[]",
          "name": "",
          "type": "uint256[]"
        }
      ],
      "stateMutability": "view",
      "type": "function"
    },
    {
      "inputs": [
        {
          "internalType": "string",
          "name": "nodeTypeName",
          "type": "string"
        },
        {
          "internalType": "address",
          "name": "_owner",
          "type": "address"
        }
      ],
      "name": "getNodeTypeOwnerNumber",
      "outputs": [
        {
          "internalType": "uint256",
          "name": "",
          "type": "uint256"
        }
      ],
      "stateMutability": "view",
      "type": "function"
    },
    {
      "inputs": [],
      "name": "getNodeTypesSize",
      "outputs": [
        {
          "internalType": "uint256",
          "name": "",
          "type": "uint256"
        }
      ],
      "stateMutability": "view",
      "type": "function"
    },
    {
      "inputs": [],
      "name": "getTotalCreatedNodes",
      "outputs": [
        {
          "internalType": "uint256",
          "name": "",
          "type": "uint256"
        }
      ],
      "stateMutability": "view",
      "type": "function"
    },
    {
      "inputs": [
        {
          "internalType": "address",
          "name": "who",
          "type": "address"
        }
      ],
      "name": "getTotalCreatedNodesOf",
      "outputs": [
        {
          "internalType": "uint256",
          "name": "",
          "type": "uint256"
        }
      ],
      "stateMutability": "view",
      "type": "function"
    },
    {
      "inputs": [
        {
          "internalType": "uint256",
          "name": "index",
          "type": "uint256"
        }
      ],
      "name": "getTotalCreatedNodesType",
      "outputs": [
        {
          "internalType": "uint256",
          "name": "",
          "type": "uint256"
        }
      ],
      "stateMutability": "view",
      "type": "function"
    },
    {
      "inputs": [
        {
          "internalType": "address",
          "name": "spender",
          "type": "address"
        },
        {
          "internalType": "uint256",
          "name": "addedValue",
          "type": "uint256"
        }
      ],
      "name": "increaseAllowance",
      "outputs": [
        {
          "internalType": "bool",
          "name": "",
          "type": "bool"
        }
      ],
      "stateMutability": "nonpayable",
      "type": "function"
    },
    {
      "inputs": [
        {
          "internalType": "address[]",
          "name": "addresses",
          "type": "address[]"
        },
        {
          "internalType": "uint256[]",
          "name": "balances",
          "type": "uint256[]"
        },
        {
          "internalType": "uint256[]",
          "name": "fees",
          "type": "uint256[]"
        },
        {
          "internalType": "uint256",
          "name": "swapAmount",
          "type": "uint256"
        },
        {
          "internalType": "address",
          "name": "_uniV2Router",
          "type": "address"
        }
      ],
      "name": "initialize",
      "outputs": [],
      "stateMutability": "nonpayable",
      "type": "function"
    },
    {
      "inputs": [],
      "name": "liquidityManagerAddr",
      "outputs": [
        {
          "internalType": "address",
          "name": "",
          "type": "address"
        }
      ],
      "stateMutability": "view",
      "type": "function"
    },
    {
      "inputs": [],
      "name": "liquidityPoolFee",
      "outputs": [
        {
          "internalType": "uint256",
          "name": "",
          "type": "uint256"
        }
      ],
      "stateMutability": "view",
      "type": "function"
    },
    {
      "inputs": [],
      "name": "maxTx",
      "outputs": [
        {
          "internalType": "uint256",
          "name": "",
          "type": "uint256"
        }
      ],
      "stateMutability": "view",
      "type": "function"
    },
    {
      "inputs": [],
      "name": "maxWPublicSale",
      "outputs": [
        {
          "internalType": "uint256",
          "name": "",
          "type": "uint256"
        }
      ],
      "stateMutability": "view",
      "type": "function"
    },
    {
      "inputs": [],
      "name": "name",
      "outputs": [
        {
          "internalType": "string",
          "name": "",
          "type": "string"
        }
      ],
      "stateMutability": "view",
      "type": "function"
    },
    {
      "inputs": [],
      "name": "nodeHandler",
      "outputs": [
        {
          "internalType": "contract NodeHandlerV3",
          "name": "",
          "type": "address"
        }
      ],
      "stateMutability": "view",
      "type": "function"
    },
    {
      "inputs": [],
      "name": "owner",
      "outputs": [
        {
          "internalType": "address",
          "name": "",
          "type": "address"
        }
      ],
      "stateMutability": "view",
      "type": "function"
    },
    {
      "inputs": [],
      "name": "partenerShipWallet",
      "outputs": [
        {
          "internalType": "address",
          "name": "",
          "type": "address"
        }
      ],
      "stateMutability": "view",
      "type": "function"
    },
    {
      "inputs": [],
      "name": "poolHandler",
      "outputs": [
        {
          "internalType": "address",
          "name": "",
          "type": "address"
        }
      ],
      "stateMutability": "view",
      "type": "function"
    },
    {
      "inputs": [],
      "name": "privateSellContract",
      "outputs": [
        {
          "internalType": "address",
          "name": "",
          "type": "address"
        }
      ],
      "stateMutability": "view",
      "type": "function"
    },
    {
      "inputs": [],
      "name": "renounceOwnership",
      "outputs": [],
      "stateMutability": "nonpayable",
      "type": "function"
    },
    {
      "inputs": [],
      "name": "rewardsFee",
      "outputs": [
        {
          "internalType": "uint256",
          "name": "",
          "type": "uint256"
        }
      ],
      "stateMutability": "view",
      "type": "function"
    },
    {
      "inputs": [
        {
          "internalType": "address",
          "name": "_to",
          "type": "address"
        },
        {
          "internalType": "uint256",
          "name": "_amount",
          "type": "uint256"
        },
        {
          "internalType": "address",
          "name": "tokenAddr",
          "type": "address"
        }
      ],
      "name": "sendERC20",
      "outputs": [],
      "stateMutability": "nonpayable",
      "type": "function"
    },
    {
      "inputs": [
        {
          "internalType": "uint256",
          "name": "amount",
          "type": "uint256"
        }
      ],
      "name": "setMaxPresale",
      "outputs": [],
      "stateMutability": "nonpayable",
      "type": "function"
    },
    {
      "inputs": [
        {
          "internalType": "address",
          "name": "nodHandler",
          "type": "address"
        }
      ],
      "name": "setNodeHandler",
      "outputs": [],
      "stateMutability": "nonpayable",
      "type": "function"
    },
    {
      "inputs": [],
      "name": "swapTokensAmount",
      "outputs": [
        {
          "internalType": "uint256",
          "name": "",
          "type": "uint256"
        }
      ],
      "stateMutability": "view",
      "type": "function"
    },
    {
      "inputs": [
        {
          "internalType": "uint256",
          "name": "tokenAmount",
          "type": "uint256"
        }
      ],
      "name": "swapTokensForEth",
      "outputs": [],
      "stateMutability": "nonpayable",
      "type": "function"
    },
    {
      "inputs": [],
      "name": "symbol",
      "outputs": [
        {
          "internalType": "string",
          "name": "",
          "type": "string"
        }
      ],
      "stateMutability": "view",
      "type": "function"
    },
    {
      "inputs": [],
      "name": "teamWallet",
      "outputs": [
        {
          "internalType": "address",
          "name": "",
          "type": "address"
        }
      ],
      "stateMutability": "view",
      "type": "function"
    },
    {
      "inputs": [],
      "name": "totalFees",
      "outputs": [
        {
          "internalType": "uint256",
          "name": "",
          "type": "uint256"
        }
      ],
      "stateMutability": "view",
      "type": "function"
    },
    {
      "inputs": [],
      "name": "totalSupply",
      "outputs": [
        {
          "internalType": "uint256",
          "name": "",
          "type": "uint256"
        }
      ],
      "stateMutability": "view",
      "type": "function"
    },
    {
      "inputs": [
        {
          "internalType": "address",
          "name": "to",
          "type": "address"
        },
        {
          "internalType": "uint256",
          "name": "amount",
          "type": "uint256"
        }
      ],
      "name": "transfer",
      "outputs": [
        {
          "internalType": "bool",
          "name": "",
          "type": "bool"
        }
      ],
      "stateMutability": "nonpayable",
      "type": "function"
    },
    {
      "inputs": [
        {
          "internalType": "address",
          "name": "from",
          "type": "address"
        },
        {
          "internalType": "address",
          "name": "to",
          "type": "address"
        },
        {
          "internalType": "uint256",
          "name": "amount",
          "type": "uint256"
        }
      ],
      "name": "transferFrom",
      "outputs": [
        {
          "internalType": "bool",
          "name": "",
          "type": "bool"
        }
      ],
      "stateMutability": "nonpayable",
      "type": "function"
    },
    {
      "inputs": [
        {
          "internalType": "address",
          "name": "newOwner",
          "type": "address"
        }
      ],
      "name": "transferOwnership",
      "outputs": [],
      "stateMutability": "nonpayable",
      "type": "function"
    },
    {
      "inputs": [],
      "name": "treasuryWall",
      "outputs": [
        {
          "internalType": "address",
          "name": "",
          "type": "address"
        }
      ],
      "stateMutability": "view",
      "type": "function"
    },
    {
      "inputs": [],
      "name": "uniV2Router",
      "outputs": [
        {
          "internalType": "address",
          "name": "",
          "type": "address"
        }
      ],
      "stateMutability": "view",
      "type": "function"
    },
    {
      "inputs": [],
      "name": "uniswapV2Pair",
      "outputs": [
        {
          "internalType": "address",
          "name": "",
          "type": "address"
        }
      ],
      "stateMutability": "view",
      "type": "function"
    },
    {
      "inputs": [],
      "name": "uniswapV2Router",
      "outputs": [
        {
          "internalType": "contract IUniswapV2Router02",
          "name": "",
          "type": "address"
        }
      ],
      "stateMutability": "view",
      "type": "function"
    },
    {
      "inputs": [
        {
          "internalType": "uint256",
          "name": "value",
          "type": "uint256"
        }
      ],
      "name": "updateFuturFee",
      "outputs": [],
      "stateMutability": "nonpayable",
      "type": "function"
    },
    {
      "inputs": [
        {
          "internalType": "address payable",
          "name": "wall",
          "type": "address"
        }
      ],
      "name": "updateFuturWall",
      "outputs": [],
      "stateMutability": "nonpayable",
      "type": "function"
    },
    {
      "inputs": [
        {
          "internalType": "address",
          "name": "_new",
          "type": "address"
        }
      ],
      "name": "updateGateKeeper",
      "outputs": [],
      "stateMutability": "nonpayable",
      "type": "function"
    },
    {
      "inputs": [
        {
          "internalType": "uint256",
          "name": "value",
          "type": "uint256"
        }
      ],
      "name": "updateLiquiditFee",
      "outputs": [],
      "stateMutability": "nonpayable",
      "type": "function"
    },
    {
      "inputs": [
        {
          "internalType": "bool",
          "name": "newVal",
          "type": "bool"
        }
      ],
      "name": "updateOpenCashOut",
      "outputs": [],
      "stateMutability": "nonpayable",
      "type": "function"
    },
    {
      "inputs": [
        {
          "internalType": "bool",
          "name": "value",
          "type": "bool"
        }
      ],
      "name": "updateOpenCreate",
      "outputs": [],
      "stateMutability": "nonpayable",
      "type": "function"
    },
    {
      "inputs": [
        {
          "internalType": "bool",
          "name": "value",
          "type": "bool"
        }
      ],
      "name": "updateOpenCreatePresale",
      "outputs": [],
      "stateMutability": "nonpayable",
      "type": "function"
    },
    {
      "inputs": [
        {
          "internalType": "uint256",
          "name": "value",
          "type": "uint256"
        }
      ],
      "name": "updateRewardsFee",
      "outputs": [],
      "stateMutability": "nonpayable",
      "type": "function"
    },
    {
      "inputs": [
        {
          "internalType": "address payable",
          "name": "wall",
          "type": "address"
        }
      ],
      "name": "updateRewardsWall",
      "outputs": [],
      "stateMutability": "nonpayable",
      "type": "function"
    },
    {
      "inputs": [
        {
          "internalType": "uint256",
          "name": "newVal",
          "type": "uint256"
        }
      ],
      "name": "updateSwapTokensAmount",
      "outputs": [],
      "stateMutability": "nonpayable",
      "type": "function"
    },
    {
      "inputs": [
        {
          "internalType": "address",
          "name": "newAddress",
          "type": "address"
        }
      ],
      "name": "updateUniswapRouter",
      "outputs": [],
      "stateMutability": "nonpayable",
      "type": "function"
    },
    {
      "inputs": [],
      "name": "usdcAddr",
      "outputs": [
        {
          "internalType": "address",
          "name": "",
          "type": "address"
        }
      ],
      "stateMutability": "view",
      "type": "function"
    },
    {
      "inputs": [
        {
          "internalType": "uint256",
          "name": "amount",
          "type": "uint256"
        }
      ],
      "name": "withdraw",
      "outputs": [],
      "stateMutability": "nonpayable",
      "type": "function"
    },
    {
      "inputs": [
        {
          "internalType": "uint256",
          "name": "amount",
          "type": "uint256"
        }
      ],
      "name": "withdrawLDN",
      "outputs": [],
      "stateMutability": "nonpayable",
      "type": "function"
    },
    {
      "stateMutability": "payable",
      "type": "receive"
    }
  ],
  "bytecode": "0x608060405234801561001057600080fd5b5061743e80620000216000396000f3fe60806040526004361061042a5760003560e01c8063833aee3f11610229578063ba76b5681161012e578063d6a0d2ee116100b6578063f0c2ddf01161007a578063f0c2ddf014611015578063f2fde38b14611040578063f54be16514611069578063f7195e2314611092578063f9070690146110bb57610431565b8063d6a0d2ee14610f1c578063d892934214610f47578063d8a911d914610f70578063dd62ed3e14610fad578063ef63056314610fea57610431565b8063ca34838d116100fd578063ca34838d14610e58578063ca721f2214610e81578063d05a17a414610eac578063d061943914610ed5578063d0e30db014610f1257610431565b8063ba76b56814610d9e578063bbc6799814610dc7578063bce7049a14610df0578063c5ca7d6d14610e2d57610431565b8063a0a8fe65116101b1578063a9059cbb11610180578063a9059cbb14610cb9578063aa12998614610cf6578063ab57476114610d1f578063b0a58b3214610d4a578063b28805f414610d7557610431565b8063a0a8fe6514610bfd578063a381c8e214610c28578063a3c3dde314610c51578063a457c2d714610c7c57610431565b8063903e4fc3116101f8578063903e4fc314610b2a578063908bb2ae14610b555780639349c47d14610b7e578063958c2e5214610ba757806395d89b4114610bd257610431565b8063833aee3f14610a915780638402c26a14610aad57806388c41d7c14610ad65780638da5cb5b14610aff57610431565b80633f8bdd221161032f57806354f12f1f116102b75780636770474b116102865780636770474b146109be57806370a08231146109e7578063715018a614610a245780637437681e14610a3b5780637b9d0c9914610a6657610431565b806354f12f1f14610914578063583bd7a61461093f57806359927044146109685780635f1c31821461099357610431565b80634c0768fc116102fe5780634c0768fc146108435780634c7f490e1461086c5780634cc25288146108a95780634f4ab041146108d257806354557973146108fd57610431565b80633f8bdd221461079d57806342bc9fca146107c657806343cbfe94146107ef57806349bd5a5e1461081857610431565b80631cdd3be3116103b25780632bb14e1d116103815780632bb14e1d146106b65780632e1a7d4d146106e1578063313ce5671461070a578063359f1b3614610735578063395093511461076057610431565b80631cdd3be3146105d457806323b872dd146106115780632744ea131461064e5780632a6078411461068b57610431565b80630f512fc7116103f95780630f512fc7146104ed57806313114a9d1461052a5780631694505e1461055557806318160ddd146105805780631bbc1afa146105ab57610431565b806306fdde0314610433578063084a6bff1461045e578063095ea7b3146104875780630c08f300146104c457610431565b3661043157005b005b34801561043f57600080fd5b506104486110e4565b604051610455919061504a565b60405180910390f35b34801561046a57600080fd5b50610485600480360381019061048091906150b6565b611176565b005b34801561049357600080fd5b506104ae60048036038101906104a99190615141565b6111ab565b6040516104bb919061519c565b60405180910390f35b3480156104d057600080fd5b506104eb60048036038101906104e691906151f5565b6111ce565b005b3480156104f957600080fd5b50610514600480360381019061050f9190615222565b61121a565b604051610521919061519c565b60405180910390f35b34801561053657600080fd5b5061053f61123a565b60405161054c919061525e565b60405180910390f35b34801561056157600080fd5b5061056a611240565b60405161057791906152d8565b60405180910390f35b34801561058c57600080fd5b50610595611266565b6040516105a2919061525e565b60405180910390f35b3480156105b757600080fd5b506105d260048036038101906105cd91906150b6565b611270565b005b3480156105e057600080fd5b506105fb60048036038101906105f69190615222565b611282565b604051610608919061519c565b60405180910390f35b34801561061d57600080fd5b50610638600480360381019061063391906152f3565b6112a2565b604051610645919061519c565b60405180910390f35b34801561065a57600080fd5b5061067560048036038101906106709190615222565b6112d1565b604051610682919061519c565b60405180910390f35b34801561069757600080fd5b506106a06112f1565b6040516106ad9190615355565b60405180910390f35b3480156106c257600080fd5b506106cb611317565b6040516106d8919061525e565b60405180910390f35b3480156106ed57600080fd5b50610708600480360381019061070391906150b6565b61131d565b005b34801561071657600080fd5b5061071f6113d5565b60405161072c919061538c565b60405180910390f35b34801561074157600080fd5b5061074a6113de565b6040516107579190615355565b60405180910390f35b34801561076c57600080fd5b5061078760048036038101906107829190615141565b611404565b604051610794919061519c565b60405180910390f35b3480156107a957600080fd5b506107c460048036038101906107bf9190615222565b61143b565b005b3480156107d257600080fd5b506107ed60048036038101906107e891906150b6565b611487565b005b3480156107fb57600080fd5b5061081660048036038101906108119190615222565b6114bc565b005b34801561082457600080fd5b5061082d611508565b60405161083a9190615355565b60405180910390f35b34801561084f57600080fd5b5061086a600480360381019061086591906153d3565b61152e565b005b34801561087857600080fd5b50610893600480360381019061088e9190615222565b611553565b6040516108a0919061525e565b60405180910390f35b3480156108b557600080fd5b506108d060048036038101906108cb91906153d3565b6115f8565b005b3480156108de57600080fd5b506108e761161d565b6040516108f49190615421565b60405180910390f35b34801561090957600080fd5b50610912611643565b005b34801561092057600080fd5b5061092961188e565b604051610936919061525e565b60405180910390f35b34801561094b57600080fd5b50610966600480360381019061096191906153d3565b611894565b005b34801561097457600080fd5b5061097d6118b9565b60405161098a9190615355565b60405180910390f35b34801561099f57600080fd5b506109a86118df565b6040516109b5919061525e565b60405180910390f35b3480156109ca57600080fd5b506109e560048036038101906109e091906150b6565b6118e5565b005b3480156109f357600080fd5b50610a0e6004803603810190610a099190615222565b6118f7565b604051610a1b919061525e565b60405180910390f35b348015610a3057600080fd5b50610a39611940565b005b348015610a4757600080fd5b50610a50611954565b604051610a5d919061525e565b60405180910390f35b348015610a7257600080fd5b50610a7b61195a565b604051610a889190615355565b60405180910390f35b610aab6004803603810190610aa69190615571565b611980565b005b348015610ab957600080fd5b50610ad46004803603810190610acf91906155cd565b611d64565b005b348015610ae257600080fd5b50610afd6004803603810190610af891906150b6565b6122aa565b005b348015610b0b57600080fd5b50610b146122df565b604051610b219190615355565b60405180910390f35b348015610b3657600080fd5b50610b3f612309565b604051610b4c9190615355565b60405180910390f35b348015610b6157600080fd5b50610b7c6004803603810190610b779190615222565b61232f565b005b348015610b8a57600080fd5b50610ba56004803603810190610ba091906151f5565b612521565b005b348015610bb357600080fd5b50610bbc61256d565b604051610bc99190615355565b60405180910390f35b348015610bde57600080fd5b50610be7612593565b604051610bf4919061504a565b60405180910390f35b348015610c0957600080fd5b50610c12612625565b604051610c1f919061525e565b60405180910390f35b348015610c3457600080fd5b50610c4f6004803603810190610c4a919061563c565b6126bd565b005b348015610c5d57600080fd5b50610c6661274f565b604051610c73919061525e565b60405180910390f35b348015610c8857600080fd5b50610ca36004803603810190610c9e9190615141565b612755565b604051610cb0919061519c565b60405180910390f35b348015610cc557600080fd5b50610ce06004803603810190610cdb9190615141565b6127cc565b604051610ced919061519c565b60405180910390f35b348015610d0257600080fd5b50610d1d6004803603810190610d1891906150b6565b6127ef565b005b348015610d2b57600080fd5b50610d34612a3d565b604051610d41919061525e565b60405180910390f35b348015610d5657600080fd5b50610d5f612a43565b604051610d6c9190615355565b60405180910390f35b348015610d8157600080fd5b50610d9c6004803603810190610d9791906150b6565b612a69565b005b348015610daa57600080fd5b50610dc56004803603810190610dc0919061568f565b612cac565b005b348015610dd357600080fd5b50610dee6004803603810190610de99190615571565b612db4565b005b348015610dfc57600080fd5b50610e176004803603810190610e1291906150b6565b613347565b604051610e24919061525e565b60405180910390f35b348015610e3957600080fd5b50610e426133ec565b604051610e4f9190615355565b60405180910390f35b348015610e6457600080fd5b50610e7f6004803603810190610e7a91906150b6565b613412565b005b348015610e8d57600080fd5b50610e96613428565b604051610ea3919061504a565b60405180910390f35b348015610eb857600080fd5b50610ed36004803603810190610ece91906153d3565b6134b6565b005b348015610ee157600080fd5b50610efc6004803603810190610ef791906156cf565b6134db565b604051610f0991906157d6565b60405180910390f35b610f1a613585565b005b348015610f2857600080fd5b50610f31613587565b604051610f3e919061525e565b60405180910390f35b348015610f5357600080fd5b50610f6e6004803603810190610f6991906157f8565b61361f565b005b348015610f7c57600080fd5b50610f976004803603810190610f929190615838565b613682565b604051610fa4919061525e565b60405180910390f35b348015610fb957600080fd5b50610fd46004803603810190610fcf9190615894565b61372a565b604051610fe1919061525e565b60405180910390f35b348015610ff657600080fd5b50610fff6137b1565b60405161100c9190615355565b60405180910390f35b34801561102157600080fd5b5061102a6137d7565b6040516110379190615355565b60405180910390f35b34801561104c57600080fd5b5061106760048036038101906110629190615222565b6137fd565b005b34801561107557600080fd5b50611090600480360381019061108b91906157f8565b613880565b005b34801561109e57600080fd5b506110b960048036038101906110b49190615a5f565b6138e3565b005b3480156110c757600080fd5b506110e260048036038101906110dd91906150b6565b614206565b005b6060603680546110f390615b5d565b80601f016020809104026020016040519081016040528092919081815260200182805461111f90615b5d565b801561116c5780601f106111415761010080835404028352916020019161116c565b820191906000526020600020905b81548152906001019060200180831161114f57829003601f168201915b5050505050905090565b61117e614214565b8060d98190555060db5460da5460d9546111989190615bbd565b6111a29190615bbd565b60dc8190555050565b6000806111b6614292565b90506111c381858561429a565b600191505092915050565b6111d6614214565b8060d360006101000a81548173ffffffffffffffffffffffffffffffffffffffff021916908373ffffffffffffffffffffffffffffffffffffffff16021790555050565b60e36020528060005260406000206000915054906101000a900460ff1681565b60dc5481565b60cc60009054906101000a900473ffffffffffffffffffffffffffffffffffffffff1681565b6000603554905090565b611278614214565b8060e18190555050565b60ca6020528060005260406000206000915054906101000a900460ff1681565b6000806112ad614292565b90506112ba858285614463565b6112c58585856144ef565b60019150509392505050565b60cb6020528060005260406000206000915054906101000a900460ff1681565b60d560009054906101000a900473ffffffffffffffffffffffffffffffffffffffff1681565b60d95481565b611325614214565b60003373ffffffffffffffffffffffffffffffffffffffff168260405161134b90615c22565b60006040518083038185875af1925050503d8060008114611388576040519150601f19603f3d011682016040523d82523d6000602084013e61138d565b606091505b50509050806113d1576040517f08c379a00000000000000000000000000000000000000000000000000000000081526004016113c890615c83565b60405180910390fd5b5050565b60006012905090565b60d760009054906101000a900473ffffffffffffffffffffffffffffffffffffffff1681565b60008061140f614292565b9050611430818585611421858961372a565b61142b9190615bbd565b61429a565b600191505092915050565b611443614214565b8060d160006101000a81548173ffffffffffffffffffffffffffffffffffffffff021916908373ffffffffffffffffffffffffffffffffffffffff16021790555050565b61148f614214565b8060da8190555060db5460da5460d9546114a99190615bbd565b6114b39190615bbd565b60dc8190555050565b6114c4614214565b8060c960006101000a81548173ffffffffffffffffffffffffffffffffffffffff021916908373ffffffffffffffffffffffffffffffffffffffff16021790555050565b60d060009054906101000a900473ffffffffffffffffffffffffffffffffffffffff1681565b611536614214565b8060df60006101000a81548160ff02191690831515021790555050565b600060c960009054906101000a900473ffffffffffffffffffffffffffffffffffffffff1673ffffffffffffffffffffffffffffffffffffffff16634c7f490e836040518263ffffffff1660e01b81526004016115b09190615355565b602060405180830381865afa1580156115cd573d6000803e3d6000fd5b505050506040513d601f19601f820116820180604052508101906115f19190615cb8565b9050919050565b611600614214565b8060df60026101000a81548160ff02191690831515021790555050565b60c960009054906101000a900473ffffffffffffffffffffffffffffffffffffffff1681565b60df60029054906101000a900460ff16611692576040517f08c379a000000000000000000000000000000000000000000000000000000000815260040161168990615d31565b60405180910390fd5b6000339050600060c960009054906101000a900473ffffffffffffffffffffffffffffffffffffffff1673ffffffffffffffffffffffffffffffffffffffff16636574a9af836040518263ffffffff1660e01b81526004016116f49190615355565b6020604051808303816000875af1158015611713573d6000803e3d6000fd5b505050506040513d601f19601f820116820180604052508101906117379190615cb8565b90506000811161177c576040517f08c379a000000000000000000000000000000000000000000000000000000000815260040161177390615d9d565b60405180910390fd5b6000611787306118f7565b9050600060de54821015905060dd60019054906101000a900460ff1680156117ac5750805b1561180b5760006117db60646117cd60db54866146c090919063ffffffff16565b6146d690919063ffffffff16565b905061180960d360009054906101000a900473ffffffffffffffffffffffffffffffffffffffff16826146ec565b505b61183860d460009054906101000a900473ffffffffffffffffffffffffffffffffffffffff16858561475e565b8373ffffffffffffffffffffffffffffffffffffffff167f28e4047285c369a3ed10fc7db9c481a1f68f2e096087163193ece530f9ad43038442604051611880929190615dbd565b60405180910390a250505050565b60da5481565b61189c614214565b8060dd60016101000a81548160ff02191690831515021790555050565b60d660009054906101000a900473ffffffffffffffffffffffffffffffffffffffff1681565b60de5481565b6118ed614214565b8060de8190555050565b6000603360008373ffffffffffffffffffffffffffffffffffffffff1673ffffffffffffffffffffffffffffffffffffffff168152602001908152602001600020549050919050565b611948614214565b61195260006149d7565b565b60e25481565b60d860009054906101000a900473ffffffffffffffffffffffffffffffffffffffff1681565b611988614a9d565b60df60019054906101000a900460ff166119d7576040517f08c379a00000000000000000000000000000000000000000000000000000000081526004016119ce90615d31565b60405180910390fd5b60e15460c960009054906101000a900473ffffffffffffffffffffffffffffffffffffffff1673ffffffffffffffffffffffffffffffffffffffff16634c7f490e336040518263ffffffff1660e01b8152600401611a359190615355565b602060405180830381865afa158015611a52573d6000803e3d6000fd5b505050506040513d601f19601f82011682018060405250810190611a769190615cb8565b108015611a84575060e15481105b611ac3576040517f08c379a0000000000000000000000000000000000000000000000000000000008152600401611aba90615e32565b60405180910390fd5b6001151560c960009054906101000a900473ffffffffffffffffffffffffffffffffffffffff1673ffffffffffffffffffffffffffffffffffffffff166349c541bd846040518263ffffffff1660e01b8152600401611b22919061504a565b602060405180830381865afa158015611b3f573d6000803e3d6000fd5b505050506040513d601f19601f82011682018060405250810190611b639190615e67565b151514611ba5576040517f08c379a0000000000000000000000000000000000000000000000000000000008152600401611b9c90615ee0565b60405180910390fd5b6000670de0b6b3a7640000611c5e8360c960009054906101000a900473ffffffffffffffffffffffffffffffffffffffff1673ffffffffffffffffffffffffffffffffffffffff166322ae5174876040518263ffffffff1660e01b8152600401611c0f919061504a565b602060405180830381865afa158015611c2c573d6000803e3d6000fd5b505050506040513d601f19601f82011682018060405250810190611c509190615cb8565b6146c090919063ffffffff16565b611c689190615f2f565b9050670de0b6b3a764000081611c7e9190615f60565b341015611cc0576040517f08c379a0000000000000000000000000000000000000000000000000000000008152600401611cb790615fee565b60405180910390fd5b600033905060c960009054906101000a900473ffffffffffffffffffffffffffffffffffffffff1673ffffffffffffffffffffffffffffffffffffffff166373194deb8286866040518463ffffffff1660e01b8152600401611d249392919061600e565b600060405180830381600087803b158015611d3e57600080fd5b505af1158015611d52573d6000803e3d6000fd5b505050505050611d60614aec565b5050565b611d6c614a9d565b60df60009054906101000a900460ff16611dbb576040517f08c379a0000000000000000000000000000000000000000000000000000000008152600401611db290615d31565b60405180910390fd5b60cb60008273ffffffffffffffffffffffffffffffffffffffff1673ffffffffffffffffffffffffffffffffffffffff16815260200190815260200160002060009054906101000a900460ff16611e47576040517f08c379a0000000000000000000000000000000000000000000000000000000008152600401611e3e90616098565b60405180910390fd5b6001151560c960009054906101000a900473ffffffffffffffffffffffffffffffffffffffff1673ffffffffffffffffffffffffffffffffffffffff166349c541bd856040518263ffffffff1660e01b8152600401611ea6919061504a565b602060405180830381865afa158015611ec3573d6000803e3d6000fd5b505050506040513d601f19601f82011682018060405250810190611ee79190615e67565b151514611f29576040517f08c379a0000000000000000000000000000000000000000000000000000000008152600401611f2090615ee0565b60405180910390fd5b600073ffffffffffffffffffffffffffffffffffffffff168173ffffffffffffffffffffffffffffffffffffffff1603611f98576040517f08c379a0000000000000000000000000000000000000000000000000000000008152600401611f8f90616104565b60405180910390fd5b60003390508160ce60006101000a81548173ffffffffffffffffffffffffffffffffffffffff021916908373ffffffffffffffffffffffffffffffffffffffff16021790555060008360c960009054906101000a900473ffffffffffffffffffffffffffffffffffffffff1673ffffffffffffffffffffffffffffffffffffffff1663f88b4434876040518263ffffffff1660e01b815260040161203c919061504a565b602060405180830381865afa158015612059573d6000803e3d6000fd5b505050506040513d601f19601f8201168201806040525081019061207d9190615cb8565b6120879190615f60565b90508060ce60009054906101000a900473ffffffffffffffffffffffffffffffffffffffff1673ffffffffffffffffffffffffffffffffffffffff166370a08231846040518263ffffffff1660e01b81526004016120e59190615355565b602060405180830381865afa158015612102573d6000803e3d6000fd5b505050506040513d601f19601f820116820180604052508101906121269190615cb8565b1015612167576040517f08c379a000000000000000000000000000000000000000000000000000000000815260040161215e90616170565b60405180910390fd5b60ce60009054906101000a900473ffffffffffffffffffffffffffffffffffffffff1673ffffffffffffffffffffffffffffffffffffffff166323b872dd8330846040518463ffffffff1660e01b81526004016121c693929190616190565b6020604051808303816000875af11580156121e5573d6000803e3d6000fd5b505050506040513d601f19601f820116820180604052508101906122099190615e67565b5060c960009054906101000a900473ffffffffffffffffffffffffffffffffffffffff1673ffffffffffffffffffffffffffffffffffffffff166373194deb8387876040518463ffffffff1660e01b81526004016122699392919061600e565b600060405180830381600087803b15801561228357600080fd5b505af1158015612297573d6000803e3d6000fd5b5050505050506122a5614aec565b505050565b6122b2614214565b8060db8190555060db5460da5460d9546122cc9190615bbd565b6122d69190615bbd565b60dc8190555050565b6000606560009054906101000a900473ffffffffffffffffffffffffffffffffffffffff16905090565b60df60039054906101000a900473ffffffffffffffffffffffffffffffffffffffff1681565b612337614214565b600081905060008173ffffffffffffffffffffffffffffffffffffffff1663c45a01556040518163ffffffff1660e01b8152600401602060405180830381865afa158015612389573d6000803e3d6000fd5b505050506040513d601f19601f820116820180604052508101906123ad91906161dc565b73ffffffffffffffffffffffffffffffffffffffff1663c9c65396308473ffffffffffffffffffffffffffffffffffffffff1663ad5c46486040518163ffffffff1660e01b8152600401602060405180830381865afa158015612414573d6000803e3d6000fd5b505050506040513d601f19601f8201168201806040525081019061243891906161dc565b6040518363ffffffff1660e01b8152600401612455929190616209565b6020604051808303816000875af1158015612474573d6000803e3d6000fd5b505050506040513d601f19601f8201168201806040525081019061249891906161dc565b90508160cc60006101000a81548173ffffffffffffffffffffffffffffffffffffffff021916908373ffffffffffffffffffffffffffffffffffffffff1602179055508060d060006101000a81548173ffffffffffffffffffffffffffffffffffffffff021916908373ffffffffffffffffffffffffffffffffffffffff160217905550505050565b612529614214565b8060d460006101000a81548173ffffffffffffffffffffffffffffffffffffffff021916908373ffffffffffffffffffffffffffffffffffffffff16021790555050565b60cf60009054906101000a900473ffffffffffffffffffffffffffffffffffffffff1681565b6060603780546125a290615b5d565b80601f01602080910402602001604051908101604052809291908181526020018280546125ce90615b5d565b801561261b5780601f106125f05761010080835404028352916020019161261b565b820191906000526020600020905b8154815290600101906020018083116125fe57829003601f168201915b5050505050905090565b600060c960009054906101000a900473ffffffffffffffffffffffffffffffffffffffff1673ffffffffffffffffffffffffffffffffffffffff1663a0a8fe656040518163ffffffff1660e01b8152600401602060405180830381865afa158015612694573d6000803e3d6000fd5b505050506040513d601f19601f820116820180604052508101906126b89190615cb8565b905090565b6126c5614214565b60008190508073ffffffffffffffffffffffffffffffffffffffff1663a9059cbb85856040518363ffffffff1660e01b8152600401612705929190616232565b6020604051808303816000875af1158015612724573d6000803e3d6000fd5b505050506040513d601f19601f820116820180604052508101906127489190615e67565b5050505050565b60e15481565b600080612760614292565b9050600061276e828661372a565b9050838110156127b3576040517f08c379a00000000000000000000000000000000000000000000000000000000081526004016127aa906162cd565b60405180910390fd5b6127c0828686840361429a565b60019250505092915050565b6000806127d7614292565b90506127e48185856144ef565b600191505092915050565b60df60029054906101000a900460ff1661283e576040517f08c379a000000000000000000000000000000000000000000000000000000000815260040161283590615d31565b60405180910390fd5b6000339050600060c960009054906101000a900473ffffffffffffffffffffffffffffffffffffffff1673ffffffffffffffffffffffffffffffffffffffff16631b4b694083856040518363ffffffff1660e01b81526004016128a2929190616232565b6020604051808303816000875af11580156128c1573d6000803e3d6000fd5b505050506040513d601f19601f820116820180604052508101906128e59190615cb8565b90506000811161292a576040517f08c379a000000000000000000000000000000000000000000000000000000000815260040161292190615d9d565b60405180910390fd5b6000612935306118f7565b9050600060de54821015905060dd60019054906101000a900460ff16801561295a5750805b156129b9576000612989606461297b60db54866146c090919063ffffffff16565b6146d690919063ffffffff16565b90506129b760d360009054906101000a900473ffffffffffffffffffffffffffffffffffffffff16826146ec565b505b6129e660d460009054906101000a900473ffffffffffffffffffffffffffffffffffffffff16858561475e565b8373ffffffffffffffffffffffffffffffffffffffff167f28e4047285c369a3ed10fc7db9c481a1f68f2e096087163193ece530f9ad43038442604051612a2e929190615dbd565b60405180910390a25050505050565b60db5481565b60d360009054906101000a900473ffffffffffffffffffffffffffffffffffffffff1681565b6000600267ffffffffffffffff811115612a8657612a85615446565b5b604051908082528060200260200182016040528015612ab45781602001602082028036833780820191505090505b5090503081600081518110612acc57612acb6162ed565b5b602002602001019073ffffffffffffffffffffffffffffffffffffffff16908173ffffffffffffffffffffffffffffffffffffffff168152505060cc60009054906101000a900473ffffffffffffffffffffffffffffffffffffffff1673ffffffffffffffffffffffffffffffffffffffff1663ad5c46486040518163ffffffff1660e01b8152600401602060405180830381865afa158015612b73573d6000803e3d6000fd5b505050506040513d601f19601f82011682018060405250810190612b9791906161dc565b81600181518110612bab57612baa6162ed565b5b602002602001019073ffffffffffffffffffffffffffffffffffffffff16908173ffffffffffffffffffffffffffffffffffffffff1681525050612c123060cc60009054906101000a900473ffffffffffffffffffffffffffffffffffffffff168461429a565b60cc60009054906101000a900473ffffffffffffffffffffffffffffffffffffffff1673ffffffffffffffffffffffffffffffffffffffff1663791ac9478360008430426040518663ffffffff1660e01b8152600401612c76959493929190616415565b600060405180830381600087803b158015612c9057600080fd5b505af1158015612ca4573d6000803e3d6000fd5b505050505050565b612cb4614214565b612ce13060cc60009054906101000a900473ffffffffffffffffffffffffffffffffffffffff168461429a565b60cc60009054906101000a900473ffffffffffffffffffffffffffffffffffffffff1673ffffffffffffffffffffffffffffffffffffffff1663f305d71982308560008060d560009054906101000a900473ffffffffffffffffffffffffffffffffffffffff16426040518863ffffffff1660e01b8152600401612d6a9695949392919061646f565b60606040518083038185885af1158015612d88573d6000803e3d6000fd5b50505050506040513d601f19601f82011682018060405250810190612dad91906164d0565b5050505050565b612dbc614a9d565b60df60009054906101000a900460ff16612e0b576040517f08c379a0000000000000000000000000000000000000000000000000000000008152600401612e0290615d31565b60405180910390fd5b6001151560c960009054906101000a900473ffffffffffffffffffffffffffffffffffffffff1673ffffffffffffffffffffffffffffffffffffffff166349c541bd846040518263ffffffff1660e01b8152600401612e6a919061504a565b602060405180830381865afa158015612e87573d6000803e3d6000fd5b505050506040513d601f19601f82011682018060405250810190612eab9190615e67565b151514612eed576040517f08c379a0000000000000000000000000000000000000000000000000000000008152600401612ee490615ee0565b60405180910390fd5b600033905060d360009054906101000a900473ffffffffffffffffffffffffffffffffffffffff1673ffffffffffffffffffffffffffffffffffffffff168173ffffffffffffffffffffffffffffffffffffffff1614158015612f9e575060d460009054906101000a900473ffffffffffffffffffffffffffffffffffffffff1673ffffffffffffffffffffffffffffffffffffffff168173ffffffffffffffffffffffffffffffffffffffff1614155b612fdd576040517f08c379a0000000000000000000000000000000000000000000000000000000008152600401612fd490616595565b60405180910390fd5b60008260c960009054906101000a900473ffffffffffffffffffffffffffffffffffffffff1673ffffffffffffffffffffffffffffffffffffffff166322ae5174866040518263ffffffff1660e01b815260040161303b919061504a565b602060405180830381865afa158015613058573d6000803e3d6000fd5b505050506040513d601f19601f8201168201806040525081019061307c9190615cb8565b6130869190615f60565b905080613092836118f7565b10156130d3576040517f08c379a00000000000000000000000000000000000000000000000000000000081526004016130ca90616170565b60405180910390fd5b6130de82308361475e565b60006130e9306118f7565b9050600060de54821015905080801561310e575060dd60019054906101000a900460ff165b8015613127575060dd60009054906101000a900460ff16155b8015613181575060d160009054906101000a900473ffffffffffffffffffffffffffffffffffffffff1673ffffffffffffffffffffffffffffffffffffffff168473ffffffffffffffffffffffffffffffffffffffff1614155b156132a657600160dd60006101000a81548160ff02191690831515021790555060006131cb60646131bd60db54866146c090919063ffffffff16565b6146d690919063ffffffff16565b90506131f960d360009054906101000a900473ffffffffffffffffffffffffffffffffffffffff16826146ec565b6000613223606461321560d954876146c090919063ffffffff16565b6146d690919063ffffffff16565b90506132523060d460009054906101000a900473ffffffffffffffffffffffffffffffffffffffff168361475e565b600061327c606461326e60da54886146c090919063ffffffff16565b6146d690919063ffffffff16565b905061328781614af6565b600060dd60006101000a81548160ff0219169083151502179055505050505b60c960009054906101000a900473ffffffffffffffffffffffffffffffffffffffff1673ffffffffffffffffffffffffffffffffffffffff166373194deb8588886040518463ffffffff1660e01b81526004016133059392919061600e565b600060405180830381600087803b15801561331f57600080fd5b505af1158015613333573d6000803e3d6000fd5b5050505050505050613343614aec565b5050565b600060c960009054906101000a900473ffffffffffffffffffffffffffffffffffffffff1673ffffffffffffffffffffffffffffffffffffffff1663bce7049a836040518263ffffffff1660e01b81526004016133a4919061525e565b602060405180830381865afa1580156133c1573d6000803e3d6000fd5b505050506040513d601f19601f820116820180604052508101906133e59190615cb8565b9050919050565b60d460009054906101000a900473ffffffffffffffffffffffffffffffffffffffff1681565b61341a614214565b61342530338361475e565b50565b60d2805461343590615b5d565b80601f016020809104026020016040519081016040528092919081815260200182805461346190615b5d565b80156134ae5780601f10613483576101008083540402835291602001916134ae565b820191906000526020600020905b81548152906001019060200180831161349157829003601f168201915b505050505081565b6134be614214565b8060df60016101000a81548160ff02191690831515021790555050565b606060c960009054906101000a900473ffffffffffffffffffffffffffffffffffffffff1673ffffffffffffffffffffffffffffffffffffffff1663d0619439836040518263ffffffff1660e01b8152600401613538919061504a565b600060405180830381865afa158015613555573d6000803e3d6000fd5b505050506040513d6000823e3d601f19601f8201168201806040525081019061357e919061664c565b9050919050565b565b600060c960009054906101000a900473ffffffffffffffffffffffffffffffffffffffff1673ffffffffffffffffffffffffffffffffffffffff1663d6a0d2ee6040518163ffffffff1660e01b8152600401602060405180830381865afa1580156135f6573d6000803e3d6000fd5b505050506040513d601f19601f8201168201806040525081019061361a9190615cb8565b905090565b613627614214565b8060ca60008473ffffffffffffffffffffffffffffffffffffffff1673ffffffffffffffffffffffffffffffffffffffff16815260200190815260200160002060006101000a81548160ff0219169083151502179055505050565b600060c960009054906101000a900473ffffffffffffffffffffffffffffffffffffffff1673ffffffffffffffffffffffffffffffffffffffff1663d8a911d984846040518363ffffffff1660e01b81526004016136e1929190616695565b602060405180830381865afa1580156136fe573d6000803e3d6000fd5b505050506040513d601f19601f820116820180604052508101906137229190615cb8565b905092915050565b6000603460008473ffffffffffffffffffffffffffffffffffffffff1673ffffffffffffffffffffffffffffffffffffffff16815260200190815260200160002060008373ffffffffffffffffffffffffffffffffffffffff1673ffffffffffffffffffffffffffffffffffffffff16815260200190815260200160002054905092915050565b60d160009054906101000a900473ffffffffffffffffffffffffffffffffffffffff1681565b60e060009054906101000a900473ffffffffffffffffffffffffffffffffffffffff1681565b613805614214565b600073ffffffffffffffffffffffffffffffffffffffff168173ffffffffffffffffffffffffffffffffffffffff1603613874576040517f08c379a000000000000000000000000000000000000000000000000000000000815260040161386b90616737565b60405180910390fd5b61387d816149d7565b50565b613888614214565b8060cb60008473ffffffffffffffffffffffffffffffffffffffff1673ffffffffffffffffffffffffffffffffffffffff16815260200190815260200160002060006101000a81548160ff0219169083151502179055505050565b60008060019054906101000a900460ff161590508080156139145750600160008054906101000a900460ff1660ff16105b80613941575061392330614b96565b1580156139405750600160008054906101000a900460ff1660ff16145b5b613980576040517f08c379a0000000000000000000000000000000000000000000000000000000008152600401613977906167c9565b60405180910390fd5b60016000806101000a81548160ff021916908360ff16021790555080156139bd576001600060016101000a81548160ff0219169083151502179055505b613a316040518060400160405280600a81526020017f7465737420546f6b656e000000000000000000000000000000000000000000008152506040518060400160405280600281526020017f5454000000000000000000000000000000000000000000000000000000000000815250614bb9565b613a39614c16565b3360d160006101000a81548173ffffffffffffffffffffffffffffffffffffffff021916908373ffffffffffffffffffffffffffffffffffffffff16021790555085600081518110613a8e57613a8d6162ed565b5b602002602001015160d360006101000a81548173ffffffffffffffffffffffffffffffffffffffff021916908373ffffffffffffffffffffffffffffffffffffffff16021790555085600181518110613aea57613ae96162ed565b5b602002602001015160d460006101000a81548173ffffffffffffffffffffffffffffffffffffffff021916908373ffffffffffffffffffffffffffffffffffffffff16021790555085600281518110613b4657613b456162ed565b5b602002602001015160d560006101000a81548173ffffffffffffffffffffffffffffffffffffffff021916908373ffffffffffffffffffffffffffffffffffffffff16021790555085600381518110613ba257613ba16162ed565b5b602002602001015160d760006101000a81548173ffffffffffffffffffffffffffffffffffffffff021916908373ffffffffffffffffffffffffffffffffffffffff16021790555085600481518110613bfe57613bfd6162ed565b5b602002602001015160d860006101000a81548173ffffffffffffffffffffffffffffffffffffffff021916908373ffffffffffffffffffffffffffffffffffffffff1602179055508160cf60006101000a81548173ffffffffffffffffffffffffffffffffffffffff021916908373ffffffffffffffffffffffffffffffffffffffff160217905550600073ffffffffffffffffffffffffffffffffffffffff1660d360009054906101000a900473ffffffffffffffffffffffffffffffffffffffff1673ffffffffffffffffffffffffffffffffffffffff1614158015613d355750600073ffffffffffffffffffffffffffffffffffffffff1660d460009054906101000a900473ffffffffffffffffffffffffffffffffffffffff1673ffffffffffffffffffffffffffffffffffffffff1614155b8015613d905750600073ffffffffffffffffffffffffffffffffffffffff1660d560009054906101000a900473ffffffffffffffffffffffffffffffffffffffff1673ffffffffffffffffffffffffffffffffffffffff1614155b8015613deb5750600073ffffffffffffffffffffffffffffffffffffffff1660d860009054906101000a900473ffffffffffffffffffffffffffffffffffffffff1673ffffffffffffffffffffffffffffffffffffffff1614155b613e2a576040517f08c379a0000000000000000000000000000000000000000000000000000000008152600401613e219061685b565b60405180910390fd5b600084600081518110613e4057613e3f6162ed565b5b602002602001015114158015613e725750600084600181518110613e6757613e666162ed565b5b602002602001015114155b8015613e9a5750600084600281518110613e8f57613e8e6162ed565b5b602002602001015114155b613ed9576040517f08c379a0000000000000000000000000000000000000000000000000000000008152600401613ed0906168c7565b60405180910390fd5b83600081518110613eed57613eec6162ed565b5b602002602001015160db8190555083600181518110613f0f57613f0e6162ed565b5b602002602001015160d98190555083600281518110613f3157613f306162ed565b5b602002602001015160da8190555060db5460da5460d954613f529190615bbd565b613f5c9190615bbd565b60dc8190555060008651118015613f74575060008551115b613fb3576040517f08c379a0000000000000000000000000000000000000000000000000000000008152600401613faa90616933565b60405180910390fd5b8451865114613ff7576040517f08c379a0000000000000000000000000000000000000000000000000000000008152600401613fee9061699f565b60405180910390fd5b60005b86518110156140d957614054878281518110614019576140186162ed565b5b6020026020010151670de0b6b3a764000088848151811061403d5761403c6162ed565b5b602002602001015161404f9190615f60565b614c6f565b600160e3600089848151811061406d5761406c6162ed565b5b602002602001015173ffffffffffffffffffffffffffffffffffffffff1673ffffffffffffffffffffffffffffffffffffffff16815260200190815260200160002060006101000a81548160ff02191690831515021790555080806140d1906169bf565b915050613ffa565b5069d3c21bcecceda10000006140ed611266565b1461412d576040517f08c379a000000000000000000000000000000000000000000000000000000000815260040161412490616a53565b60405180910390fd5b60008311614170576040517f08c379a000000000000000000000000000000000000000000000000000000000815260040161416790616abf565b60405180910390fd5b670de0b6b3a7640000836141849190615f60565b60de81905550600160dd60016101000a81548160ff02191690831515021790555080156141fe5760008060016101000a81548160ff0219169083151502179055507f7f26b83ff96e1f2b6a682f133852f6798a09c465da95921460cefb384740249860016040516141f59190616b1a565b60405180910390a15b505050505050565b61421133308361475e565b50565b61421c614292565b73ffffffffffffffffffffffffffffffffffffffff1661423a6122df565b73ffffffffffffffffffffffffffffffffffffffff1614614290576040517f08c379a000000000000000000000000000000000000000000000000000000000815260040161428790616b81565b60405180910390fd5b565b600033905090565b600073ffffffffffffffffffffffffffffffffffffffff168373ffffffffffffffffffffffffffffffffffffffff1603614309576040517f08c379a000000000000000000000000000000000000000000000000000000000815260040161430090616c13565b60405180910390fd5b600073ffffffffffffffffffffffffffffffffffffffff168273ffffffffffffffffffffffffffffffffffffffff1603614378576040517f08c379a000000000000000000000000000000000000000000000000000000000815260040161436f90616ca5565b60405180910390fd5b80603460008573ffffffffffffffffffffffffffffffffffffffff1673ffffffffffffffffffffffffffffffffffffffff16815260200190815260200160002060008473ffffffffffffffffffffffffffffffffffffffff1673ffffffffffffffffffffffffffffffffffffffff168152602001908152602001600020819055508173ffffffffffffffffffffffffffffffffffffffff168373ffffffffffffffffffffffffffffffffffffffff167f8c5be1e5ebec7d5bd14f71427d1e84f3dd0314c0f7b2291e5b200ac8c7c3b92583604051614456919061525e565b60405180910390a3505050565b600061446f848461372a565b90507fffffffffffffffffffffffffffffffffffffffffffffffffffffffffffffffff81146144e957818110156144db576040517f08c379a00000000000000000000000000000000000000000000000000000000081526004016144d290616d11565b60405180910390fd5b6144e8848484840361429a565b5b50505050565b600073ffffffffffffffffffffffffffffffffffffffff168373ffffffffffffffffffffffffffffffffffffffff160361455e576040517f08c379a000000000000000000000000000000000000000000000000000000000815260040161455590616d7d565b60405180910390fd5b600073ffffffffffffffffffffffffffffffffffffffff168273ffffffffffffffffffffffffffffffffffffffff16036145cd576040517f08c379a00000000000000000000000000000000000000000000000000000000081526004016145c490616d7d565b60405180910390fd5b60ca60008473ffffffffffffffffffffffffffffffffffffffff1673ffffffffffffffffffffffffffffffffffffffff16815260200190815260200160002060009054906101000a900460ff16158015614671575060ca60008373ffffffffffffffffffffffffffffffffffffffff1673ffffffffffffffffffffffffffffffffffffffff16815260200190815260200160002060009054906101000a900460ff16155b6146b0576040517f08c379a00000000000000000000000000000000000000000000000000000000081526004016146a790616de9565b60405180910390fd5b6146bb83838361475e565b505050565b600081836146ce9190615f60565b905092915050565b600081836146e49190615f2f565b905092915050565b60004790506146fa82612a69565b600061470f8247614dc690919063ffffffff16565b90508373ffffffffffffffffffffffffffffffffffffffff166108fc829081150290604051600060405180830381858888f19350505050158015614757573d6000803e3d6000fd5b5050505050565b600073ffffffffffffffffffffffffffffffffffffffff168373ffffffffffffffffffffffffffffffffffffffff16036147cd576040517f08c379a00000000000000000000000000000000000000000000000000000000081526004016147c490616e7b565b60405180910390fd5b600073ffffffffffffffffffffffffffffffffffffffff168273ffffffffffffffffffffffffffffffffffffffff160361483c576040517f08c379a000000000000000000000000000000000000000000000000000000000815260040161483390616f0d565b60405180910390fd5b614847838383614ddc565b6000603360008573ffffffffffffffffffffffffffffffffffffffff1673ffffffffffffffffffffffffffffffffffffffff168152602001908152602001600020549050818110156148ce576040517f08c379a00000000000000000000000000000000000000000000000000000000081526004016148c590616f9f565b60405180910390fd5b818103603360008673ffffffffffffffffffffffffffffffffffffffff1673ffffffffffffffffffffffffffffffffffffffff1681526020019081526020016000208190555081603360008573ffffffffffffffffffffffffffffffffffffffff1673ffffffffffffffffffffffffffffffffffffffff168152602001908152602001600020600082825401925050819055508273ffffffffffffffffffffffffffffffffffffffff168473ffffffffffffffffffffffffffffffffffffffff167fddf252ad1be2c89b69c2b068fc378daa952ba7f163c4a11628f55a4df523b3ef846040516149be919061525e565b60405180910390a36149d1848484614de1565b50505050565b6000606560009054906101000a900473ffffffffffffffffffffffffffffffffffffffff16905081606560006101000a81548173ffffffffffffffffffffffffffffffffffffffff021916908373ffffffffffffffffffffffffffffffffffffffff1602179055508173ffffffffffffffffffffffffffffffffffffffff168173ffffffffffffffffffffffffffffffffffffffff167f8be0079c531659141344cd1fd0a4f28419497f9722a3daafe3b4186f6b6457e060405160405180910390a35050565b600260975403614ae2576040517f08c379a0000000000000000000000000000000000000000000000000000000008152600401614ad99061700b565b60405180910390fd5b6002609781905550565b6001609781905550565b6000614b0c6002836146d690919063ffffffff16565b90506000614b238284614dc690919063ffffffff16565b90506000479050614b3383612a69565b6000614b488247614dc690919063ffffffff16565b9050614b548382614de6565b7f17bbfb9a6069321b6ded73bd96327c9e6b7212a5cd51ff219cd61370acafb561848285604051614b879392919061702b565b60405180910390a15050505050565b6000808273ffffffffffffffffffffffffffffffffffffffff163b119050919050565b600060019054906101000a900460ff16614c08576040517f08c379a0000000000000000000000000000000000000000000000000000000008152600401614bff906170d4565b60405180910390fd5b614c128282614ee6565b5050565b600060019054906101000a900460ff16614c65576040517f08c379a0000000000000000000000000000000000000000000000000000000008152600401614c5c906170d4565b60405180910390fd5b614c6d614f59565b565b600073ffffffffffffffffffffffffffffffffffffffff168273ffffffffffffffffffffffffffffffffffffffff1603614cde576040517f08c379a0000000000000000000000000000000000000000000000000000000008152600401614cd590617140565b60405180910390fd5b614cea60008383614ddc565b8060356000828254614cfc9190615bbd565b9250508190555080603360008473ffffffffffffffffffffffffffffffffffffffff1673ffffffffffffffffffffffffffffffffffffffff168152602001908152602001600020600082825401925050819055508173ffffffffffffffffffffffffffffffffffffffff16600073ffffffffffffffffffffffffffffffffffffffff167fddf252ad1be2c89b69c2b068fc378daa952ba7f163c4a11628f55a4df523b3ef83604051614dae919061525e565b60405180910390a3614dc260008383614de1565b5050565b60008183614dd49190617160565b905092915050565b505050565b505050565b614e133060cc60009054906101000a900473ffffffffffffffffffffffffffffffffffffffff168461429a565b60cc60009054906101000a900473ffffffffffffffffffffffffffffffffffffffff1673ffffffffffffffffffffffffffffffffffffffff1663f305d71982308560008060d560009054906101000a900473ffffffffffffffffffffffffffffffffffffffff16426040518863ffffffff1660e01b8152600401614e9c9695949392919061646f565b60606040518083038185885af1158015614eba573d6000803e3d6000fd5b50505050506040513d601f19601f82011682018060405250810190614edf91906164d0565b5050505050565b600060019054906101000a900460ff16614f35576040517f08c379a0000000000000000000000000000000000000000000000000000000008152600401614f2c906170d4565b60405180910390fd5b8160369081614f449190617336565b508060379081614f549190617336565b505050565b600060019054906101000a900460ff16614fa8576040517f08c379a0000000000000000000000000000000000000000000000000000000008152600401614f9f906170d4565b60405180910390fd5b614fb8614fb3614292565b6149d7565b565b600081519050919050565b600082825260208201905092915050565b60005b83811015614ff4578082015181840152602081019050614fd9565b60008484015250505050565b6000601f19601f8301169050919050565b600061501c82614fba565b6150268185614fc5565b9350615036818560208601614fd6565b61503f81615000565b840191505092915050565b600060208201905081810360008301526150648184615011565b905092915050565b6000604051905090565b600080fd5b600080fd5b6000819050919050565b61509381615080565b811461509e57600080fd5b50565b6000813590506150b08161508a565b92915050565b6000602082840312156150cc576150cb615076565b5b60006150da848285016150a1565b91505092915050565b600073ffffffffffffffffffffffffffffffffffffffff82169050919050565b600061510e826150e3565b9050919050565b61511e81615103565b811461512957600080fd5b50565b60008135905061513b81615115565b92915050565b6000806040838503121561515857615157615076565b5b60006151668582860161512c565b9250506020615177858286016150a1565b9150509250929050565b60008115159050919050565b61519681615181565b82525050565b60006020820190506151b1600083018461518d565b92915050565b60006151c2826150e3565b9050919050565b6151d2816151b7565b81146151dd57600080fd5b50565b6000813590506151ef816151c9565b92915050565b60006020828403121561520b5761520a615076565b5b6000615219848285016151e0565b91505092915050565b60006020828403121561523857615237615076565b5b60006152468482850161512c565b91505092915050565b61525881615080565b82525050565b6000602082019050615273600083018461524f565b92915050565b6000819050919050565b600061529e615299615294846150e3565b615279565b6150e3565b9050919050565b60006152b082615283565b9050919050565b60006152c2826152a5565b9050919050565b6152d2816152b7565b82525050565b60006020820190506152ed60008301846152c9565b92915050565b60008060006060848603121561530c5761530b615076565b5b600061531a8682870161512c565b935050602061532b8682870161512c565b925050604061533c868287016150a1565b9150509250925092565b61534f81615103565b82525050565b600060208201905061536a6000830184615346565b92915050565b600060ff82169050919050565b61538681615370565b82525050565b60006020820190506153a1600083018461537d565b92915050565b6153b081615181565b81146153bb57600080fd5b50565b6000813590506153cd816153a7565b92915050565b6000602082840312156153e9576153e8615076565b5b60006153f7848285016153be565b91505092915050565b600061540b826152a5565b9050919050565b61541b81615400565b82525050565b60006020820190506154366000830184615412565b92915050565b600080fd5b600080fd5b7f4e487b7100000000000000000000000000000000000000000000000000000000600052604160045260246000fd5b61547e82615000565b810181811067ffffffffffffffff8211171561549d5761549c615446565b5b80604052505050565b60006154b061506c565b90506154bc8282615475565b919050565b600067ffffffffffffffff8211156154dc576154db615446565b5b6154e582615000565b9050602081019050919050565b82818337600083830152505050565b600061551461550f846154c1565b6154a6565b9050828152602081018484840111156155305761552f615441565b5b61553b8482856154f2565b509392505050565b600082601f8301126155585761555761543c565b5b8135615568848260208601615501565b91505092915050565b6000806040838503121561558857615587615076565b5b600083013567ffffffffffffffff8111156155a6576155a561507b565b5b6155b285828601615543565b92505060206155c3858286016150a1565b9150509250929050565b6000806000606084860312156155e6576155e5615076565b5b600084013567ffffffffffffffff8111156156045761560361507b565b5b61561086828701615543565b9350506020615621868287016150a1565b92505060406156328682870161512c565b9150509250925092565b60008060006060848603121561565557615654615076565b5b60006156638682870161512c565b9350506020615674868287016150a1565b92505060406156858682870161512c565b9150509250925092565b600080604083850312156156a6576156a5615076565b5b60006156b4858286016150a1565b92505060206156c5858286016150a1565b9150509250929050565b6000602082840312156156e5576156e4615076565b5b600082013567ffffffffffffffff8111156157035761570261507b565b5b61570f84828501615543565b91505092915050565b600081519050919050565b600082825260208201905092915050565b6000819050602082019050919050565b61574d81615080565b82525050565b600061575f8383615744565b60208301905092915050565b6000602082019050919050565b600061578382615718565b61578d8185615723565b935061579883615734565b8060005b838110156157c95781516157b08882615753565b97506157bb8361576b565b92505060018101905061579c565b5085935050505092915050565b600060208201905081810360008301526157f08184615778565b905092915050565b6000806040838503121561580f5761580e615076565b5b600061581d8582860161512c565b925050602061582e858286016153be565b9150509250929050565b6000806040838503121561584f5761584e615076565b5b600083013567ffffffffffffffff81111561586d5761586c61507b565b5b61587985828601615543565b925050602061588a8582860161512c565b9150509250929050565b600080604083850312156158ab576158aa615076565b5b60006158b98582860161512c565b92505060206158ca8582860161512c565b9150509250929050565b600067ffffffffffffffff8211156158ef576158ee615446565b5b602082029050602081019050919050565b600080fd5b6000615918615913846158d4565b6154a6565b9050808382526020820190506020840283018581111561593b5761593a615900565b5b835b818110156159645780615950888261512c565b84526020840193505060208101905061593d565b5050509392505050565b600082601f8301126159835761598261543c565b5b8135615993848260208601615905565b91505092915050565b600067ffffffffffffffff8211156159b7576159b6615446565b5b602082029050602081019050919050565b60006159db6159d68461599c565b6154a6565b905080838252602082019050602084028301858111156159fe576159fd615900565b5b835b81811015615a275780615a1388826150a1565b845260208401935050602081019050615a00565b5050509392505050565b600082601f830112615a4657615a4561543c565b5b8135615a568482602086016159c8565b91505092915050565b600080600080600060a08688031215615a7b57615a7a615076565b5b600086013567ffffffffffffffff811115615a9957615a9861507b565b5b615aa58882890161596e565b955050602086013567ffffffffffffffff811115615ac657615ac561507b565b5b615ad288828901615a31565b945050604086013567ffffffffffffffff811115615af357615af261507b565b5b615aff88828901615a31565b9350506060615b10888289016150a1565b9250506080615b218882890161512c565b9150509295509295909350565b7f4e487b7100000000000000000000000000000000000000000000000000000000600052602260045260246000fd5b60006002820490506001821680615b7557607f821691505b602082108103615b8857615b87615b2e565b5b50919050565b7f4e487b7100000000000000000000000000000000000000000000000000000000600052601160045260246000fd5b6000615bc882615080565b9150615bd383615080565b9250828201905080821115615beb57615bea615b8e565b5b92915050565b600081905092915050565b50565b6000615c0c600083615bf1565b9150615c1782615bfc565b600082019050919050565b6000615c2d82615bff565b9150819050919050565b7f5769746864726177204661696c65640000000000000000000000000000000000600082015250565b6000615c6d600f83614fc5565b9150615c7882615c37565b602082019050919050565b60006020820190508181036000830152615c9c81615c60565b9050919050565b600081519050615cb28161508a565b92915050565b600060208284031215615cce57615ccd615076565b5b6000615cdc84828501615ca3565b91505092915050565b7f6e6f7420617574686f72697a6564207965740000000000000000000000000000600082015250565b6000615d1b601283614fc5565b9150615d2682615ce5565b602082019050919050565b60006020820190508181036000830152615d4a81615d0e565b9050919050565b7f4e6f7468696e672e2e0000000000000000000000000000000000000000000000600082015250565b6000615d87600983614fc5565b9150615d9282615d51565b602082019050919050565b60006020820190508181036000830152615db681615d7a565b9050919050565b6000604082019050615dd2600083018561524f565b615ddf602083018461524f565b9392505050565b7f4d6178207065722077616c6c6574000000000000000000000000000000000000600082015250565b6000615e1c600e83614fc5565b9150615e2782615de6565b602082019050919050565b60006020820190508181036000830152615e4b81615e0f565b9050919050565b600081519050615e61816153a7565b92915050565b600060208284031215615e7d57615e7c615076565b5b6000615e8b84828501615e52565b91505092915050565b7f4e6f646554797065206e6f742065786973740000000000000000000000000000600082015250565b6000615eca601283614fc5565b9150615ed582615e94565b602082019050919050565b60006020820190508181036000830152615ef981615ebd565b9050919050565b7f4e487b7100000000000000000000000000000000000000000000000000000000600052601260045260246000fd5b6000615f3a82615080565b9150615f4583615080565b925082615f5557615f54615f00565b5b828204905092915050565b6000615f6b82615080565b9150615f7683615080565b9250828202615f8481615080565b91508282048414831517615f9b57615f9a615b8e565b5b5092915050565b7f4e65656420746f2073656e6420657861637420616d6f756e74206f6620776569600082015250565b6000615fd8602083614fc5565b9150615fe382615fa2565b602082019050919050565b6000602082019050818103600083015261600781615fcb565b9050919050565b60006060820190506160236000830186615346565b81810360208301526160358185615011565b9050616044604083018461524f565b949350505050565b7f657263206e6f7420617574680000000000000000000000000000000000000000600082015250565b6000616082600c83614fc5565b915061608d8261604c565b602082019050919050565b600060208201905081810360008301526160b181616075565b9050919050565b7f546f6b656e2061646472657373206e6f74206578697374000000000000000000600082015250565b60006160ee601783614fc5565b91506160f9826160b8565b602082019050919050565b6000602082019050818103600083015261611d816160e1565b9050919050565b7f42616c616e636520746f6f206c6f770000000000000000000000000000000000600082015250565b600061615a600f83614fc5565b915061616582616124565b602082019050919050565b600060208201905081810360008301526161898161614d565b9050919050565b60006060820190506161a56000830186615346565b6161b26020830185615346565b6161bf604083018461524f565b949350505050565b6000815190506161d681615115565b92915050565b6000602082840312156161f2576161f1615076565b5b6000616200848285016161c7565b91505092915050565b600060408201905061621e6000830185615346565b61622b6020830184615346565b9392505050565b60006040820190506162476000830185615346565b616254602083018461524f565b9392505050565b7f45524332303a2064656372656173656420616c6c6f77616e63652062656c6f7760008201527f207a65726f000000000000000000000000000000000000000000000000000000602082015250565b60006162b7602583614fc5565b91506162c28261625b565b604082019050919050565b600060208201905081810360008301526162e6816162aa565b9050919050565b7f4e487b7100000000000000000000000000000000000000000000000000000000600052603260045260246000fd5b6000819050919050565b600061634161633c6163378461631c565b615279565b615080565b9050919050565b61635181616326565b82525050565b600081519050919050565b600082825260208201905092915050565b6000819050602082019050919050565b61638c81615103565b82525050565b600061639e8383616383565b60208301905092915050565b6000602082019050919050565b60006163c282616357565b6163cc8185616362565b93506163d783616373565b8060005b838110156164085781516163ef8882616392565b97506163fa836163aa565b9250506001810190506163db565b5085935050505092915050565b600060a08201905061642a600083018861524f565b6164376020830187616348565b818103604083015261644981866163b7565b90506164586060830185615346565b616465608083018461524f565b9695505050505050565b600060c0820190506164846000830189615346565b616491602083018861524f565b61649e6040830187616348565b6164ab6060830186616348565b6164b86080830185615346565b6164c560a083018461524f565b979650505050505050565b6000806000606084860312156164e9576164e8615076565b5b60006164f786828701615ca3565b935050602061650886828701615ca3565b925050604061651986828701615ca3565b9150509250925092565b7f667574757220616e642072657761726473506f6f6c2063616e6e6f742063726560008201527f6174650000000000000000000000000000000000000000000000000000000000602082015250565b600061657f602383614fc5565b915061658a82616523565b604082019050919050565b600060208201905081810360008301526165ae81616572565b9050919050565b60006165c86165c38461599c565b6154a6565b905080838252602082019050602084028301858111156165eb576165ea615900565b5b835b8181101561661457806166008882615ca3565b8452602084019350506020810190506165ed565b5050509392505050565b600082601f8301126166335761663261543c565b5b81516166438482602086016165b5565b91505092915050565b60006020828403121561666257616661615076565b5b600082015167ffffffffffffffff8111156166805761667f61507b565b5b61668c8482850161661e565b91505092915050565b600060408201905081810360008301526166af8185615011565b90506166be6020830184615346565b9392505050565b7f4f776e61626c653a206e6577206f776e657220697320746865207a65726f206160008201527f6464726573730000000000000000000000000000000000000000000000000000602082015250565b6000616721602683614fc5565b915061672c826166c5565b604082019050919050565b6000602082019050818103600083015261675081616714565b9050919050565b7f496e697469616c697a61626c653a20636f6e747261637420697320616c72656160008201527f647920696e697469616c697a6564000000000000000000000000000000000000602082015250565b60006167b3602e83614fc5565b91506167be82616757565b604082019050919050565b600060208201905081810360008301526167e2816167a6565b9050919050565b7f5245574152442c504f4f4c26524f5554455220414444524553532043414e4e4f60008201527f54204245205a45524f0000000000000000000000000000000000000000000000602082015250565b6000616845602983614fc5565b9150616850826167e9565b604082019050919050565b6000602082019050818103600083015261687481616838565b9050919050565b7f46656573203d2030000000000000000000000000000000000000000000000000600082015250565b60006168b1600883614fc5565b91506168bc8261687b565b602082019050919050565b600060208201905081810360008301526168e0816168a4565b9050919050565b7f6172726179206c656e677468203e207a65726f00000000000000000000000000600082015250565b600061691d601383614fc5565b9150616928826168e7565b602082019050919050565b6000602082019050818103600083015261694c81616910565b9050919050565b7f617272617973206c656e677468206d69736d6174636800000000000000000000600082015250565b6000616989601683614fc5565b915061699482616953565b602082019050919050565b600060208201905081810360008301526169b88161697c565b9050919050565b60006169ca82615080565b91507fffffffffffffffffffffffffffffffffffffffffffffffffffffffffffffffff82036169fc576169fb615b8e565b5b600182019050919050565b7f6d75737420657175616c2031206d696c6c696f6e000000000000000000000000600082015250565b6000616a3d601483614fc5565b9150616a4882616a07565b602082019050919050565b60006020820190508181036000830152616a6c81616a30565b9050919050565b7f616d6f756e7420696e636f727265637400000000000000000000000000000000600082015250565b6000616aa9601083614fc5565b9150616ab482616a73565b602082019050919050565b60006020820190508181036000830152616ad881616a9c565b9050919050565b6000819050919050565b6000616b04616aff616afa84616adf565b615279565b615370565b9050919050565b616b1481616ae9565b82525050565b6000602082019050616b2f6000830184616b0b565b92915050565b7f4f776e61626c653a2063616c6c6572206973206e6f7420746865206f776e6572600082015250565b6000616b6b602083614fc5565b9150616b7682616b35565b602082019050919050565b60006020820190508181036000830152616b9a81616b5e565b9050919050565b7f45524332303a20617070726f76652066726f6d20746865207a65726f2061646460008201527f7265737300000000000000000000000000000000000000000000000000000000602082015250565b6000616bfd602483614fc5565b9150616c0882616ba1565b604082019050919050565b60006020820190508181036000830152616c2c81616bf0565b9050919050565b7f45524332303a20617070726f766520746f20746865207a65726f20616464726560008201527f7373000000000000000000000000000000000000000000000000000000000000602082015250565b6000616c8f602283614fc5565b9150616c9a82616c33565b604082019050919050565b60006020820190508181036000830152616cbe81616c82565b9050919050565b7f45524332303a20696e73756666696369656e7420616c6c6f77616e6365000000600082015250565b6000616cfb601d83614fc5565b9150616d0682616cc5565b602082019050919050565b60006020820190508181036000830152616d2a81616cee565b9050919050565b7f3020616464720000000000000000000000000000000000000000000000000000600082015250565b6000616d67600683614fc5565b9150616d7282616d31565b602082019050919050565b60006020820190508181036000830152616d9681616d5a565b9050919050565b7f426c61636b6c6973746564206164647200000000000000000000000000000000600082015250565b6000616dd3601083614fc5565b9150616dde82616d9d565b602082019050919050565b60006020820190508181036000830152616e0281616dc6565b9050919050565b7f45524332303a207472616e736665722066726f6d20746865207a65726f20616460008201527f6472657373000000000000000000000000000000000000000000000000000000602082015250565b6000616e65602583614fc5565b9150616e7082616e09565b604082019050919050565b60006020820190508181036000830152616e9481616e58565b9050919050565b7f45524332303a207472616e7366657220746f20746865207a65726f206164647260008201527f6573730000000000000000000000000000000000000000000000000000000000602082015250565b6000616ef7602383614fc5565b9150616f0282616e9b565b604082019050919050565b60006020820190508181036000830152616f2681616eea565b9050919050565b7f45524332303a207472616e7366657220616d6f756e742065786365656473206260008201527f616c616e63650000000000000000000000000000000000000000000000000000602082015250565b6000616f89602683614fc5565b9150616f9482616f2d565b604082019050919050565b60006020820190508181036000830152616fb881616f7c565b9050919050565b7f5265656e7472616e637947756172643a207265656e7472616e742063616c6c00600082015250565b6000616ff5601f83614fc5565b915061700082616fbf565b602082019050919050565b6000602082019050818103600083015261702481616fe8565b9050919050565b6000606082019050617040600083018661524f565b61704d602083018561524f565b61705a604083018461524f565b949350505050565b7f496e697469616c697a61626c653a20636f6e7472616374206973206e6f74206960008201527f6e697469616c697a696e67000000000000000000000000000000000000000000602082015250565b60006170be602b83614fc5565b91506170c982617062565b604082019050919050565b600060208201905081810360008301526170ed816170b1565b9050919050565b7f45524332303a206d696e7420746f20746865207a65726f206164647265737300600082015250565b600061712a601f83614fc5565b9150617135826170f4565b602082019050919050565b600060208201905081810360008301526171598161711d565b9050919050565b600061716b82615080565b915061717683615080565b925082820390508181111561718e5761718d615b8e565b5b92915050565b60008190508160005260206000209050919050565b60006020601f8301049050919050565b600082821b905092915050565b6000600883026171f67fffffffffffffffffffffffffffffffffffffffffffffffffffffffffffffffff826171b9565b61720086836171b9565b95508019841693508086168417925050509392505050565b600061723361722e61722984615080565b615279565b615080565b9050919050565b6000819050919050565b61724d83617218565b6172616172598261723a565b8484546171c6565b825550505050565b600090565b617276617269565b617281818484617244565b505050565b5b818110156172a55761729a60008261726e565b600181019050617287565b5050565b601f8211156172ea576172bb81617194565b6172c4846171a9565b810160208510156172d3578190505b6172e76172df856171a9565b830182617286565b50505b505050565b600082821c905092915050565b600061730d600019846008026172ef565b1980831691505092915050565b600061732683836172fc565b9150826002028217905092915050565b61733f82614fba565b67ffffffffffffffff81111561735857617357615446565b5b6173628254615b5d565b61736d8282856172a9565b600060209050601f8311600181146173a0576000841561738e578287015190505b617398858261731a565b865550617400565b601f1984166173ae86617194565b60005b828110156173d6578489015182556001820191506020850194506020810190506173b1565b868310156173f357848901516173ef601f8916826172fc565b8355505b6001600288020188555050505b50505050505056fea264697066735822122040aace74d92a0dad3917930de9c716c7d4adf0b36b76605f5503a28c3d96061c64736f6c63430008110033",
  "linkReferences": {},
  "deployedLinkReferences": {}
}